{
	"contracts/SocialAuthentication2.sol": {
		"SocialAuthentication": {
			"abi": [
				{
					"inputs": [],
					"stateMutability": "nonpayable",
					"type": "constructor"
				},
				{
					"inputs": [
						{
							"internalType": "address",
							"name": "to",
							"type": "address"
						}
					],
					"name": "identity",
					"outputs": [
						{
							"components": [
								{
									"internalType": "string",
									"name": "name",
									"type": "string"
								},
								{
									"internalType": "string",
									"name": "surname",
									"type": "string"
								},
								{
									"internalType": "uint256",
									"name": "tokenId",
									"type": "uint256"
								}
							],
							"internalType": "struct SocialAuthentication.Identity",
							"name": "id",
							"type": "tuple"
						}
					],
					"stateMutability": "view",
					"type": "function"
				},
				{
					"inputs": [
						{
							"internalType": "address",
							"name": "to",
							"type": "address"
						},
						{
							"internalType": "string",
							"name": "name",
							"type": "string"
						},
						{
							"internalType": "string",
							"name": "surname",
							"type": "string"
						}
					],
					"name": "register",
					"outputs": [],
					"stateMutability": "nonpayable",
					"type": "function"
				},
				{
					"inputs": [
						{
							"internalType": "address",
							"name": "to",
							"type": "address"
						}
					],
					"name": "unregister",
					"outputs": [],
					"stateMutability": "nonpayable",
					"type": "function"
				}
			],
			"devdoc": {
				"kind": "dev",
				"methods": {},
				"version": 1
			},
			"evm": {
				"assembly": "    /* \"contracts/SocialAuthentication2.sol\":57:1062  contract SocialAuthentication {... */\n  mstore(0x40, 0x80)\n    /* \"contracts/SocialAuthentication2.sol\":281:282  0 */\n  0x00\n    /* \"contracts/SocialAuthentication2.sol\":263:282  uint256 counter = 0 */\n  0x01\n  swap1\n  dup2\n  sstore\n    /* \"contracts/SocialAuthentication2.sol\":289:305  bool lock = true */\n  0x02\n  dup1\n  sload\n  not(0xff)\n  and\n  swap1\n  swap2\n  or\n  swap1\n  sstore\n    /* \"contracts/SocialAuthentication2.sol\":93:109  constructor() {} */\n  callvalue\n  dup1\n  iszero\n  tag_1\n  jumpi\n  0x00\n  dup1\n  revert\ntag_1:\n  pop\n    /* \"contracts/SocialAuthentication2.sol\":57:1062  contract SocialAuthentication {... */\n  dataSize(sub_0)\n  dup1\n  dataOffset(sub_0)\n  0x00\n  codecopy\n  0x00\n  return\nstop\n\nsub_0: assembly {\n        /* \"contracts/SocialAuthentication2.sol\":57:1062  contract SocialAuthentication {... */\n      mstore(0x40, 0x80)\n      callvalue\n      dup1\n      iszero\n      tag_1\n      jumpi\n      0x00\n      dup1\n      revert\n    tag_1:\n      pop\n      jumpi(tag_2, lt(calldatasize, 0x04))\n      shr(0xe0, calldataload(0x00))\n      dup1\n      0x2ec2c246\n      eq\n      tag_3\n      jumpi\n      dup1\n      0x8d59cc02\n      eq\n      tag_4\n      jumpi\n      dup1\n      0xf0eb5e54\n      eq\n      tag_5\n      jumpi\n    tag_2:\n      0x00\n      dup1\n      revert\n        /* \"contracts/SocialAuthentication2.sol\":793:946  function unregister(address to) public {... */\n    tag_3:\n      tag_6\n      tag_7\n      calldatasize\n      0x04\n      tag_8\n      jump\t// in\n    tag_7:\n      tag_9\n      jump\t// in\n    tag_6:\n      stop\n        /* \"contracts/SocialAuthentication2.sol\":312:787  function register(address to, string calldata name, string calldata surname) public {... */\n    tag_4:\n      tag_6\n      tag_11\n      calldatasize\n      0x04\n      tag_12\n      jump\t// in\n    tag_11:\n      tag_13\n      jump\t// in\n        /* \"contracts/SocialAuthentication2.sol\":952:1060  function identity(address to) public view returns(Identity memory id) {... */\n    tag_5:\n      tag_14\n      tag_15\n      calldatasize\n      0x04\n      tag_8\n      jump\t// in\n    tag_15:\n      tag_16\n      jump\t// in\n    tag_14:\n      mload(0x40)\n      tag_17\n      swap2\n      swap1\n      tag_18\n      jump\t// in\n    tag_17:\n      mload(0x40)\n      dup1\n      swap2\n      sub\n      swap1\n      return\n        /* \"contracts/SocialAuthentication2.sol\":793:946  function unregister(address to) public {... */\n    tag_9:\n        /* \"contracts/SocialAuthentication2.sol\":842:866  identities[to].name = \"\" */\n      0x40\n      dup1\n      mload\n      0x20\n      dup1\n      dup3\n      add\n      dup4\n      mstore\n      0x00\n      dup1\n      dup4\n      mstore\n        /* \"contracts/SocialAuthentication2.sol\":842:856  identities[to] */\n      0xffffffffffffffffffffffffffffffffffffffff\n      dup6\n      and\n      dup2\n      mstore\n      swap1\n      dup2\n      swap1\n      mstore\n      swap2\n      swap1\n      swap2\n      keccak256\n      swap1\n        /* \"contracts/SocialAuthentication2.sol\":842:866  identities[to].name = \"\" */\n      tag_20\n      swap1\n        /* \"contracts/SocialAuthentication2.sol\":842:856  identities[to] */\n      dup3\n        /* \"contracts/SocialAuthentication2.sol\":842:866  identities[to].name = \"\" */\n      tag_21\n      jump\t// in\n    tag_20:\n      pop\n        /* \"contracts/SocialAuthentication2.sol\":876:903  identities[to].surname = \"\" */\n      0x40\n      dup1\n      mload\n      0x20\n      dup1\n      dup3\n      add\n      dup4\n      mstore\n      0x00\n      dup1\n      dup4\n      mstore\n        /* \"contracts/SocialAuthentication2.sol\":876:890  identities[to] */\n      0xffffffffffffffffffffffffffffffffffffffff\n      dup6\n      and\n      dup2\n      mstore\n      swap1\n      dup2\n      swap1\n      mstore\n      swap2\n      swap1\n      swap2\n      keccak256\n        /* \"contracts/SocialAuthentication2.sol\":876:898  identities[to].surname */\n      0x01\n      add\n      swap1\n        /* \"contracts/SocialAuthentication2.sol\":876:903  identities[to].surname = \"\" */\n      tag_22\n      swap1\n        /* \"contracts/SocialAuthentication2.sol\":876:898  identities[to].surname */\n      dup3\n        /* \"contracts/SocialAuthentication2.sol\":876:903  identities[to].surname = \"\" */\n      tag_21\n      jump\t// in\n    tag_22:\n      pop\n        /* \"contracts/SocialAuthentication2.sol\":913:927  identities[to] */\n      0xffffffffffffffffffffffffffffffffffffffff\n      and\n        /* \"contracts/SocialAuthentication2.sol\":938:939  0 */\n      0x00\n        /* \"contracts/SocialAuthentication2.sol\":913:927  identities[to] */\n      swap1\n      dup2\n      mstore\n      0x20\n      dup2\n      swap1\n      mstore\n      0x40\n      dup2\n      keccak256\n        /* \"contracts/SocialAuthentication2.sol\":913:935  identities[to].tokenId */\n      0x02\n      add\n        /* \"contracts/SocialAuthentication2.sol\":913:939  identities[to].tokenId = 0 */\n      sstore\n        /* \"contracts/SocialAuthentication2.sol\":793:946  function unregister(address to) public {... */\n      jump\t// out\n        /* \"contracts/SocialAuthentication2.sol\":312:787  function register(address to, string calldata name, string calldata surname) public {... */\n    tag_13:\n        /* \"contracts/SocialAuthentication2.sol\":416:423  counter */\n      0x01\n      dup1\n      sload\n        /* \"contracts/SocialAuthentication2.sol\":416:425  counter+1 */\n      tag_24\n      swap2\n      tag_25\n      jump\t// in\n    tag_24:\n        /* \"contracts/SocialAuthentication2.sol\":406:413  counter */\n      0x01\n        /* \"contracts/SocialAuthentication2.sol\":406:425  counter = counter+1 */\n      sstore\n        /* \"contracts/SocialAuthentication2.sol\":449:463  identities[to] */\n      0xffffffffffffffffffffffffffffffffffffffff\n      dup6\n      and\n        /* \"contracts/SocialAuthentication2.sol\":449:459  identities */\n      0x00\n        /* \"contracts/SocialAuthentication2.sol\":449:463  identities[to] */\n      swap1\n      dup2\n      mstore\n      0x20\n      dup2\n      swap1\n      mstore\n      0x40\n      swap1\n      keccak256\n        /* \"contracts/SocialAuthentication2.sol\":443:476  bytes(identities[to].name).length */\n      dup1\n      sload\n      tag_26\n      swap1\n      tag_27\n      jump\t// in\n    tag_26:\n        /* \"contracts/SocialAuthentication2.sol\":443:481  bytes(identities[to].name).length == 0 */\n      iszero\n      swap1\n      pop\n        /* \"contracts/SocialAuthentication2.sol\":435:543  require(bytes(identities[to].name).length == 0, \"You already have an identity associated with that address\") */\n      tag_28\n      jumpi\n      mload(0x40)\n      0x08c379a000000000000000000000000000000000000000000000000000000000\n      dup2\n      mstore\n        /* \"#utility.yul\":6228:6230   */\n      0x20\n        /* \"contracts/SocialAuthentication2.sol\":435:543  require(bytes(identities[to].name).length == 0, \"You already have an identity associated with that address\") */\n      0x04\n      dup3\n      add\n        /* \"#utility.yul\":6210:6231   */\n      mstore\n        /* \"#utility.yul\":6267:6269   */\n      0x39\n        /* \"#utility.yul\":6247:6265   */\n      0x24\n      dup3\n      add\n        /* \"#utility.yul\":6240:6270   */\n      mstore\n        /* \"#utility.yul\":6306:6340   */\n      0x596f7520616c7265616479206861766520616e206964656e7469747920617373\n        /* \"#utility.yul\":6286:6304   */\n      0x44\n      dup3\n      add\n        /* \"#utility.yul\":6279:6341   */\n      mstore\n        /* \"#utility.yul\":6377:6404   */\n      0x6f63696174656420776974682074686174206164647265737300000000000000\n        /* \"#utility.yul\":6357:6375   */\n      0x64\n      dup3\n      add\n        /* \"#utility.yul\":6350:6405   */\n      mstore\n        /* \"#utility.yul\":6422:6441   */\n      0x84\n      add\n        /* \"contracts/SocialAuthentication2.sol\":435:543  require(bytes(identities[to].name).length == 0, \"You already have an identity associated with that address\") */\n    tag_29:\n      mload(0x40)\n      dup1\n      swap2\n      sub\n      swap1\n      revert\n    tag_28:\n        /* \"contracts/SocialAuthentication2.sol\":561:584  bytes(name).length != 0 */\n      dup3\n      iszero\n      dup1\n      iszero\n      swap1\n        /* \"contracts/SocialAuthentication2.sol\":561:614  bytes(name).length != 0 && bytes(surname).length != 0 */\n      tag_31\n      jumpi\n      pop\n        /* \"contracts/SocialAuthentication2.sol\":588:614  bytes(surname).length != 0 */\n      dup1\n      iszero\n      iszero\n        /* \"contracts/SocialAuthentication2.sol\":561:614  bytes(name).length != 0 && bytes(surname).length != 0 */\n    tag_31:\n        /* \"contracts/SocialAuthentication2.sol\":553:649  require(bytes(name).length != 0 && bytes(surname).length != 0, \"Name or surname can't be empty\") */\n      tag_32\n      jumpi\n      mload(0x40)\n      0x08c379a000000000000000000000000000000000000000000000000000000000\n      dup2\n      mstore\n        /* \"#utility.yul\":6654:6656   */\n      0x20\n        /* \"contracts/SocialAuthentication2.sol\":553:649  require(bytes(name).length != 0 && bytes(surname).length != 0, \"Name or surname can't be empty\") */\n      0x04\n      dup3\n      add\n        /* \"#utility.yul\":6636:6657   */\n      mstore\n        /* \"#utility.yul\":6693:6695   */\n      0x1e\n        /* \"#utility.yul\":6673:6691   */\n      0x24\n      dup3\n      add\n        /* \"#utility.yul\":6666:6696   */\n      mstore\n        /* \"#utility.yul\":6732:6764   */\n      0x4e616d65206f72207375726e616d652063616e277420626520656d7074790000\n        /* \"#utility.yul\":6712:6730   */\n      0x44\n      dup3\n      add\n        /* \"#utility.yul\":6705:6765   */\n      mstore\n        /* \"#utility.yul\":6782:6800   */\n      0x64\n      add\n        /* \"contracts/SocialAuthentication2.sol\":553:649  require(bytes(name).length != 0 && bytes(surname).length != 0, \"Name or surname can't be empty\") */\n      tag_29\n        /* \"#utility.yul\":6452:6806   */\n      jump\n        /* \"contracts/SocialAuthentication2.sol\":553:649  require(bytes(name).length != 0 && bytes(surname).length != 0, \"Name or surname can't be empty\") */\n    tag_32:\n        /* \"contracts/SocialAuthentication2.sol\":676:780  Identity({... */\n      mload(0x40)\n      dup1\n      0x60\n      add\n      0x40\n      mstore\n      dup1\n        /* \"contracts/SocialAuthentication2.sol\":705:709  name */\n      dup6\n      dup6\n        /* \"contracts/SocialAuthentication2.sol\":676:780  Identity({... */\n      dup1\n      dup1\n      0x1f\n      add\n      0x20\n      dup1\n      swap2\n      div\n      mul\n      0x20\n      add\n      mload(0x40)\n      swap1\n      dup2\n      add\n      0x40\n      mstore\n      dup1\n      swap4\n      swap3\n      swap2\n      swap1\n      dup2\n      dup2\n      mstore\n      0x20\n      add\n      dup4\n      dup4\n      dup1\n      dup3\n      dup5\n      calldatacopy\n      0x00\n      swap3\n      add\n      swap2\n      swap1\n      swap2\n      mstore\n      pop\n      pop\n      pop\n      swap1\n      dup3\n      mstore\n      pop\n      0x40\n      dup1\n      mload\n      0x20\n      0x1f\n      dup7\n      add\n      dup2\n      swap1\n      div\n      dup2\n      mul\n      dup3\n      add\n      dup2\n      add\n      swap1\n      swap3\n      mstore\n      dup5\n      dup2\n      mstore\n      swap2\n      dup2\n      add\n      swap2\n      swap1\n        /* \"contracts/SocialAuthentication2.sol\":732:739  surname */\n      dup6\n      swap1\n      dup6\n      swap1\n      dup2\n      swap1\n        /* \"contracts/SocialAuthentication2.sol\":676:780  Identity({... */\n      dup5\n      add\n        /* \"contracts/SocialAuthentication2.sol\":732:739  surname */\n      dup4\n      dup3\n      dup1\n      dup3\n        /* \"contracts/SocialAuthentication2.sol\":676:780  Identity({... */\n      dup5\n      calldatacopy\n      0x00\n      swap3\n      add\n      dup3\n      swap1\n      mstore\n      pop\n      swap4\n      dup6\n      mstore\n      pop\n      pop\n        /* \"contracts/SocialAuthentication2.sol\":762:769  counter */\n      sload(0x01)\n        /* \"contracts/SocialAuthentication2.sol\":676:780  Identity({... */\n      0x20\n      swap4\n      dup5\n      add\n      mstore\n      pop\n        /* \"contracts/SocialAuthentication2.sol\":659:673  identities[to] */\n      0xffffffffffffffffffffffffffffffffffffffff\n      dup9\n      and\n      dup2\n      mstore\n      swap1\n      dup2\n      swap1\n      mstore\n      0x40\n      swap1\n      keccak256\n        /* \"contracts/SocialAuthentication2.sol\":659:780  identities[to] = Identity({... */\n      dup2\n      mload\n        /* \"contracts/SocialAuthentication2.sol\":659:673  identities[to] */\n      dup2\n      swap1\n        /* \"contracts/SocialAuthentication2.sol\":659:780  identities[to] = Identity({... */\n      tag_35\n      swap1\n        /* \"contracts/SocialAuthentication2.sol\":659:673  identities[to] */\n      dup3\n        /* \"contracts/SocialAuthentication2.sol\":659:780  identities[to] = Identity({... */\n      tag_21\n      jump\t// in\n    tag_35:\n      pop\n      0x20\n      dup3\n      add\n      mload\n      0x01\n      dup3\n      add\n      swap1\n      tag_36\n      swap1\n      dup3\n      tag_21\n      jump\t// in\n    tag_36:\n      pop\n      0x40\n      dup3\n      add\n      mload\n      dup2\n      0x02\n      add\n      sstore\n      swap1\n      pop\n      pop\n        /* \"contracts/SocialAuthentication2.sol\":312:787  function register(address to, string calldata name, string calldata surname) public {... */\n      pop\n      pop\n      pop\n      pop\n      pop\n      jump\t// out\n        /* \"contracts/SocialAuthentication2.sol\":952:1060  function identity(address to) public view returns(Identity memory id) {... */\n    tag_16:\n        /* \"contracts/SocialAuthentication2.sol\":1002:1020  Identity memory id */\n      tag_37\n      mload(0x40)\n      dup1\n      0x60\n      add\n      0x40\n      mstore\n      dup1\n      0x60\n      dup2\n      mstore\n      0x20\n      add\n      0x60\n      dup2\n      mstore\n      0x20\n      add\n      0x00\n      dup2\n      mstore\n      pop\n      swap1\n      jump\n    tag_37:\n        /* \"contracts/SocialAuthentication2.sol\":1039:1053  identities[to] */\n      0xffffffffffffffffffffffffffffffffffffffff\n      dup3\n      and\n        /* \"contracts/SocialAuthentication2.sol\":1039:1049  identities */\n      0x00\n        /* \"contracts/SocialAuthentication2.sol\":1039:1053  identities[to] */\n      swap1\n      dup2\n      mstore\n      0x20\n      dup2\n      swap1\n      mstore\n      0x40\n      swap1\n      dup2\n      swap1\n      keccak256\n        /* \"contracts/SocialAuthentication2.sol\":1032:1053  return identities[to] */\n      dup2\n      mload\n      0x60\n      dup2\n      add\n      swap1\n      swap3\n      mstore\n      dup1\n      sload\n      dup3\n      swap1\n        /* \"contracts/SocialAuthentication2.sol\":1039:1053  identities[to] */\n      dup3\n      swap1\n        /* \"contracts/SocialAuthentication2.sol\":1032:1053  return identities[to] */\n      tag_40\n      swap1\n      tag_27\n      jump\t// in\n    tag_40:\n      dup1\n      0x1f\n      add\n      0x20\n      dup1\n      swap2\n      div\n      mul\n      0x20\n      add\n      mload(0x40)\n      swap1\n      dup2\n      add\n      0x40\n      mstore\n      dup1\n      swap3\n      swap2\n      swap1\n      dup2\n      dup2\n      mstore\n      0x20\n      add\n      dup3\n      dup1\n      sload\n      tag_41\n      swap1\n      tag_27\n      jump\t// in\n    tag_41:\n      dup1\n      iszero\n      tag_42\n      jumpi\n      dup1\n      0x1f\n      lt\n      tag_43\n      jumpi\n      0x0100\n      dup1\n      dup4\n      sload\n      div\n      mul\n      dup4\n      mstore\n      swap2\n      0x20\n      add\n      swap2\n      jump(tag_42)\n    tag_43:\n      dup3\n      add\n      swap2\n      swap1\n      0x00\n      mstore\n      keccak256(0x00, 0x20)\n      swap1\n    tag_44:\n      dup2\n      sload\n      dup2\n      mstore\n      swap1\n      0x01\n      add\n      swap1\n      0x20\n      add\n      dup1\n      dup4\n      gt\n      tag_44\n      jumpi\n      dup3\n      swap1\n      sub\n      0x1f\n      and\n      dup3\n      add\n      swap2\n    tag_42:\n      pop\n      pop\n      pop\n      pop\n      pop\n      dup2\n      mstore\n      0x20\n      add\n      0x01\n      dup3\n      add\n      dup1\n      sload\n      tag_45\n      swap1\n      tag_27\n      jump\t// in\n    tag_45:\n      dup1\n      0x1f\n      add\n      0x20\n      dup1\n      swap2\n      div\n      mul\n      0x20\n      add\n      mload(0x40)\n      swap1\n      dup2\n      add\n      0x40\n      mstore\n      dup1\n      swap3\n      swap2\n      swap1\n      dup2\n      dup2\n      mstore\n      0x20\n      add\n      dup3\n      dup1\n      sload\n      tag_46\n      swap1\n      tag_27\n      jump\t// in\n    tag_46:\n      dup1\n      iszero\n      tag_47\n      jumpi\n      dup1\n      0x1f\n      lt\n      tag_48\n      jumpi\n      0x0100\n      dup1\n      dup4\n      sload\n      div\n      mul\n      dup4\n      mstore\n      swap2\n      0x20\n      add\n      swap2\n      jump(tag_47)\n    tag_48:\n      dup3\n      add\n      swap2\n      swap1\n      0x00\n      mstore\n      keccak256(0x00, 0x20)\n      swap1\n    tag_49:\n      dup2\n      sload\n      dup2\n      mstore\n      swap1\n      0x01\n      add\n      swap1\n      0x20\n      add\n      dup1\n      dup4\n      gt\n      tag_49\n      jumpi\n      dup3\n      swap1\n      sub\n      0x1f\n      and\n      dup3\n      add\n      swap2\n    tag_47:\n      pop\n      pop\n      pop\n      pop\n      pop\n      dup2\n      mstore\n      0x20\n      add\n      0x02\n      dup3\n      add\n      sload\n      dup2\n      mstore\n      pop\n      pop\n      swap1\n      pop\n        /* \"contracts/SocialAuthentication2.sol\":952:1060  function identity(address to) public view returns(Identity memory id) {... */\n      swap2\n      swap1\n      pop\n      jump\t// out\n        /* \"#utility.yul\":14:210   */\n    tag_50:\n        /* \"#utility.yul\":82:102   */\n      dup1\n      calldataload\n        /* \"#utility.yul\":142:184   */\n      0xffffffffffffffffffffffffffffffffffffffff\n        /* \"#utility.yul\":131:185   */\n      dup2\n      and\n        /* \"#utility.yul\":121:186   */\n      dup2\n      eq\n        /* \"#utility.yul\":111:204   */\n      tag_59\n      jumpi\n        /* \"#utility.yul\":200:201   */\n      0x00\n        /* \"#utility.yul\":197:198   */\n      dup1\n        /* \"#utility.yul\":190:202   */\n      revert\n        /* \"#utility.yul\":111:204   */\n    tag_59:\n        /* \"#utility.yul\":14:210   */\n      swap2\n      swap1\n      pop\n      jump\t// out\n        /* \"#utility.yul\":215:401   */\n    tag_8:\n        /* \"#utility.yul\":274:280   */\n      0x00\n        /* \"#utility.yul\":327:329   */\n      0x20\n        /* \"#utility.yul\":315:324   */\n      dup3\n        /* \"#utility.yul\":306:313   */\n      dup5\n        /* \"#utility.yul\":302:325   */\n      sub\n        /* \"#utility.yul\":298:330   */\n      slt\n        /* \"#utility.yul\":295:347   */\n      iszero\n      tag_61\n      jumpi\n        /* \"#utility.yul\":343:344   */\n      0x00\n        /* \"#utility.yul\":340:341   */\n      dup1\n        /* \"#utility.yul\":333:345   */\n      revert\n        /* \"#utility.yul\":295:347   */\n    tag_61:\n        /* \"#utility.yul\":366:395   */\n      tag_62\n        /* \"#utility.yul\":385:394   */\n      dup3\n        /* \"#utility.yul\":366:395   */\n      tag_50\n      jump\t// in\n    tag_62:\n        /* \"#utility.yul\":356:395   */\n      swap4\n        /* \"#utility.yul\":215:401   */\n      swap3\n      pop\n      pop\n      pop\n      jump\t// out\n        /* \"#utility.yul\":406:754   */\n    tag_51:\n        /* \"#utility.yul\":458:466   */\n      0x00\n        /* \"#utility.yul\":468:474   */\n      dup1\n        /* \"#utility.yul\":522:525   */\n      dup4\n        /* \"#utility.yul\":515:519   */\n      0x1f\n        /* \"#utility.yul\":507:513   */\n      dup5\n        /* \"#utility.yul\":503:520   */\n      add\n        /* \"#utility.yul\":499:526   */\n      slt\n        /* \"#utility.yul\":489:544   */\n      tag_64\n      jumpi\n        /* \"#utility.yul\":540:541   */\n      0x00\n        /* \"#utility.yul\":537:538   */\n      dup1\n        /* \"#utility.yul\":530:542   */\n      revert\n        /* \"#utility.yul\":489:544   */\n    tag_64:\n      pop\n        /* \"#utility.yul\":563:583   */\n      dup2\n      calldataload\n        /* \"#utility.yul\":606:624   */\n      0xffffffffffffffff\n        /* \"#utility.yul\":595:625   */\n      dup2\n      gt\n        /* \"#utility.yul\":592:642   */\n      iszero\n      tag_65\n      jumpi\n        /* \"#utility.yul\":638:639   */\n      0x00\n        /* \"#utility.yul\":635:636   */\n      dup1\n        /* \"#utility.yul\":628:640   */\n      revert\n        /* \"#utility.yul\":592:642   */\n    tag_65:\n        /* \"#utility.yul\":675:679   */\n      0x20\n        /* \"#utility.yul\":667:673   */\n      dup4\n        /* \"#utility.yul\":663:680   */\n      add\n        /* \"#utility.yul\":651:680   */\n      swap2\n      pop\n        /* \"#utility.yul\":727:730   */\n      dup4\n        /* \"#utility.yul\":720:724   */\n      0x20\n        /* \"#utility.yul\":711:717   */\n      dup3\n        /* \"#utility.yul\":703:709   */\n      dup6\n        /* \"#utility.yul\":699:718   */\n      add\n        /* \"#utility.yul\":695:725   */\n      add\n        /* \"#utility.yul\":692:731   */\n      gt\n        /* \"#utility.yul\":689:748   */\n      iszero\n      tag_66\n      jumpi\n        /* \"#utility.yul\":744:745   */\n      0x00\n        /* \"#utility.yul\":741:742   */\n      dup1\n        /* \"#utility.yul\":734:746   */\n      revert\n        /* \"#utility.yul\":689:748   */\n    tag_66:\n        /* \"#utility.yul\":406:754   */\n      swap3\n      pop\n      swap3\n      swap1\n      pop\n      jump\t// out\n        /* \"#utility.yul\":759:1554   */\n    tag_12:\n        /* \"#utility.yul\":860:866   */\n      0x00\n        /* \"#utility.yul\":868:874   */\n      dup1\n        /* \"#utility.yul\":876:882   */\n      0x00\n        /* \"#utility.yul\":884:890   */\n      dup1\n        /* \"#utility.yul\":892:898   */\n      0x00\n        /* \"#utility.yul\":945:947   */\n      0x60\n        /* \"#utility.yul\":933:942   */\n      dup7\n        /* \"#utility.yul\":924:931   */\n      dup9\n        /* \"#utility.yul\":920:943   */\n      sub\n        /* \"#utility.yul\":916:948   */\n      slt\n        /* \"#utility.yul\":913:965   */\n      iszero\n      tag_68\n      jumpi\n        /* \"#utility.yul\":961:962   */\n      0x00\n        /* \"#utility.yul\":958:959   */\n      dup1\n        /* \"#utility.yul\":951:963   */\n      revert\n        /* \"#utility.yul\":913:965   */\n    tag_68:\n        /* \"#utility.yul\":984:1013   */\n      tag_69\n        /* \"#utility.yul\":1003:1012   */\n      dup7\n        /* \"#utility.yul\":984:1013   */\n      tag_50\n      jump\t// in\n    tag_69:\n        /* \"#utility.yul\":974:1013   */\n      swap5\n      pop\n        /* \"#utility.yul\":1064:1066   */\n      0x20\n        /* \"#utility.yul\":1053:1062   */\n      dup7\n        /* \"#utility.yul\":1049:1067   */\n      add\n        /* \"#utility.yul\":1036:1068   */\n      calldataload\n        /* \"#utility.yul\":1087:1105   */\n      0xffffffffffffffff\n        /* \"#utility.yul\":1128:1130   */\n      dup1\n        /* \"#utility.yul\":1120:1126   */\n      dup3\n        /* \"#utility.yul\":1117:1131   */\n      gt\n        /* \"#utility.yul\":1114:1148   */\n      iszero\n      tag_70\n      jumpi\n        /* \"#utility.yul\":1144:1145   */\n      0x00\n        /* \"#utility.yul\":1141:1142   */\n      dup1\n        /* \"#utility.yul\":1134:1146   */\n      revert\n        /* \"#utility.yul\":1114:1148   */\n    tag_70:\n        /* \"#utility.yul\":1183:1242   */\n      tag_71\n        /* \"#utility.yul\":1234:1241   */\n      dup10\n        /* \"#utility.yul\":1225:1231   */\n      dup4\n        /* \"#utility.yul\":1214:1223   */\n      dup11\n        /* \"#utility.yul\":1210:1232   */\n      add\n        /* \"#utility.yul\":1183:1242   */\n      tag_51\n      jump\t// in\n    tag_71:\n        /* \"#utility.yul\":1261:1269   */\n      swap1\n      swap7\n      pop\n        /* \"#utility.yul\":1157:1242   */\n      swap5\n      pop\n        /* \"#utility.yul\":1349:1351   */\n      0x40\n        /* \"#utility.yul\":1334:1352   */\n      dup9\n      add\n        /* \"#utility.yul\":1321:1353   */\n      calldataload\n      swap2\n      pop\n        /* \"#utility.yul\":1365:1381   */\n      dup1\n      dup3\n      gt\n        /* \"#utility.yul\":1362:1398   */\n      iszero\n      tag_72\n      jumpi\n        /* \"#utility.yul\":1394:1395   */\n      0x00\n        /* \"#utility.yul\":1391:1392   */\n      dup1\n        /* \"#utility.yul\":1384:1396   */\n      revert\n        /* \"#utility.yul\":1362:1398   */\n    tag_72:\n      pop\n        /* \"#utility.yul\":1433:1494   */\n      tag_73\n        /* \"#utility.yul\":1486:1493   */\n      dup9\n        /* \"#utility.yul\":1475:1483   */\n      dup3\n        /* \"#utility.yul\":1464:1473   */\n      dup10\n        /* \"#utility.yul\":1460:1484   */\n      add\n        /* \"#utility.yul\":1433:1494   */\n      tag_51\n      jump\t// in\n    tag_73:\n        /* \"#utility.yul\":759:1554   */\n      swap7\n      swap10\n      swap6\n      swap9\n      pop\n      swap4\n      swap7\n      pop\n        /* \"#utility.yul\":1513:1521   */\n      swap3\n      swap5\n        /* \"#utility.yul\":1407:1494   */\n      swap4\n        /* \"#utility.yul\":759:1554   */\n      swap3\n      pop\n      pop\n      pop\n      jump\t// out\n        /* \"#utility.yul\":1559:2041   */\n    tag_52:\n        /* \"#utility.yul\":1601:1604   */\n      0x00\n        /* \"#utility.yul\":1639:1644   */\n      dup2\n        /* \"#utility.yul\":1633:1645   */\n      mload\n        /* \"#utility.yul\":1666:1672   */\n      dup1\n        /* \"#utility.yul\":1661:1664   */\n      dup5\n        /* \"#utility.yul\":1654:1673   */\n      mstore\n        /* \"#utility.yul\":1691:1692   */\n      0x00\n        /* \"#utility.yul\":1701:1863   */\n    tag_75:\n        /* \"#utility.yul\":1715:1721   */\n      dup2\n        /* \"#utility.yul\":1712:1713   */\n      dup2\n        /* \"#utility.yul\":1709:1722   */\n      lt\n        /* \"#utility.yul\":1701:1863   */\n      iszero\n      tag_77\n      jumpi\n        /* \"#utility.yul\":1777:1781   */\n      0x20\n        /* \"#utility.yul\":1833:1846   */\n      dup2\n      dup6\n      add\n        /* \"#utility.yul\":1829:1851   */\n      dup2\n      add\n        /* \"#utility.yul\":1823:1852   */\n      mload\n        /* \"#utility.yul\":1805:1816   */\n      dup7\n      dup4\n      add\n        /* \"#utility.yul\":1801:1821   */\n      dup3\n      add\n        /* \"#utility.yul\":1794:1853   */\n      mstore\n        /* \"#utility.yul\":1730:1742   */\n      add\n        /* \"#utility.yul\":1701:1863   */\n      jump(tag_75)\n    tag_77:\n        /* \"#utility.yul\":1705:1708   */\n      pop\n        /* \"#utility.yul\":1908:1909   */\n      0x00\n        /* \"#utility.yul\":1901:1905   */\n      0x20\n        /* \"#utility.yul\":1892:1898   */\n      dup3\n        /* \"#utility.yul\":1887:1890   */\n      dup7\n        /* \"#utility.yul\":1883:1899   */\n      add\n        /* \"#utility.yul\":1879:1906   */\n      add\n        /* \"#utility.yul\":1872:1910   */\n      mstore\n        /* \"#utility.yul\":2030:2034   */\n      0x20\n      not(0x1f)\n        /* \"#utility.yul\":1955:1957   */\n      0x1f\n        /* \"#utility.yul\":1947:1953   */\n      dup4\n        /* \"#utility.yul\":1943:1958   */\n      add\n        /* \"#utility.yul\":1939:2027   */\n      and\n        /* \"#utility.yul\":1934:1937   */\n      dup6\n        /* \"#utility.yul\":1930:2028   */\n      add\n        /* \"#utility.yul\":1926:2035   */\n      add\n        /* \"#utility.yul\":1919:2035   */\n      swap2\n      pop\n      pop\n        /* \"#utility.yul\":1559:2041   */\n      swap3\n      swap2\n      pop\n      pop\n      jump\t// out\n        /* \"#utility.yul\":2046:2723   */\n    tag_18:\n        /* \"#utility.yul\":2223:2225   */\n      0x20\n        /* \"#utility.yul\":2212:2221   */\n      dup2\n        /* \"#utility.yul\":2205:2226   */\n      mstore\n        /* \"#utility.yul\":2186:2190   */\n      0x00\n        /* \"#utility.yul\":2261:2267   */\n      dup3\n        /* \"#utility.yul\":2255:2268   */\n      mload\n        /* \"#utility.yul\":2304:2308   */\n      0x60\n        /* \"#utility.yul\":2299:2301   */\n      0x20\n        /* \"#utility.yul\":2288:2297   */\n      dup5\n        /* \"#utility.yul\":2284:2302   */\n      add\n        /* \"#utility.yul\":2277:2309   */\n      mstore\n        /* \"#utility.yul\":2332:2384   */\n      tag_79\n        /* \"#utility.yul\":2379:2382   */\n      0x80\n        /* \"#utility.yul\":2368:2377   */\n      dup5\n        /* \"#utility.yul\":2364:2383   */\n      add\n        /* \"#utility.yul\":2350:2362   */\n      dup3\n        /* \"#utility.yul\":2332:2384   */\n      tag_52\n      jump\t// in\n    tag_79:\n        /* \"#utility.yul\":2318:2384   */\n      swap1\n      pop\n        /* \"#utility.yul\":2433:2435   */\n      0x20\n        /* \"#utility.yul\":2425:2431   */\n      dup5\n        /* \"#utility.yul\":2421:2436   */\n      add\n        /* \"#utility.yul\":2415:2437   */\n      mload\n      not(0x1f)\n        /* \"#utility.yul\":2489:2498   */\n      dup5\n        /* \"#utility.yul\":2481:2487   */\n      dup4\n        /* \"#utility.yul\":2477:2499   */\n      sub\n        /* \"#utility.yul\":2473:2568   */\n      add\n        /* \"#utility.yul\":2468:2470   */\n      0x40\n        /* \"#utility.yul\":2457:2466   */\n      dup6\n        /* \"#utility.yul\":2453:2471   */\n      add\n        /* \"#utility.yul\":2446:2569   */\n      mstore\n        /* \"#utility.yul\":2592:2633   */\n      tag_80\n        /* \"#utility.yul\":2626:2632   */\n      dup3\n        /* \"#utility.yul\":2610:2624   */\n      dup3\n        /* \"#utility.yul\":2592:2633   */\n      tag_52\n      jump\t// in\n    tag_80:\n        /* \"#utility.yul\":2578:2633   */\n      swap2\n      pop\n      pop\n        /* \"#utility.yul\":2689:2691   */\n      0x40\n        /* \"#utility.yul\":2681:2687   */\n      dup5\n        /* \"#utility.yul\":2677:2692   */\n      add\n        /* \"#utility.yul\":2671:2693   */\n      mload\n        /* \"#utility.yul\":2664:2668   */\n      0x60\n        /* \"#utility.yul\":2653:2662   */\n      dup5\n        /* \"#utility.yul\":2649:2669   */\n      add\n        /* \"#utility.yul\":2642:2694   */\n      mstore\n        /* \"#utility.yul\":2711:2717   */\n      dup1\n        /* \"#utility.yul\":2703:2717   */\n      swap2\n      pop\n      pop\n        /* \"#utility.yul\":2046:2723   */\n      swap3\n      swap2\n      pop\n      pop\n      jump\t// out\n        /* \"#utility.yul\":2728:2912   */\n    tag_53:\n      shl(0xe0, 0x4e487b71)\n        /* \"#utility.yul\":2777:2778   */\n      0x00\n        /* \"#utility.yul\":2770:2858   */\n      mstore\n        /* \"#utility.yul\":2877:2881   */\n      0x41\n        /* \"#utility.yul\":2874:2875   */\n      0x04\n        /* \"#utility.yul\":2867:2882   */\n      mstore\n        /* \"#utility.yul\":2901:2905   */\n      0x24\n        /* \"#utility.yul\":2898:2899   */\n      0x00\n        /* \"#utility.yul\":2891:2906   */\n      revert\n        /* \"#utility.yul\":2917:3354   */\n    tag_27:\n        /* \"#utility.yul\":2996:2997   */\n      0x01\n        /* \"#utility.yul\":2992:3004   */\n      dup2\n      dup2\n      shr\n      swap1\n        /* \"#utility.yul\":3039:3051   */\n      dup3\n      and\n      dup1\n        /* \"#utility.yul\":3060:3121   */\n      tag_83\n      jumpi\n        /* \"#utility.yul\":3114:3118   */\n      0x7f\n        /* \"#utility.yul\":3106:3112   */\n      dup3\n        /* \"#utility.yul\":3102:3119   */\n      and\n        /* \"#utility.yul\":3092:3119   */\n      swap2\n      pop\n        /* \"#utility.yul\":3060:3121   */\n    tag_83:\n        /* \"#utility.yul\":3167:3169   */\n      0x20\n        /* \"#utility.yul\":3159:3165   */\n      dup3\n        /* \"#utility.yul\":3156:3170   */\n      lt\n        /* \"#utility.yul\":3136:3154   */\n      dup2\n        /* \"#utility.yul\":3133:3171   */\n      sub\n        /* \"#utility.yul\":3130:3348   */\n      tag_84\n      jumpi\n      shl(0xe0, 0x4e487b71)\n        /* \"#utility.yul\":3201:3202   */\n      0x00\n        /* \"#utility.yul\":3194:3282   */\n      mstore\n        /* \"#utility.yul\":3305:3309   */\n      0x22\n        /* \"#utility.yul\":3302:3303   */\n      0x04\n        /* \"#utility.yul\":3295:3310   */\n      mstore\n        /* \"#utility.yul\":3333:3337   */\n      0x24\n        /* \"#utility.yul\":3330:3331   */\n      0x00\n        /* \"#utility.yul\":3323:3338   */\n      revert\n        /* \"#utility.yul\":3130:3348   */\n    tag_84:\n      pop\n        /* \"#utility.yul\":2917:3354   */\n      swap2\n      swap1\n      pop\n      jump\t// out\n        /* \"#utility.yul\":3485:4030   */\n    tag_55:\n        /* \"#utility.yul\":3587:3589   */\n      0x1f\n        /* \"#utility.yul\":3582:3585   */\n      dup3\n        /* \"#utility.yul\":3579:3590   */\n      gt\n        /* \"#utility.yul\":3576:4024   */\n      iszero\n      tag_87\n      jumpi\n        /* \"#utility.yul\":3623:3624   */\n      0x00\n        /* \"#utility.yul\":3648:3653   */\n      dup2\n        /* \"#utility.yul\":3644:3646   */\n      dup2\n        /* \"#utility.yul\":3637:3654   */\n      mstore\n        /* \"#utility.yul\":3693:3697   */\n      0x20\n        /* \"#utility.yul\":3689:3691   */\n      dup2\n        /* \"#utility.yul\":3679:3698   */\n      keccak256\n        /* \"#utility.yul\":3763:3765   */\n      0x1f\n        /* \"#utility.yul\":3751:3761   */\n      dup6\n        /* \"#utility.yul\":3747:3766   */\n      add\n        /* \"#utility.yul\":3744:3745   */\n      0x05\n        /* \"#utility.yul\":3740:3767   */\n      shr\n        /* \"#utility.yul\":3734:3738   */\n      dup2\n        /* \"#utility.yul\":3730:3768   */\n      add\n        /* \"#utility.yul\":3799:3803   */\n      0x20\n        /* \"#utility.yul\":3787:3797   */\n      dup7\n        /* \"#utility.yul\":3784:3804   */\n      lt\n        /* \"#utility.yul\":3781:3828   */\n      iszero\n      tag_88\n      jumpi\n      pop\n        /* \"#utility.yul\":3822:3826   */\n      dup1\n        /* \"#utility.yul\":3781:3828   */\n    tag_88:\n        /* \"#utility.yul\":3877:3879   */\n      0x1f\n        /* \"#utility.yul\":3872:3875   */\n      dup6\n        /* \"#utility.yul\":3868:3880   */\n      add\n        /* \"#utility.yul\":3865:3866   */\n      0x05\n        /* \"#utility.yul\":3861:3881   */\n      shr\n        /* \"#utility.yul\":3855:3859   */\n      dup3\n        /* \"#utility.yul\":3851:3882   */\n      add\n        /* \"#utility.yul\":3841:3882   */\n      swap2\n      pop\n        /* \"#utility.yul\":3932:4014   */\n    tag_89:\n        /* \"#utility.yul\":3950:3952   */\n      dup2\n        /* \"#utility.yul\":3943:3948   */\n      dup2\n        /* \"#utility.yul\":3940:3953   */\n      lt\n        /* \"#utility.yul\":3932:4014   */\n      iszero\n      tag_91\n      jumpi\n        /* \"#utility.yul\":3995:4012   */\n      dup3\n      dup2\n      sstore\n        /* \"#utility.yul\":3976:3977   */\n      0x01\n        /* \"#utility.yul\":3965:3978   */\n      add\n        /* \"#utility.yul\":3932:4014   */\n      jump(tag_89)\n    tag_91:\n        /* \"#utility.yul\":3936:3939   */\n      pop\n      pop\n      pop\n        /* \"#utility.yul\":3576:4024   */\n    tag_87:\n        /* \"#utility.yul\":3485:4030   */\n      pop\n      pop\n      pop\n      jump\t// out\n        /* \"#utility.yul\":4266:5737   */\n    tag_21:\n        /* \"#utility.yul\":4392:4395   */\n      dup2\n        /* \"#utility.yul\":4386:4396   */\n      mload\n        /* \"#utility.yul\":4419:4437   */\n      0xffffffffffffffff\n        /* \"#utility.yul\":4411:4417   */\n      dup2\n        /* \"#utility.yul\":4408:4438   */\n      gt\n        /* \"#utility.yul\":4405:4461   */\n      iszero\n      tag_95\n      jumpi\n        /* \"#utility.yul\":4441:4459   */\n      tag_95\n      tag_53\n      jump\t// in\n    tag_95:\n        /* \"#utility.yul\":4470:4567   */\n      tag_96\n        /* \"#utility.yul\":4560:4566   */\n      dup2\n        /* \"#utility.yul\":4520:4558   */\n      tag_97\n        /* \"#utility.yul\":4552:4556   */\n      dup5\n        /* \"#utility.yul\":4546:4557   */\n      sload\n        /* \"#utility.yul\":4520:4558   */\n      tag_27\n      jump\t// in\n    tag_97:\n        /* \"#utility.yul\":4514:4518   */\n      dup5\n        /* \"#utility.yul\":4470:4567   */\n      tag_55\n      jump\t// in\n    tag_96:\n        /* \"#utility.yul\":4622:4626   */\n      0x20\n      dup1\n        /* \"#utility.yul\":4686:4688   */\n      0x1f\n        /* \"#utility.yul\":4675:4689   */\n      dup4\n      gt\n        /* \"#utility.yul\":4703:4704   */\n      0x01\n        /* \"#utility.yul\":4698:5480   */\n      dup2\n      eq\n      tag_99\n      jumpi\n        /* \"#utility.yul\":5524:5525   */\n      0x00\n        /* \"#utility.yul\":5541:5547   */\n      dup5\n        /* \"#utility.yul\":5538:5627   */\n      iszero\n      tag_100\n      jumpi\n      pop\n        /* \"#utility.yul\":5593:5612   */\n      dup6\n      dup4\n      add\n        /* \"#utility.yul\":5587:5613   */\n      mload\n        /* \"#utility.yul\":5538:5627   */\n    tag_100:\n      not(0x00)\n        /* \"#utility.yul\":4163:4164   */\n      0x03\n        /* \"#utility.yul\":4159:4170   */\n      dup7\n      swap1\n      shl\n        /* \"#utility.yul\":4155:4239   */\n      shr\n        /* \"#utility.yul\":4151:4240   */\n      not\n        /* \"#utility.yul\":4141:4241   */\n      and\n        /* \"#utility.yul\":4247:4248   */\n      0x01\n        /* \"#utility.yul\":4243:4254   */\n      dup6\n      swap1\n      shl\n        /* \"#utility.yul\":4138:4255   */\n      or\n        /* \"#utility.yul\":5640:5721   */\n      dup6\n      sstore\n        /* \"#utility.yul\":4668:5731   */\n      jump(tag_91)\n        /* \"#utility.yul\":4698:5480   */\n    tag_99:\n        /* \"#utility.yul\":3432:3433   */\n      0x00\n        /* \"#utility.yul\":3425:3439   */\n      dup6\n      dup2\n      mstore\n        /* \"#utility.yul\":3469:3473   */\n      0x20\n        /* \"#utility.yul\":3456:3474   */\n      dup2\n      keccak256\n      not(0x1f)\n        /* \"#utility.yul\":4734:4813   */\n      dup7\n      and\n      swap2\n        /* \"#utility.yul\":4911:5147   */\n    tag_103:\n        /* \"#utility.yul\":4925:4932   */\n      dup3\n        /* \"#utility.yul\":4922:4923   */\n      dup2\n        /* \"#utility.yul\":4919:4933   */\n      lt\n        /* \"#utility.yul\":4911:5147   */\n      iszero\n      tag_105\n      jumpi\n        /* \"#utility.yul\":5014:5033   */\n      dup9\n      dup7\n      add\n        /* \"#utility.yul\":5008:5034   */\n      mload\n        /* \"#utility.yul\":4993:5035   */\n      dup3\n      sstore\n        /* \"#utility.yul\":5106:5133   */\n      swap5\n      dup5\n      add\n      swap5\n        /* \"#utility.yul\":5074:5075   */\n      0x01\n        /* \"#utility.yul\":5062:5076   */\n      swap1\n      swap2\n      add\n      swap1\n        /* \"#utility.yul\":4941:4960   */\n      dup5\n      add\n        /* \"#utility.yul\":4911:5147   */\n      jump(tag_103)\n    tag_105:\n        /* \"#utility.yul\":4915:4918   */\n      pop\n        /* \"#utility.yul\":5175:5181   */\n      dup6\n        /* \"#utility.yul\":5166:5173   */\n      dup3\n        /* \"#utility.yul\":5163:5182   */\n      lt\n        /* \"#utility.yul\":5160:5421   */\n      iszero\n      tag_106\n      jumpi\n        /* \"#utility.yul\":5236:5255   */\n      dup8\n      dup6\n      add\n        /* \"#utility.yul\":5230:5256   */\n      mload\n      not(0x00)\n        /* \"#utility.yul\":5319:5320   */\n      0x03\n        /* \"#utility.yul\":5315:5329   */\n      dup9\n      swap1\n      shl\n        /* \"#utility.yul\":5331:5334   */\n      0xf8\n        /* \"#utility.yul\":5311:5335   */\n      and\n        /* \"#utility.yul\":5307:5404   */\n      shr\n        /* \"#utility.yul\":5303:5405   */\n      not\n        /* \"#utility.yul\":5288:5406   */\n      and\n        /* \"#utility.yul\":5273:5407   */\n      dup2\n      sstore\n        /* \"#utility.yul\":5160:5421   */\n    tag_106:\n      pop\n      pop\n      pop\n      pop\n      pop\n        /* \"#utility.yul\":5467:5468   */\n      0x01\n        /* \"#utility.yul\":5451:5465   */\n      swap1\n      dup2\n      shl\n        /* \"#utility.yul\":5447:5469   */\n      add\n        /* \"#utility.yul\":5434:5470   */\n      swap1\n      sstore\n      pop\n        /* \"#utility.yul\":4266:5737   */\n      jump\t// out\n        /* \"#utility.yul\":5742:6021   */\n    tag_25:\n        /* \"#utility.yul\":5807:5816   */\n      dup1\n      dup3\n      add\n        /* \"#utility.yul\":5828:5838   */\n      dup1\n      dup3\n      gt\n        /* \"#utility.yul\":5825:6015   */\n      iszero\n      tag_108\n      jumpi\n      shl(0xe0, 0x4e487b71)\n        /* \"#utility.yul\":5868:5869   */\n      0x00\n        /* \"#utility.yul\":5861:5949   */\n      mstore\n        /* \"#utility.yul\":5972:5976   */\n      0x11\n        /* \"#utility.yul\":5969:5970   */\n      0x04\n        /* \"#utility.yul\":5962:5977   */\n      mstore\n        /* \"#utility.yul\":6000:6004   */\n      0x24\n        /* \"#utility.yul\":5997:5998   */\n      0x00\n        /* \"#utility.yul\":5990:6005   */\n      revert\n        /* \"#utility.yul\":5825:6015   */\n    tag_108:\n        /* \"#utility.yul\":5742:6021   */\n      swap3\n      swap2\n      pop\n      pop\n      jump\t// out\n\n    auxdata: 0xa264697066735822122054fe7d423ad41fb28c89d28d0fc75e36217ee47e3f788b7ff808b7aeb3f5bc2464736f6c63430008140033\n}\n",
				"bytecode": {
					"linkReferences": {},
					"object": "6080604052600060019081556002805460ff1916909117905534801561002457600080fd5b50610855806100346000396000f3fe608060405234801561001057600080fd5b50600436106100415760003560e01c80632ec2c246146100465780638d59cc021461005b578063f0eb5e541461006e575b600080fd5b610059610054366004610517565b610097565b005b610059610069366004610582565b61013e565b61008161007c366004610517565b610366565b60405161008e9190610649565b60405180910390f35b6040805160208082018352600080835273ffffffffffffffffffffffffffffffffffffffff851681529081905291909120906100d39082610738565b506040805160208082018352600080835273ffffffffffffffffffffffffffffffffffffffff851681529081905291909120600101906101139082610738565b5073ffffffffffffffffffffffffffffffffffffffff16600090815260208190526040812060020155565b6001805461014b916107f8565b60015573ffffffffffffffffffffffffffffffffffffffff85166000908152602081905260409020805461017e906106af565b159050610212576040517f08c379a000000000000000000000000000000000000000000000000000000000815260206004820152603960248201527f596f7520616c7265616479206861766520616e206964656e746974792061737360448201527f6f6369617465642077697468207468617420616464726573730000000000000060648201526084015b60405180910390fd5b821580159061022057508015155b610286576040517f08c379a000000000000000000000000000000000000000000000000000000000815260206004820152601e60248201527f4e616d65206f72207375726e616d652063616e277420626520656d70747900006044820152606401610209565b604051806060016040528085858080601f016020809104026020016040519081016040528093929190818152602001838380828437600092019190915250505090825250604080516020601f860181900481028201810190925284815291810191908590859081908401838280828437600092018290525093855250506001546020938401525073ffffffffffffffffffffffffffffffffffffffff8816815290819052604090208151819061033c9082610738565b50602082015160018201906103519082610738565b50604082015181600201559050505050505050565b61038a60405180606001604052806060815260200160608152602001600081525090565b73ffffffffffffffffffffffffffffffffffffffff8216600090815260208190526040908190208151606081019092528054829082906103c9906106af565b80601f01602080910402602001604051908101604052809291908181526020018280546103f5906106af565b80156104425780601f1061041757610100808354040283529160200191610442565b820191906000526020600020905b81548152906001019060200180831161042557829003601f168201915b5050505050815260200160018201805461045b906106af565b80601f0160208091040260200160405190810160405280929190818152602001828054610487906106af565b80156104d45780601f106104a9576101008083540402835291602001916104d4565b820191906000526020600020905b8154815290600101906020018083116104b757829003601f168201915b505050505081526020016002820154815250509050919050565b803573ffffffffffffffffffffffffffffffffffffffff8116811461051257600080fd5b919050565b60006020828403121561052957600080fd5b610532826104ee565b9392505050565b60008083601f84011261054b57600080fd5b50813567ffffffffffffffff81111561056357600080fd5b60208301915083602082850101111561057b57600080fd5b9250929050565b60008060008060006060868803121561059a57600080fd5b6105a3866104ee565b9450602086013567ffffffffffffffff808211156105c057600080fd5b6105cc89838a01610539565b909650945060408801359150808211156105e557600080fd5b506105f288828901610539565b969995985093965092949392505050565b6000815180845260005b818110156106295760208185018101518683018201520161060d565b506000602082860101526020601f19601f83011685010191505092915050565b6020815260008251606060208401526106656080840182610603565b90506020840151601f198483030160408501526106828282610603565b915050604084015160608401528091505092915050565b634e487b7160e01b600052604160045260246000fd5b600181811c908216806106c357607f821691505b6020821081036106e357634e487b7160e01b600052602260045260246000fd5b50919050565b601f82111561073357600081815260208120601f850160051c810160208610156107105750805b601f850160051c820191505b8181101561072f5782815560010161071c565b5050505b505050565b815167ffffffffffffffff81111561075257610752610699565b6107668161076084546106af565b846106e9565b602080601f83116001811461079b57600084156107835750858301515b600019600386901b1c1916600185901b17855561072f565b600085815260208120601f198616915b828110156107ca578886015182559484019460019091019084016107ab565b50858210156107e85787850151600019600388901b60f8161c191681555b5050505050600190811b01905550565b8082018082111561081957634e487b7160e01b600052601160045260246000fd5b9291505056fea264697066735822122054fe7d423ad41fb28c89d28d0fc75e36217ee47e3f788b7ff808b7aeb3f5bc2464736f6c63430008140033",
					"opcodes": "PUSH1 0x80 PUSH1 0x40 MSTORE PUSH1 0x0 PUSH1 0x1 SWAP1 DUP2 SSTORE PUSH1 0x2 DUP1 SLOAD PUSH1 0xFF NOT AND SWAP1 SWAP2 OR SWAP1 SSTORE CALLVALUE DUP1 ISZERO PUSH2 0x24 JUMPI PUSH1 0x0 DUP1 REVERT JUMPDEST POP PUSH2 0x855 DUP1 PUSH2 0x34 PUSH1 0x0 CODECOPY PUSH1 0x0 RETURN INVALID PUSH1 0x80 PUSH1 0x40 MSTORE CALLVALUE DUP1 ISZERO PUSH2 0x10 JUMPI PUSH1 0x0 DUP1 REVERT JUMPDEST POP PUSH1 0x4 CALLDATASIZE LT PUSH2 0x41 JUMPI PUSH1 0x0 CALLDATALOAD PUSH1 0xE0 SHR DUP1 PUSH4 0x2EC2C246 EQ PUSH2 0x46 JUMPI DUP1 PUSH4 0x8D59CC02 EQ PUSH2 0x5B JUMPI DUP1 PUSH4 0xF0EB5E54 EQ PUSH2 0x6E JUMPI JUMPDEST PUSH1 0x0 DUP1 REVERT JUMPDEST PUSH2 0x59 PUSH2 0x54 CALLDATASIZE PUSH1 0x4 PUSH2 0x517 JUMP JUMPDEST PUSH2 0x97 JUMP JUMPDEST STOP JUMPDEST PUSH2 0x59 PUSH2 0x69 CALLDATASIZE PUSH1 0x4 PUSH2 0x582 JUMP JUMPDEST PUSH2 0x13E JUMP JUMPDEST PUSH2 0x81 PUSH2 0x7C CALLDATASIZE PUSH1 0x4 PUSH2 0x517 JUMP JUMPDEST PUSH2 0x366 JUMP JUMPDEST PUSH1 0x40 MLOAD PUSH2 0x8E SWAP2 SWAP1 PUSH2 0x649 JUMP JUMPDEST PUSH1 0x40 MLOAD DUP1 SWAP2 SUB SWAP1 RETURN JUMPDEST PUSH1 0x40 DUP1 MLOAD PUSH1 0x20 DUP1 DUP3 ADD DUP4 MSTORE PUSH1 0x0 DUP1 DUP4 MSTORE PUSH20 0xFFFFFFFFFFFFFFFFFFFFFFFFFFFFFFFFFFFFFFFF DUP6 AND DUP2 MSTORE SWAP1 DUP2 SWAP1 MSTORE SWAP2 SWAP1 SWAP2 KECCAK256 SWAP1 PUSH2 0xD3 SWAP1 DUP3 PUSH2 0x738 JUMP JUMPDEST POP PUSH1 0x40 DUP1 MLOAD PUSH1 0x20 DUP1 DUP3 ADD DUP4 MSTORE PUSH1 0x0 DUP1 DUP4 MSTORE PUSH20 0xFFFFFFFFFFFFFFFFFFFFFFFFFFFFFFFFFFFFFFFF DUP6 AND DUP2 MSTORE SWAP1 DUP2 SWAP1 MSTORE SWAP2 SWAP1 SWAP2 KECCAK256 PUSH1 0x1 ADD SWAP1 PUSH2 0x113 SWAP1 DUP3 PUSH2 0x738 JUMP JUMPDEST POP PUSH20 0xFFFFFFFFFFFFFFFFFFFFFFFFFFFFFFFFFFFFFFFF AND PUSH1 0x0 SWAP1 DUP2 MSTORE PUSH1 0x20 DUP2 SWAP1 MSTORE PUSH1 0x40 DUP2 KECCAK256 PUSH1 0x2 ADD SSTORE JUMP JUMPDEST PUSH1 0x1 DUP1 SLOAD PUSH2 0x14B SWAP2 PUSH2 0x7F8 JUMP JUMPDEST PUSH1 0x1 SSTORE PUSH20 0xFFFFFFFFFFFFFFFFFFFFFFFFFFFFFFFFFFFFFFFF DUP6 AND PUSH1 0x0 SWAP1 DUP2 MSTORE PUSH1 0x20 DUP2 SWAP1 MSTORE PUSH1 0x40 SWAP1 KECCAK256 DUP1 SLOAD PUSH2 0x17E SWAP1 PUSH2 0x6AF JUMP JUMPDEST ISZERO SWAP1 POP PUSH2 0x212 JUMPI PUSH1 0x40 MLOAD PUSH32 0x8C379A000000000000000000000000000000000000000000000000000000000 DUP2 MSTORE PUSH1 0x20 PUSH1 0x4 DUP3 ADD MSTORE PUSH1 0x39 PUSH1 0x24 DUP3 ADD MSTORE PUSH32 0x596F7520616C7265616479206861766520616E206964656E7469747920617373 PUSH1 0x44 DUP3 ADD MSTORE PUSH32 0x6F63696174656420776974682074686174206164647265737300000000000000 PUSH1 0x64 DUP3 ADD MSTORE PUSH1 0x84 ADD JUMPDEST PUSH1 0x40 MLOAD DUP1 SWAP2 SUB SWAP1 REVERT JUMPDEST DUP3 ISZERO DUP1 ISZERO SWAP1 PUSH2 0x220 JUMPI POP DUP1 ISZERO ISZERO JUMPDEST PUSH2 0x286 JUMPI PUSH1 0x40 MLOAD PUSH32 0x8C379A000000000000000000000000000000000000000000000000000000000 DUP2 MSTORE PUSH1 0x20 PUSH1 0x4 DUP3 ADD MSTORE PUSH1 0x1E PUSH1 0x24 DUP3 ADD MSTORE PUSH32 0x4E616D65206F72207375726E616D652063616E277420626520656D7074790000 PUSH1 0x44 DUP3 ADD MSTORE PUSH1 0x64 ADD PUSH2 0x209 JUMP JUMPDEST PUSH1 0x40 MLOAD DUP1 PUSH1 0x60 ADD PUSH1 0x40 MSTORE DUP1 DUP6 DUP6 DUP1 DUP1 PUSH1 0x1F ADD PUSH1 0x20 DUP1 SWAP2 DIV MUL PUSH1 0x20 ADD PUSH1 0x40 MLOAD SWAP1 DUP2 ADD PUSH1 0x40 MSTORE DUP1 SWAP4 SWAP3 SWAP2 SWAP1 DUP2 DUP2 MSTORE PUSH1 0x20 ADD DUP4 DUP4 DUP1 DUP3 DUP5 CALLDATACOPY PUSH1 0x0 SWAP3 ADD SWAP2 SWAP1 SWAP2 MSTORE POP POP POP SWAP1 DUP3 MSTORE POP PUSH1 0x40 DUP1 MLOAD PUSH1 0x20 PUSH1 0x1F DUP7 ADD DUP2 SWAP1 DIV DUP2 MUL DUP3 ADD DUP2 ADD SWAP1 SWAP3 MSTORE DUP5 DUP2 MSTORE SWAP2 DUP2 ADD SWAP2 SWAP1 DUP6 SWAP1 DUP6 SWAP1 DUP2 SWAP1 DUP5 ADD DUP4 DUP3 DUP1 DUP3 DUP5 CALLDATACOPY PUSH1 0x0 SWAP3 ADD DUP3 SWAP1 MSTORE POP SWAP4 DUP6 MSTORE POP POP PUSH1 0x1 SLOAD PUSH1 0x20 SWAP4 DUP5 ADD MSTORE POP PUSH20 0xFFFFFFFFFFFFFFFFFFFFFFFFFFFFFFFFFFFFFFFF DUP9 AND DUP2 MSTORE SWAP1 DUP2 SWAP1 MSTORE PUSH1 0x40 SWAP1 KECCAK256 DUP2 MLOAD DUP2 SWAP1 PUSH2 0x33C SWAP1 DUP3 PUSH2 0x738 JUMP JUMPDEST POP PUSH1 0x20 DUP3 ADD MLOAD PUSH1 0x1 DUP3 ADD SWAP1 PUSH2 0x351 SWAP1 DUP3 PUSH2 0x738 JUMP JUMPDEST POP PUSH1 0x40 DUP3 ADD MLOAD DUP2 PUSH1 0x2 ADD SSTORE SWAP1 POP POP POP POP POP POP POP JUMP JUMPDEST PUSH2 0x38A PUSH1 0x40 MLOAD DUP1 PUSH1 0x60 ADD PUSH1 0x40 MSTORE DUP1 PUSH1 0x60 DUP2 MSTORE PUSH1 0x20 ADD PUSH1 0x60 DUP2 MSTORE PUSH1 0x20 ADD PUSH1 0x0 DUP2 MSTORE POP SWAP1 JUMP JUMPDEST PUSH20 0xFFFFFFFFFFFFFFFFFFFFFFFFFFFFFFFFFFFFFFFF DUP3 AND PUSH1 0x0 SWAP1 DUP2 MSTORE PUSH1 0x20 DUP2 SWAP1 MSTORE PUSH1 0x40 SWAP1 DUP2 SWAP1 KECCAK256 DUP2 MLOAD PUSH1 0x60 DUP2 ADD SWAP1 SWAP3 MSTORE DUP1 SLOAD DUP3 SWAP1 DUP3 SWAP1 PUSH2 0x3C9 SWAP1 PUSH2 0x6AF JUMP JUMPDEST DUP1 PUSH1 0x1F ADD PUSH1 0x20 DUP1 SWAP2 DIV MUL PUSH1 0x20 ADD PUSH1 0x40 MLOAD SWAP1 DUP2 ADD PUSH1 0x40 MSTORE DUP1 SWAP3 SWAP2 SWAP1 DUP2 DUP2 MSTORE PUSH1 0x20 ADD DUP3 DUP1 SLOAD PUSH2 0x3F5 SWAP1 PUSH2 0x6AF JUMP JUMPDEST DUP1 ISZERO PUSH2 0x442 JUMPI DUP1 PUSH1 0x1F LT PUSH2 0x417 JUMPI PUSH2 0x100 DUP1 DUP4 SLOAD DIV MUL DUP4 MSTORE SWAP2 PUSH1 0x20 ADD SWAP2 PUSH2 0x442 JUMP JUMPDEST DUP3 ADD SWAP2 SWAP1 PUSH1 0x0 MSTORE PUSH1 0x20 PUSH1 0x0 KECCAK256 SWAP1 JUMPDEST DUP2 SLOAD DUP2 MSTORE SWAP1 PUSH1 0x1 ADD SWAP1 PUSH1 0x20 ADD DUP1 DUP4 GT PUSH2 0x425 JUMPI DUP3 SWAP1 SUB PUSH1 0x1F AND DUP3 ADD SWAP2 JUMPDEST POP POP POP POP POP DUP2 MSTORE PUSH1 0x20 ADD PUSH1 0x1 DUP3 ADD DUP1 SLOAD PUSH2 0x45B SWAP1 PUSH2 0x6AF JUMP JUMPDEST DUP1 PUSH1 0x1F ADD PUSH1 0x20 DUP1 SWAP2 DIV MUL PUSH1 0x20 ADD PUSH1 0x40 MLOAD SWAP1 DUP2 ADD PUSH1 0x40 MSTORE DUP1 SWAP3 SWAP2 SWAP1 DUP2 DUP2 MSTORE PUSH1 0x20 ADD DUP3 DUP1 SLOAD PUSH2 0x487 SWAP1 PUSH2 0x6AF JUMP JUMPDEST DUP1 ISZERO PUSH2 0x4D4 JUMPI DUP1 PUSH1 0x1F LT PUSH2 0x4A9 JUMPI PUSH2 0x100 DUP1 DUP4 SLOAD DIV MUL DUP4 MSTORE SWAP2 PUSH1 0x20 ADD SWAP2 PUSH2 0x4D4 JUMP JUMPDEST DUP3 ADD SWAP2 SWAP1 PUSH1 0x0 MSTORE PUSH1 0x20 PUSH1 0x0 KECCAK256 SWAP1 JUMPDEST DUP2 SLOAD DUP2 MSTORE SWAP1 PUSH1 0x1 ADD SWAP1 PUSH1 0x20 ADD DUP1 DUP4 GT PUSH2 0x4B7 JUMPI DUP3 SWAP1 SUB PUSH1 0x1F AND DUP3 ADD SWAP2 JUMPDEST POP POP POP POP POP DUP2 MSTORE PUSH1 0x20 ADD PUSH1 0x2 DUP3 ADD SLOAD DUP2 MSTORE POP POP SWAP1 POP SWAP2 SWAP1 POP JUMP JUMPDEST DUP1 CALLDATALOAD PUSH20 0xFFFFFFFFFFFFFFFFFFFFFFFFFFFFFFFFFFFFFFFF DUP2 AND DUP2 EQ PUSH2 0x512 JUMPI PUSH1 0x0 DUP1 REVERT JUMPDEST SWAP2 SWAP1 POP JUMP JUMPDEST PUSH1 0x0 PUSH1 0x20 DUP3 DUP5 SUB SLT ISZERO PUSH2 0x529 JUMPI PUSH1 0x0 DUP1 REVERT JUMPDEST PUSH2 0x532 DUP3 PUSH2 0x4EE JUMP JUMPDEST SWAP4 SWAP3 POP POP POP JUMP JUMPDEST PUSH1 0x0 DUP1 DUP4 PUSH1 0x1F DUP5 ADD SLT PUSH2 0x54B JUMPI PUSH1 0x0 DUP1 REVERT JUMPDEST POP DUP2 CALLDATALOAD PUSH8 0xFFFFFFFFFFFFFFFF DUP2 GT ISZERO PUSH2 0x563 JUMPI PUSH1 0x0 DUP1 REVERT JUMPDEST PUSH1 0x20 DUP4 ADD SWAP2 POP DUP4 PUSH1 0x20 DUP3 DUP6 ADD ADD GT ISZERO PUSH2 0x57B JUMPI PUSH1 0x0 DUP1 REVERT JUMPDEST SWAP3 POP SWAP3 SWAP1 POP JUMP JUMPDEST PUSH1 0x0 DUP1 PUSH1 0x0 DUP1 PUSH1 0x0 PUSH1 0x60 DUP7 DUP9 SUB SLT ISZERO PUSH2 0x59A JUMPI PUSH1 0x0 DUP1 REVERT JUMPDEST PUSH2 0x5A3 DUP7 PUSH2 0x4EE JUMP JUMPDEST SWAP5 POP PUSH1 0x20 DUP7 ADD CALLDATALOAD PUSH8 0xFFFFFFFFFFFFFFFF DUP1 DUP3 GT ISZERO PUSH2 0x5C0 JUMPI PUSH1 0x0 DUP1 REVERT JUMPDEST PUSH2 0x5CC DUP10 DUP4 DUP11 ADD PUSH2 0x539 JUMP JUMPDEST SWAP1 SWAP7 POP SWAP5 POP PUSH1 0x40 DUP9 ADD CALLDATALOAD SWAP2 POP DUP1 DUP3 GT ISZERO PUSH2 0x5E5 JUMPI PUSH1 0x0 DUP1 REVERT JUMPDEST POP PUSH2 0x5F2 DUP9 DUP3 DUP10 ADD PUSH2 0x539 JUMP JUMPDEST SWAP7 SWAP10 SWAP6 SWAP9 POP SWAP4 SWAP7 POP SWAP3 SWAP5 SWAP4 SWAP3 POP POP POP JUMP JUMPDEST PUSH1 0x0 DUP2 MLOAD DUP1 DUP5 MSTORE PUSH1 0x0 JUMPDEST DUP2 DUP2 LT ISZERO PUSH2 0x629 JUMPI PUSH1 0x20 DUP2 DUP6 ADD DUP2 ADD MLOAD DUP7 DUP4 ADD DUP3 ADD MSTORE ADD PUSH2 0x60D JUMP JUMPDEST POP PUSH1 0x0 PUSH1 0x20 DUP3 DUP7 ADD ADD MSTORE PUSH1 0x20 PUSH1 0x1F NOT PUSH1 0x1F DUP4 ADD AND DUP6 ADD ADD SWAP2 POP POP SWAP3 SWAP2 POP POP JUMP JUMPDEST PUSH1 0x20 DUP2 MSTORE PUSH1 0x0 DUP3 MLOAD PUSH1 0x60 PUSH1 0x20 DUP5 ADD MSTORE PUSH2 0x665 PUSH1 0x80 DUP5 ADD DUP3 PUSH2 0x603 JUMP JUMPDEST SWAP1 POP PUSH1 0x20 DUP5 ADD MLOAD PUSH1 0x1F NOT DUP5 DUP4 SUB ADD PUSH1 0x40 DUP6 ADD MSTORE PUSH2 0x682 DUP3 DUP3 PUSH2 0x603 JUMP JUMPDEST SWAP2 POP POP PUSH1 0x40 DUP5 ADD MLOAD PUSH1 0x60 DUP5 ADD MSTORE DUP1 SWAP2 POP POP SWAP3 SWAP2 POP POP JUMP JUMPDEST PUSH4 0x4E487B71 PUSH1 0xE0 SHL PUSH1 0x0 MSTORE PUSH1 0x41 PUSH1 0x4 MSTORE PUSH1 0x24 PUSH1 0x0 REVERT JUMPDEST PUSH1 0x1 DUP2 DUP2 SHR SWAP1 DUP3 AND DUP1 PUSH2 0x6C3 JUMPI PUSH1 0x7F DUP3 AND SWAP2 POP JUMPDEST PUSH1 0x20 DUP3 LT DUP2 SUB PUSH2 0x6E3 JUMPI PUSH4 0x4E487B71 PUSH1 0xE0 SHL PUSH1 0x0 MSTORE PUSH1 0x22 PUSH1 0x4 MSTORE PUSH1 0x24 PUSH1 0x0 REVERT JUMPDEST POP SWAP2 SWAP1 POP JUMP JUMPDEST PUSH1 0x1F DUP3 GT ISZERO PUSH2 0x733 JUMPI PUSH1 0x0 DUP2 DUP2 MSTORE PUSH1 0x20 DUP2 KECCAK256 PUSH1 0x1F DUP6 ADD PUSH1 0x5 SHR DUP2 ADD PUSH1 0x20 DUP7 LT ISZERO PUSH2 0x710 JUMPI POP DUP1 JUMPDEST PUSH1 0x1F DUP6 ADD PUSH1 0x5 SHR DUP3 ADD SWAP2 POP JUMPDEST DUP2 DUP2 LT ISZERO PUSH2 0x72F JUMPI DUP3 DUP2 SSTORE PUSH1 0x1 ADD PUSH2 0x71C JUMP JUMPDEST POP POP POP JUMPDEST POP POP POP JUMP JUMPDEST DUP2 MLOAD PUSH8 0xFFFFFFFFFFFFFFFF DUP2 GT ISZERO PUSH2 0x752 JUMPI PUSH2 0x752 PUSH2 0x699 JUMP JUMPDEST PUSH2 0x766 DUP2 PUSH2 0x760 DUP5 SLOAD PUSH2 0x6AF JUMP JUMPDEST DUP5 PUSH2 0x6E9 JUMP JUMPDEST PUSH1 0x20 DUP1 PUSH1 0x1F DUP4 GT PUSH1 0x1 DUP2 EQ PUSH2 0x79B JUMPI PUSH1 0x0 DUP5 ISZERO PUSH2 0x783 JUMPI POP DUP6 DUP4 ADD MLOAD JUMPDEST PUSH1 0x0 NOT PUSH1 0x3 DUP7 SWAP1 SHL SHR NOT AND PUSH1 0x1 DUP6 SWAP1 SHL OR DUP6 SSTORE PUSH2 0x72F JUMP JUMPDEST PUSH1 0x0 DUP6 DUP2 MSTORE PUSH1 0x20 DUP2 KECCAK256 PUSH1 0x1F NOT DUP7 AND SWAP2 JUMPDEST DUP3 DUP2 LT ISZERO PUSH2 0x7CA JUMPI DUP9 DUP7 ADD MLOAD DUP3 SSTORE SWAP5 DUP5 ADD SWAP5 PUSH1 0x1 SWAP1 SWAP2 ADD SWAP1 DUP5 ADD PUSH2 0x7AB JUMP JUMPDEST POP DUP6 DUP3 LT ISZERO PUSH2 0x7E8 JUMPI DUP8 DUP6 ADD MLOAD PUSH1 0x0 NOT PUSH1 0x3 DUP9 SWAP1 SHL PUSH1 0xF8 AND SHR NOT AND DUP2 SSTORE JUMPDEST POP POP POP POP POP PUSH1 0x1 SWAP1 DUP2 SHL ADD SWAP1 SSTORE POP JUMP JUMPDEST DUP1 DUP3 ADD DUP1 DUP3 GT ISZERO PUSH2 0x819 JUMPI PUSH4 0x4E487B71 PUSH1 0xE0 SHL PUSH1 0x0 MSTORE PUSH1 0x11 PUSH1 0x4 MSTORE PUSH1 0x24 PUSH1 0x0 REVERT JUMPDEST SWAP3 SWAP2 POP POP JUMP INVALID LOG2 PUSH5 0x6970667358 0x22 SLT KECCAK256 SLOAD INVALID PUSH30 0x423AD41FB28C89D28D0FC75E36217EE47E3F788B7FF808B7AEB3F5BC2464 PUSH20 0x6F6C634300081400330000000000000000000000 "
				},
				"gasEstimates": {
					"creation": {
						"codeDepositCost": "426600",
						"executionCost": "29700",
						"totalCost": "456300"
					},
					"external": {
						"identity(address)": "infinite",
						"register(address,string,string)": "infinite",
						"unregister(address)": "infinite"
					}
				},
				"methodIdentifiers": {
					"identity(address)": "f0eb5e54",
					"register(address,string,string)": "8d59cc02",
					"unregister(address)": "2ec2c246"
				}
			},
			"storageLayout": {
				"storage": [
					{
						"astId": 17,
						"contract": "contracts/SocialAuthentication2.sol:SocialAuthentication",
						"label": "identities",
						"offset": 0,
						"slot": "0",
						"type": "t_mapping(t_address,t_struct(Identity)12_storage)"
					},
					{
						"astId": 20,
						"contract": "contracts/SocialAuthentication2.sol:SocialAuthentication",
						"label": "counter",
						"offset": 0,
						"slot": "1",
						"type": "t_uint256"
					},
					{
						"astId": 23,
						"contract": "contracts/SocialAuthentication2.sol:SocialAuthentication",
						"label": "lock",
						"offset": 0,
						"slot": "2",
						"type": "t_bool"
					}
				],
				"types": {
					"t_address": {
						"encoding": "inplace",
						"label": "address",
						"numberOfBytes": "20"
					},
					"t_bool": {
						"encoding": "inplace",
						"label": "bool",
						"numberOfBytes": "1"
					},
					"t_mapping(t_address,t_struct(Identity)12_storage)": {
						"encoding": "mapping",
						"key": "t_address",
						"label": "mapping(address => struct SocialAuthentication.Identity)",
						"numberOfBytes": "32",
						"value": "t_struct(Identity)12_storage"
					},
					"t_string_storage": {
						"encoding": "bytes",
						"label": "string",
						"numberOfBytes": "32"
					},
					"t_struct(Identity)12_storage": {
						"encoding": "inplace",
						"label": "struct SocialAuthentication.Identity",
						"members": [
							{
								"astId": 7,
								"contract": "contracts/SocialAuthentication2.sol:SocialAuthentication",
								"label": "name",
								"offset": 0,
								"slot": "0",
								"type": "t_string_storage"
							},
							{
								"astId": 9,
								"contract": "contracts/SocialAuthentication2.sol:SocialAuthentication",
								"label": "surname",
								"offset": 0,
								"slot": "1",
								"type": "t_string_storage"
							},
							{
								"astId": 11,
								"contract": "contracts/SocialAuthentication2.sol:SocialAuthentication",
								"label": "tokenId",
								"offset": 0,
								"slot": "2",
								"type": "t_uint256"
							}
						],
						"numberOfBytes": "96"
					},
					"t_uint256": {
						"encoding": "inplace",
						"label": "uint256",
						"numberOfBytes": "32"
					}
				}
			},
			"userdoc": {
				"kind": "user",
				"methods": {},
				"version": 1
			}
		}
	}
}