{
	"data": {
		"bytecode": {
			"linkReferences": {},
			"object": "608060405260006008556001600960006101000a81548160ff0219169083151502179055503480156200003157600080fd5b506040518060400160405280601481526020017f536f6369616c41757468656e7469636174696f6e0000000000000000000000008152506040518060400160405280600281526020017f53410000000000000000000000000000000000000000000000000000000000008152508160009081620000af91906200044d565b508060019081620000c191906200044d565b5050506000600660006101000a81548160ff021916908315150217905550620000ff620000f36200010560201b60201c565b6200010d60201b60201c565b62000534565b600033905090565b6000600660019054906101000a900473ffffffffffffffffffffffffffffffffffffffff16905081600660016101000a81548173ffffffffffffffffffffffffffffffffffffffff021916908373ffffffffffffffffffffffffffffffffffffffff1602179055508173ffffffffffffffffffffffffffffffffffffffff168173ffffffffffffffffffffffffffffffffffffffff167f8be0079c531659141344cd1fd0a4f28419497f9722a3daafe3b4186f6b6457e060405160405180910390a35050565b600081519050919050565b7f4e487b7100000000000000000000000000000000000000000000000000000000600052604160045260246000fd5b7f4e487b7100000000000000000000000000000000000000000000000000000000600052602260045260246000fd5b600060028204905060018216806200025557607f821691505b6020821081036200026b576200026a6200020d565b5b50919050565b60008190508160005260206000209050919050565b60006020601f8301049050919050565b600082821b905092915050565b600060088302620002d57fffffffffffffffffffffffffffffffffffffffffffffffffffffffffffffffff8262000296565b620002e1868362000296565b95508019841693508086168417925050509392505050565b6000819050919050565b6000819050919050565b60006200032e620003286200032284620002f9565b62000303565b620002f9565b9050919050565b6000819050919050565b6200034a836200030d565b62000362620003598262000335565b848454620002a3565b825550505050565b600090565b620003796200036a565b620003868184846200033f565b505050565b5b81811015620003ae57620003a26000826200036f565b6001810190506200038c565b5050565b601f821115620003fd57620003c78162000271565b620003d28462000286565b81016020851015620003e2578190505b620003fa620003f18562000286565b8301826200038b565b50505b505050565b600082821c905092915050565b6000620004226000198460080262000402565b1980831691505092915050565b60006200043d83836200040f565b9150826002028217905092915050565b6200045882620001d3565b67ffffffffffffffff811115620004745762000473620001de565b5b6200048082546200023c565b6200048d828285620003b2565b600060209050601f831160018114620004c55760008415620004b0578287015190505b620004bc85826200042f565b8655506200052c565b601f198416620004d58662000271565b60005b82811015620004ff57848901518255600182019150602085019450602081019050620004d8565b868310156200051f57848901516200051b601f8916826200040f565b8355505b6001600288020188555050505b505050505050565b61397d80620005446000396000f3fe608060405234801561001057600080fd5b50600436106101585760003560e01c8063715018a6116100c3578063a22cb4651161007c578063a22cb46514610377578063b88d4fde14610393578063c87b56dd146103af578063e985e9c5146103df578063f0eb5e541461040f578063f2fde38b1461043f57610158565b8063715018a6146102ef5780638456cb59146102f95780638d59cc02146103035780638da5cb5b1461031f57806395d89b411461033d578063a14481941461035b57610158565b80633f4ba83a116101155780633f4ba83a1461022f57806342842e0e1461023957806342966c68146102555780635c975abb146102715780636352211e1461028f57806370a08231146102bf57610158565b806301ffc9a71461015d57806306fdde031461018d578063081812fc146101ab578063095ea7b3146101db57806323b872dd146101f75780632ec2c24614610213575b600080fd5b61017760048036038101906101729190612491565b61045b565b60405161018491906124d9565b60405180910390f35b61019561053d565b6040516101a29190612584565b60405180910390f35b6101c560048036038101906101c091906125dc565b6105cf565b6040516101d2919061264a565b60405180910390f35b6101f560048036038101906101f09190612691565b610615565b005b610211600480360381019061020c91906126d1565b61072c565b005b61022d60048036038101906102289190612724565b61078c565b005b61023761091e565b005b610253600480360381019061024e91906126d1565b610930565b005b61026f600480360381019061026a91906125dc565b610950565b005b6102796109ac565b60405161028691906124d9565b60405180910390f35b6102a960048036038101906102a491906125dc565b6109c3565b6040516102b6919061264a565b60405180910390f35b6102d960048036038101906102d49190612724565b610a49565b6040516102e69190612760565b60405180910390f35b6102f7610b00565b005b610301610b14565b005b61031d600480360381019061031891906127e0565b610b26565b005b610327610d91565b604051610334919061264a565b60405180910390f35b610345610dbb565b6040516103529190612584565b60405180910390f35b61037560048036038101906103709190612691565b610e4d565b005b610391600480360381019061038c91906128a1565b610e63565b005b6103ad60048036038101906103a89190612a11565b610e79565b005b6103c960048036038101906103c491906125dc565b610edb565b6040516103d69190612584565b60405180910390f35b6103f960048036038101906103f49190612a94565b610f43565b60405161040691906124d9565b60405180910390f35b61042960048036038101906104249190612724565b610fd7565b6040516104369190612b84565b60405180910390f35b61045960048036038101906104549190612724565b61115e565b005b60007f80ac58cd000000000000000000000000000000000000000000000000000000007bffffffffffffffffffffffffffffffffffffffffffffffffffffffff1916827bffffffffffffffffffffffffffffffffffffffffffffffffffffffff1916148061052657507f5b5e139f000000000000000000000000000000000000000000000000000000007bffffffffffffffffffffffffffffffffffffffffffffffffffffffff1916827bffffffffffffffffffffffffffffffffffffffffffffffffffffffff1916145b806105365750610535826111e1565b5b9050919050565b60606000805461054c90612bd5565b80601f016020809104026020016040519081016040528092919081815260200182805461057890612bd5565b80156105c55780601f1061059a576101008083540402835291602001916105c5565b820191906000526020600020905b8154815290600101906020018083116105a857829003601f168201915b5050505050905090565b60006105da8261124b565b6004600083815260200190815260200160002060009054906101000a900473ffffffffffffffffffffffffffffffffffffffff169050919050565b6000610620826109c3565b90508073ffffffffffffffffffffffffffffffffffffffff168373ffffffffffffffffffffffffffffffffffffffff1603610690576040517f08c379a000000000000000000000000000000000000000000000000000000000815260040161068790612c78565b60405180910390fd5b8073ffffffffffffffffffffffffffffffffffffffff166106af611296565b73ffffffffffffffffffffffffffffffffffffffff1614806106de57506106dd816106d8611296565b610f43565b5b61071d576040517f08c379a000000000000000000000000000000000000000000000000000000000815260040161071490612d0a565b60405180910390fd5b610727838361129e565b505050565b61073d610737611296565b82611357565b61077c576040517f08c379a000000000000000000000000000000000000000000000000000000000815260040161077390612d9c565b60405180910390fd5b6107878383836113ec565b505050565b6107946116e5565b6000600960006101000a81548160ff0219169083151502179055506107fa600760008373ffffffffffffffffffffffffffffffffffffffff1673ffffffffffffffffffffffffffffffffffffffff16815260200190815260200160002060020154611763565b6001600960006101000a81548160ff02191690831515021790555060405180602001604052806000815250600760008373ffffffffffffffffffffffffffffffffffffffff1673ffffffffffffffffffffffffffffffffffffffff16815260200190815260200160002060000190816108739190612f68565b5060405180602001604052806000815250600760008373ffffffffffffffffffffffffffffffffffffffff1673ffffffffffffffffffffffffffffffffffffffff16815260200190815260200160002060010190816108d29190612f68565b506000600760008373ffffffffffffffffffffffffffffffffffffffff1673ffffffffffffffffffffffffffffffffffffffff1681526020019081526020016000206002018190555050565b6109266116e5565b61092e6118b1565b565b61094b83838360405180602001604052806000815250610e79565b505050565b61096161095b611296565b82611357565b6109a0576040517f08c379a000000000000000000000000000000000000000000000000000000000815260040161099790612d9c565b60405180910390fd5b6109a981611763565b50565b6000600660009054906101000a900460ff16905090565b6000806109cf83611914565b9050600073ffffffffffffffffffffffffffffffffffffffff168173ffffffffffffffffffffffffffffffffffffffff1603610a40576040517f08c379a0000000000000000000000000000000000000000000000000000000008152600401610a3790613086565b60405180910390fd5b80915050919050565b60008073ffffffffffffffffffffffffffffffffffffffff168273ffffffffffffffffffffffffffffffffffffffff1603610ab9576040517f08c379a0000000000000000000000000000000000000000000000000000000008152600401610ab090613118565b60405180910390fd5b600360008373ffffffffffffffffffffffffffffffffffffffff1673ffffffffffffffffffffffffffffffffffffffff168152602001908152602001600020549050919050565b610b086116e5565b610b126000611951565b565b610b1c6116e5565b610b24611a17565b565b610b2e6116e5565b6001600854610b3d9190613167565b6008819055506000600760008773ffffffffffffffffffffffffffffffffffffffff1673ffffffffffffffffffffffffffffffffffffffff1681526020019081526020016000206000018054610b9290612bd5565b905014610bd4576040517f08c379a0000000000000000000000000000000000000000000000000000000008152600401610bcb9061320d565b60405180910390fd5b60008484905014158015610bec575060008282905014155b610c2b576040517f08c379a0000000000000000000000000000000000000000000000000000000008152600401610c2290613279565b60405180910390fd5b604051806060016040528085858080601f016020809104026020016040519081016040528093929190818152602001838380828437600081840152601f19601f82011690508083019250505050505050815260200183838080601f016020809104026020016040519081016040528093929190818152602001838380828437600081840152601f19601f820116905080830192505050505050508152602001600854815250600760008773ffffffffffffffffffffffffffffffffffffffff1673ffffffffffffffffffffffffffffffffffffffff1681526020019081526020016000206000820151816000019081610d249190612f68565b506020820151816001019081610d3a9190612f68565b50604082015181600201559050506000600960006101000a81548160ff021916908315150217905550610d6f85600854610e4d565b6001600960006101000a81548160ff0219169083151502179055505050505050565b6000600660019054906101000a900473ffffffffffffffffffffffffffffffffffffffff16905090565b606060018054610dca90612bd5565b80601f0160208091040260200160405190810160405280929190818152602001828054610df690612bd5565b8015610e435780601f10610e1857610100808354040283529160200191610e43565b820191906000526020600020905b815481529060010190602001808311610e2657829003601f168201915b5050505050905090565b610e556116e5565b610e5f8282611a7a565b5050565b610e75610e6e611296565b8383611a98565b5050565b610e8a610e84611296565b83611357565b610ec9576040517f08c379a0000000000000000000000000000000000000000000000000000000008152600401610ec090612d9c565b60405180910390fd5b610ed584848484611c04565b50505050565b6060610ee68261124b565b6000610ef0611c60565b90506000815111610f105760405180602001604052806000815250610f3b565b80610f1a84611c77565b604051602001610f2b9291906132d5565b6040516020818303038152906040525b915050919050565b6000600560008473ffffffffffffffffffffffffffffffffffffffff1673ffffffffffffffffffffffffffffffffffffffff16815260200190815260200160002060008373ffffffffffffffffffffffffffffffffffffffff1673ffffffffffffffffffffffffffffffffffffffff16815260200190815260200160002060009054906101000a900460ff16905092915050565b610fdf612404565b600760008373ffffffffffffffffffffffffffffffffffffffff1673ffffffffffffffffffffffffffffffffffffffff16815260200190815260200160002060405180606001604052908160008201805461103990612bd5565b80601f016020809104026020016040519081016040528092919081815260200182805461106590612bd5565b80156110b25780601f10611087576101008083540402835291602001916110b2565b820191906000526020600020905b81548152906001019060200180831161109557829003601f168201915b505050505081526020016001820180546110cb90612bd5565b80601f01602080910402602001604051908101604052809291908181526020018280546110f790612bd5565b80156111445780601f1061111957610100808354040283529160200191611144565b820191906000526020600020905b81548152906001019060200180831161112757829003601f168201915b505050505081526020016002820154815250509050919050565b6111666116e5565b600073ffffffffffffffffffffffffffffffffffffffff168173ffffffffffffffffffffffffffffffffffffffff16036111d5576040517f08c379a00000000000000000000000000000000000000000000000000000000081526004016111cc9061336b565b60405180910390fd5b6111de81611951565b50565b60007f01ffc9a7000000000000000000000000000000000000000000000000000000007bffffffffffffffffffffffffffffffffffffffffffffffffffffffff1916827bffffffffffffffffffffffffffffffffffffffffffffffffffffffff1916149050919050565b61125481611d45565b611293576040517f08c379a000000000000000000000000000000000000000000000000000000000815260040161128a90613086565b60405180910390fd5b50565b600033905090565b816004600083815260200190815260200160002060006101000a81548173ffffffffffffffffffffffffffffffffffffffff021916908373ffffffffffffffffffffffffffffffffffffffff160217905550808273ffffffffffffffffffffffffffffffffffffffff16611311836109c3565b73ffffffffffffffffffffffffffffffffffffffff167f8c5be1e5ebec7d5bd14f71427d1e84f3dd0314c0f7b2291e5b200ac8c7c3b92560405160405180910390a45050565b600080611363836109c3565b90508073ffffffffffffffffffffffffffffffffffffffff168473ffffffffffffffffffffffffffffffffffffffff1614806113a557506113a48185610f43565b5b806113e357508373ffffffffffffffffffffffffffffffffffffffff166113cb846105cf565b73ffffffffffffffffffffffffffffffffffffffff16145b91505092915050565b8273ffffffffffffffffffffffffffffffffffffffff1661140c826109c3565b73ffffffffffffffffffffffffffffffffffffffff1614611462576040517f08c379a0000000000000000000000000000000000000000000000000000000008152600401611459906133fd565b60405180910390fd5b600073ffffffffffffffffffffffffffffffffffffffff168273ffffffffffffffffffffffffffffffffffffffff16036114d1576040517f08c379a00000000000000000000000000000000000000000000000000000000081526004016114c89061348f565b60405180910390fd5b6114de8383836001611d86565b8273ffffffffffffffffffffffffffffffffffffffff166114fe826109c3565b73ffffffffffffffffffffffffffffffffffffffff1614611554576040517f08c379a000000000000000000000000000000000000000000000000000000000815260040161154b906133fd565b60405180910390fd5b6004600082815260200190815260200160002060006101000a81549073ffffffffffffffffffffffffffffffffffffffff02191690556001600360008573ffffffffffffffffffffffffffffffffffffffff1673ffffffffffffffffffffffffffffffffffffffff168152602001908152602001600020600082825403925050819055506001600360008473ffffffffffffffffffffffffffffffffffffffff1673ffffffffffffffffffffffffffffffffffffffff16815260200190815260200160002060008282540192505081905550816002600083815260200190815260200160002060006101000a81548173ffffffffffffffffffffffffffffffffffffffff021916908373ffffffffffffffffffffffffffffffffffffffff160217905550808273ffffffffffffffffffffffffffffffffffffffff168473ffffffffffffffffffffffffffffffffffffffff167fddf252ad1be2c89b69c2b068fc378daa952ba7f163c4a11628f55a4df523b3ef60405160405180910390a46116e08383836001611df0565b505050565b6116ed611296565b73ffffffffffffffffffffffffffffffffffffffff1661170b610d91565b73ffffffffffffffffffffffffffffffffffffffff1614611761576040517f08c379a0000000000000000000000000000000000000000000000000000000008152600401611758906134fb565b60405180910390fd5b565b600061176e826109c3565b905061177e816000846001611d86565b611787826109c3565b90506004600083815260200190815260200160002060006101000a81549073ffffffffffffffffffffffffffffffffffffffff02191690556001600360008373ffffffffffffffffffffffffffffffffffffffff1673ffffffffffffffffffffffffffffffffffffffff168152602001908152602001600020600082825403925050819055506002600083815260200190815260200160002060006101000a81549073ffffffffffffffffffffffffffffffffffffffff021916905581600073ffffffffffffffffffffffffffffffffffffffff168273ffffffffffffffffffffffffffffffffffffffff167fddf252ad1be2c89b69c2b068fc378daa952ba7f163c4a11628f55a4df523b3ef60405160405180910390a46118ad816000846001611df0565b5050565b6118b9611df6565b6000600660006101000a81548160ff0219169083151502179055507f5db9ee0a495bf2e6ff9c91a7834c1ba4fdd244a5e8aa4e537bd38aeae4b073aa6118fd611296565b60405161190a919061264a565b60405180910390a1565b60006002600083815260200190815260200160002060009054906101000a900473ffffffffffffffffffffffffffffffffffffffff169050919050565b6000600660019054906101000a900473ffffffffffffffffffffffffffffffffffffffff16905081600660016101000a81548173ffffffffffffffffffffffffffffffffffffffff021916908373ffffffffffffffffffffffffffffffffffffffff1602179055508173ffffffffffffffffffffffffffffffffffffffff168173ffffffffffffffffffffffffffffffffffffffff167f8be0079c531659141344cd1fd0a4f28419497f9722a3daafe3b4186f6b6457e060405160405180910390a35050565b611a1f611e3f565b6001600660006101000a81548160ff0219169083151502179055507f62e78cea01bee320cd4e420270b5ea74000d11b0c9f74754ebdbfc544b05a258611a63611296565b604051611a70919061264a565b60405180910390a1565b611a94828260405180602001604052806000815250611e89565b5050565b8173ffffffffffffffffffffffffffffffffffffffff168373ffffffffffffffffffffffffffffffffffffffff1603611b06576040517f08c379a0000000000000000000000000000000000000000000000000000000008152600401611afd90613567565b60405180910390fd5b80600560008573ffffffffffffffffffffffffffffffffffffffff1673ffffffffffffffffffffffffffffffffffffffff16815260200190815260200160002060008473ffffffffffffffffffffffffffffffffffffffff1673ffffffffffffffffffffffffffffffffffffffff16815260200190815260200160002060006101000a81548160ff0219169083151502179055508173ffffffffffffffffffffffffffffffffffffffff168373ffffffffffffffffffffffffffffffffffffffff167f17307eab39ab6107e8899845ad3d59bd9653f200f220920489ca2b5937696c3183604051611bf791906124d9565b60405180910390a3505050565b611c0f8484846113ec565b611c1b84848484611ee4565b611c5a576040517f08c379a0000000000000000000000000000000000000000000000000000000008152600401611c51906135f9565b60405180910390fd5b50505050565b606060405180602001604052806000815250905090565b606060006001611c868461206b565b01905060008167ffffffffffffffff811115611ca557611ca46128e6565b5b6040519080825280601f01601f191660200182016040528015611cd75781602001600182028036833780820191505090505b509050600082602001820190505b600115611d3a578080600190039150507f3031323334353637383961626364656600000000000000000000000000000000600a86061a8153600a8581611d2e57611d2d613619565b5b04945060008503611ce5575b819350505050919050565b60008073ffffffffffffffffffffffffffffffffffffffff16611d6783611914565b73ffffffffffffffffffffffffffffffffffffffff1614159050919050565b611d8e611e3f565b600960009054906101000a900460ff1615611dde576040517f08c379a0000000000000000000000000000000000000000000000000000000008152600401611dd590613694565b60405180910390fd5b611dea848484846121be565b50505050565b50505050565b611dfe6109ac565b611e3d576040517f08c379a0000000000000000000000000000000000000000000000000000000008152600401611e3490613700565b60405180910390fd5b565b611e476109ac565b15611e87576040517f08c379a0000000000000000000000000000000000000000000000000000000008152600401611e7e9061376c565b60405180910390fd5b565b611e9383836121c4565b611ea06000848484611ee4565b611edf576040517f08c379a0000000000000000000000000000000000000000000000000000000008152600401611ed6906135f9565b60405180910390fd5b505050565b6000611f058473ffffffffffffffffffffffffffffffffffffffff166123e1565b1561205e578373ffffffffffffffffffffffffffffffffffffffff1663150b7a02611f2e611296565b8786866040518563ffffffff1660e01b8152600401611f5094939291906137e1565b6020604051808303816000875af1925050508015611f8c57506040513d601f19601f82011682018060405250810190611f899190613842565b60015b61200e573d8060008114611fbc576040519150601f19603f3d011682016040523d82523d6000602084013e611fc1565b606091505b506000815103612006576040517f08c379a0000000000000000000000000000000000000000000000000000000008152600401611ffd906135f9565b60405180910390fd5b805181602001fd5b63150b7a0260e01b7bffffffffffffffffffffffffffffffffffffffffffffffffffffffff1916817bffffffffffffffffffffffffffffffffffffffffffffffffffffffff191614915050612063565b600190505b949350505050565b600080600090507a184f03e93ff9f4daa797ed6e38ed64bf6a1f01000000000000000083106120c9577a184f03e93ff9f4daa797ed6e38ed64bf6a1f01000000000000000083816120bf576120be613619565b5b0492506040810190505b6d04ee2d6d415b85acef81000000008310612106576d04ee2d6d415b85acef810000000083816120fc576120fb613619565b5b0492506020810190505b662386f26fc10000831061213557662386f26fc10000838161212b5761212a613619565b5b0492506010810190505b6305f5e100831061215e576305f5e100838161215457612153613619565b5b0492506008810190505b612710831061218357612710838161217957612178613619565b5b0492506004810190505b606483106121a6576064838161219c5761219b613619565b5b0492506002810190505b600a83106121b5576001810190505b80915050919050565b50505050565b600073ffffffffffffffffffffffffffffffffffffffff168273ffffffffffffffffffffffffffffffffffffffff1603612233576040517f08c379a000000000000000000000000000000000000000000000000000000000815260040161222a906138bb565b60405180910390fd5b61223c81611d45565b1561227c576040517f08c379a000000000000000000000000000000000000000000000000000000000815260040161227390613927565b60405180910390fd5b61228a600083836001611d86565b61229381611d45565b156122d3576040517f08c379a00000000000000000000000000000000000000000000000000000000081526004016122ca90613927565b60405180910390fd5b6001600360008473ffffffffffffffffffffffffffffffffffffffff1673ffffffffffffffffffffffffffffffffffffffff16815260200190815260200160002060008282540192505081905550816002600083815260200190815260200160002060006101000a81548173ffffffffffffffffffffffffffffffffffffffff021916908373ffffffffffffffffffffffffffffffffffffffff160217905550808273ffffffffffffffffffffffffffffffffffffffff16600073ffffffffffffffffffffffffffffffffffffffff167fddf252ad1be2c89b69c2b068fc378daa952ba7f163c4a11628f55a4df523b3ef60405160405180910390a46123dd600083836001611df0565b5050565b6000808273ffffffffffffffffffffffffffffffffffffffff163b119050919050565b60405180606001604052806060815260200160608152602001600081525090565b6000604051905090565b600080fd5b600080fd5b60007fffffffff0000000000000000000000000000000000000000000000000000000082169050919050565b61246e81612439565b811461247957600080fd5b50565b60008135905061248b81612465565b92915050565b6000602082840312156124a7576124a661242f565b5b60006124b58482850161247c565b91505092915050565b60008115159050919050565b6124d3816124be565b82525050565b60006020820190506124ee60008301846124ca565b92915050565b600081519050919050565b600082825260208201905092915050565b60005b8381101561252e578082015181840152602081019050612513565b60008484015250505050565b6000601f19601f8301169050919050565b6000612556826124f4565b61256081856124ff565b9350612570818560208601612510565b6125798161253a565b840191505092915050565b6000602082019050818103600083015261259e818461254b565b905092915050565b6000819050919050565b6125b9816125a6565b81146125c457600080fd5b50565b6000813590506125d6816125b0565b92915050565b6000602082840312156125f2576125f161242f565b5b6000612600848285016125c7565b91505092915050565b600073ffffffffffffffffffffffffffffffffffffffff82169050919050565b600061263482612609565b9050919050565b61264481612629565b82525050565b600060208201905061265f600083018461263b565b92915050565b61266e81612629565b811461267957600080fd5b50565b60008135905061268b81612665565b92915050565b600080604083850312156126a8576126a761242f565b5b60006126b68582860161267c565b92505060206126c7858286016125c7565b9150509250929050565b6000806000606084860312156126ea576126e961242f565b5b60006126f88682870161267c565b93505060206127098682870161267c565b925050604061271a868287016125c7565b9150509250925092565b60006020828403121561273a5761273961242f565b5b60006127488482850161267c565b91505092915050565b61275a816125a6565b82525050565b60006020820190506127756000830184612751565b92915050565b600080fd5b600080fd5b600080fd5b60008083601f8401126127a05761279f61277b565b5b8235905067ffffffffffffffff8111156127bd576127bc612780565b5b6020830191508360018202830111156127d9576127d8612785565b5b9250929050565b6000806000806000606086880312156127fc576127fb61242f565b5b600061280a8882890161267c565b955050602086013567ffffffffffffffff81111561282b5761282a612434565b5b6128378882890161278a565b9450945050604086013567ffffffffffffffff81111561285a57612859612434565b5b6128668882890161278a565b92509250509295509295909350565b61287e816124be565b811461288957600080fd5b50565b60008135905061289b81612875565b92915050565b600080604083850312156128b8576128b761242f565b5b60006128c68582860161267c565b92505060206128d78582860161288c565b9150509250929050565b600080fd5b7f4e487b7100000000000000000000000000000000000000000000000000000000600052604160045260246000fd5b61291e8261253a565b810181811067ffffffffffffffff8211171561293d5761293c6128e6565b5b80604052505050565b6000612950612425565b905061295c8282612915565b919050565b600067ffffffffffffffff82111561297c5761297b6128e6565b5b6129858261253a565b9050602081019050919050565b82818337600083830152505050565b60006129b46129af84612961565b612946565b9050828152602081018484840111156129d0576129cf6128e1565b5b6129db848285612992565b509392505050565b600082601f8301126129f8576129f761277b565b5b8135612a088482602086016129a1565b91505092915050565b60008060008060808587031215612a2b57612a2a61242f565b5b6000612a398782880161267c565b9450506020612a4a8782880161267c565b9350506040612a5b878288016125c7565b925050606085013567ffffffffffffffff811115612a7c57612a7b612434565b5b612a88878288016129e3565b91505092959194509250565b60008060408385031215612aab57612aaa61242f565b5b6000612ab98582860161267c565b9250506020612aca8582860161267c565b9150509250929050565b600082825260208201905092915050565b6000612af0826124f4565b612afa8185612ad4565b9350612b0a818560208601612510565b612b138161253a565b840191505092915050565b612b27816125a6565b82525050565b60006060830160008301518482036000860152612b4a8282612ae5565b91505060208301518482036020860152612b648282612ae5565b9150506040830151612b796040860182612b1e565b508091505092915050565b60006020820190508181036000830152612b9e8184612b2d565b905092915050565b7f4e487b7100000000000000000000000000000000000000000000000000000000600052602260045260246000fd5b60006002820490506001821680612bed57607f821691505b602082108103612c0057612bff612ba6565b5b50919050565b7f4552433732313a20617070726f76616c20746f2063757272656e74206f776e6560008201527f7200000000000000000000000000000000000000000000000000000000000000602082015250565b6000612c626021836124ff565b9150612c6d82612c06565b604082019050919050565b60006020820190508181036000830152612c9181612c55565b9050919050565b7f4552433732313a20617070726f76652063616c6c6572206973206e6f7420746f60008201527f6b656e206f776e6572206f7220617070726f76656420666f7220616c6c000000602082015250565b6000612cf4603d836124ff565b9150612cff82612c98565b604082019050919050565b60006020820190508181036000830152612d2381612ce7565b9050919050565b7f4552433732313a2063616c6c6572206973206e6f7420746f6b656e206f776e6560008201527f72206f7220617070726f76656400000000000000000000000000000000000000602082015250565b6000612d86602d836124ff565b9150612d9182612d2a565b604082019050919050565b60006020820190508181036000830152612db581612d79565b9050919050565b60008190508160005260206000209050919050565b60006020601f8301049050919050565b600082821b905092915050565b600060088302612e1e7fffffffffffffffffffffffffffffffffffffffffffffffffffffffffffffffff82612de1565b612e288683612de1565b95508019841693508086168417925050509392505050565b6000819050919050565b6000612e65612e60612e5b846125a6565b612e40565b6125a6565b9050919050565b6000819050919050565b612e7f83612e4a565b612e93612e8b82612e6c565b848454612dee565b825550505050565b600090565b612ea8612e9b565b612eb3818484612e76565b505050565b5b81811015612ed757612ecc600082612ea0565b600181019050612eb9565b5050565b601f821115612f1c57612eed81612dbc565b612ef684612dd1565b81016020851015612f05578190505b612f19612f1185612dd1565b830182612eb8565b50505b505050565b600082821c905092915050565b6000612f3f60001984600802612f21565b1980831691505092915050565b6000612f588383612f2e565b9150826002028217905092915050565b612f71826124f4565b67ffffffffffffffff811115612f8a57612f896128e6565b5b612f948254612bd5565b612f9f828285612edb565b600060209050601f831160018114612fd25760008415612fc0578287015190505b612fca8582612f4c565b865550613032565b601f198416612fe086612dbc565b60005b8281101561300857848901518255600182019150602085019450602081019050612fe3565b868310156130255784890151613021601f891682612f2e565b8355505b6001600288020188555050505b505050505050565b7f4552433732313a20696e76616c696420746f6b656e2049440000000000000000600082015250565b60006130706018836124ff565b915061307b8261303a565b602082019050919050565b6000602082019050818103600083015261309f81613063565b9050919050565b7f4552433732313a2061646472657373207a65726f206973206e6f74206120766160008201527f6c6964206f776e65720000000000000000000000000000000000000000000000602082015250565b60006131026029836124ff565b915061310d826130a6565b604082019050919050565b60006020820190508181036000830152613131816130f5565b9050919050565b7f4e487b7100000000000000000000000000000000000000000000000000000000600052601160045260246000fd5b6000613172826125a6565b915061317d836125a6565b925082820190508082111561319557613194613138565b5b92915050565b7f596f7520616c7265616479206861766520616e206964656e746974792061737360008201527f6f63696174656420776974682074686174206164647265737300000000000000602082015250565b60006131f76039836124ff565b91506132028261319b565b604082019050919050565b60006020820190508181036000830152613226816131ea565b9050919050565b7f4e616d65206f72207375726e616d652063616e277420626520656d7074790000600082015250565b6000613263601e836124ff565b915061326e8261322d565b602082019050919050565b6000602082019050818103600083015261329281613256565b9050919050565b600081905092915050565b60006132af826124f4565b6132b98185613299565b93506132c9818560208601612510565b80840191505092915050565b60006132e182856132a4565b91506132ed82846132a4565b91508190509392505050565b7f4f776e61626c653a206e6577206f776e657220697320746865207a65726f206160008201527f6464726573730000000000000000000000000000000000000000000000000000602082015250565b60006133556026836124ff565b9150613360826132f9565b604082019050919050565b6000602082019050818103600083015261338481613348565b9050919050565b7f4552433732313a207472616e736665722066726f6d20696e636f72726563742060008201527f6f776e6572000000000000000000000000000000000000000000000000000000602082015250565b60006133e76025836124ff565b91506133f28261338b565b604082019050919050565b60006020820190508181036000830152613416816133da565b9050919050565b7f4552433732313a207472616e7366657220746f20746865207a65726f2061646460008201527f7265737300000000000000000000000000000000000000000000000000000000602082015250565b60006134796024836124ff565b91506134848261341d565b604082019050919050565b600060208201905081810360008301526134a88161346c565b9050919050565b7f4f776e61626c653a2063616c6c6572206973206e6f7420746865206f776e6572600082015250565b60006134e56020836124ff565b91506134f0826134af565b602082019050919050565b60006020820190508181036000830152613514816134d8565b9050919050565b7f4552433732313a20617070726f766520746f2063616c6c657200000000000000600082015250565b60006135516019836124ff565b915061355c8261351b565b602082019050919050565b6000602082019050818103600083015261358081613544565b9050919050565b7f4552433732313a207472616e7366657220746f206e6f6e20455243373231526560008201527f63656976657220696d706c656d656e7465720000000000000000000000000000602082015250565b60006135e36032836124ff565b91506135ee82613587565b604082019050919050565b60006020820190508181036000830152613612816135d6565b9050919050565b7f4e487b7100000000000000000000000000000000000000000000000000000000600052601260045260246000fd5b7f43616e6e6f74207472616e736665720000000000000000000000000000000000600082015250565b600061367e600f836124ff565b915061368982613648565b602082019050919050565b600060208201905081810360008301526136ad81613671565b9050919050565b7f5061757361626c653a206e6f7420706175736564000000000000000000000000600082015250565b60006136ea6014836124ff565b91506136f5826136b4565b602082019050919050565b60006020820190508181036000830152613719816136dd565b9050919050565b7f5061757361626c653a2070617573656400000000000000000000000000000000600082015250565b60006137566010836124ff565b915061376182613720565b602082019050919050565b6000602082019050818103600083015261378581613749565b9050919050565b600081519050919050565b600082825260208201905092915050565b60006137b38261378c565b6137bd8185613797565b93506137cd818560208601612510565b6137d68161253a565b840191505092915050565b60006080820190506137f6600083018761263b565b613803602083018661263b565b6138106040830185612751565b818103606083015261382281846137a8565b905095945050505050565b60008151905061383c81612465565b92915050565b6000602082840312156138585761385761242f565b5b60006138668482850161382d565b91505092915050565b7f4552433732313a206d696e7420746f20746865207a65726f2061646472657373600082015250565b60006138a56020836124ff565b91506138b08261386f565b602082019050919050565b600060208201905081810360008301526138d481613898565b9050919050565b7f4552433732313a20746f6b656e20616c7265616479206d696e74656400000000600082015250565b6000613911601c836124ff565b915061391c826138db565b602082019050919050565b6000602082019050818103600083015261394081613904565b905091905056fea2646970667358221220a967d5d994173020b98a9926ea95606788038d0902e6b2820c9b1f6db486f89564736f6c63430008120033",
			"opcodes": "PUSH1 0x80 PUSH1 0x40 MSTORE PUSH1 0x0 PUSH1 0x8 SSTORE PUSH1 0x1 PUSH1 0x9 PUSH1 0x0 PUSH2 0x100 EXP DUP2 SLOAD DUP2 PUSH1 0xFF MUL NOT AND SWAP1 DUP4 ISZERO ISZERO MUL OR SWAP1 SSTORE POP CALLVALUE DUP1 ISZERO PUSH3 0x31 JUMPI PUSH1 0x0 DUP1 REVERT JUMPDEST POP PUSH1 0x40 MLOAD DUP1 PUSH1 0x40 ADD PUSH1 0x40 MSTORE DUP1 PUSH1 0x14 DUP2 MSTORE PUSH1 0x20 ADD PUSH32 0x536F6369616C41757468656E7469636174696F6E000000000000000000000000 DUP2 MSTORE POP PUSH1 0x40 MLOAD DUP1 PUSH1 0x40 ADD PUSH1 0x40 MSTORE DUP1 PUSH1 0x2 DUP2 MSTORE PUSH1 0x20 ADD PUSH32 0x5341000000000000000000000000000000000000000000000000000000000000 DUP2 MSTORE POP DUP2 PUSH1 0x0 SWAP1 DUP2 PUSH3 0xAF SWAP2 SWAP1 PUSH3 0x44D JUMP JUMPDEST POP DUP1 PUSH1 0x1 SWAP1 DUP2 PUSH3 0xC1 SWAP2 SWAP1 PUSH3 0x44D JUMP JUMPDEST POP POP POP PUSH1 0x0 PUSH1 0x6 PUSH1 0x0 PUSH2 0x100 EXP DUP2 SLOAD DUP2 PUSH1 0xFF MUL NOT AND SWAP1 DUP4 ISZERO ISZERO MUL OR SWAP1 SSTORE POP PUSH3 0xFF PUSH3 0xF3 PUSH3 0x105 PUSH1 0x20 SHL PUSH1 0x20 SHR JUMP JUMPDEST PUSH3 0x10D PUSH1 0x20 SHL PUSH1 0x20 SHR JUMP JUMPDEST PUSH3 0x534 JUMP JUMPDEST PUSH1 0x0 CALLER SWAP1 POP SWAP1 JUMP JUMPDEST PUSH1 0x0 PUSH1 0x6 PUSH1 0x1 SWAP1 SLOAD SWAP1 PUSH2 0x100 EXP SWAP1 DIV PUSH20 0xFFFFFFFFFFFFFFFFFFFFFFFFFFFFFFFFFFFFFFFF AND SWAP1 POP DUP2 PUSH1 0x6 PUSH1 0x1 PUSH2 0x100 EXP DUP2 SLOAD DUP2 PUSH20 0xFFFFFFFFFFFFFFFFFFFFFFFFFFFFFFFFFFFFFFFF MUL NOT AND SWAP1 DUP4 PUSH20 0xFFFFFFFFFFFFFFFFFFFFFFFFFFFFFFFFFFFFFFFF AND MUL OR SWAP1 SSTORE POP DUP2 PUSH20 0xFFFFFFFFFFFFFFFFFFFFFFFFFFFFFFFFFFFFFFFF AND DUP2 PUSH20 0xFFFFFFFFFFFFFFFFFFFFFFFFFFFFFFFFFFFFFFFF AND PUSH32 0x8BE0079C531659141344CD1FD0A4F28419497F9722A3DAAFE3B4186F6B6457E0 PUSH1 0x40 MLOAD PUSH1 0x40 MLOAD DUP1 SWAP2 SUB SWAP1 LOG3 POP POP JUMP JUMPDEST PUSH1 0x0 DUP2 MLOAD SWAP1 POP SWAP2 SWAP1 POP JUMP JUMPDEST PUSH32 0x4E487B7100000000000000000000000000000000000000000000000000000000 PUSH1 0x0 MSTORE PUSH1 0x41 PUSH1 0x4 MSTORE PUSH1 0x24 PUSH1 0x0 REVERT JUMPDEST PUSH32 0x4E487B7100000000000000000000000000000000000000000000000000000000 PUSH1 0x0 MSTORE PUSH1 0x22 PUSH1 0x4 MSTORE PUSH1 0x24 PUSH1 0x0 REVERT JUMPDEST PUSH1 0x0 PUSH1 0x2 DUP3 DIV SWAP1 POP PUSH1 0x1 DUP3 AND DUP1 PUSH3 0x255 JUMPI PUSH1 0x7F DUP3 AND SWAP2 POP JUMPDEST PUSH1 0x20 DUP3 LT DUP2 SUB PUSH3 0x26B JUMPI PUSH3 0x26A PUSH3 0x20D JUMP JUMPDEST JUMPDEST POP SWAP2 SWAP1 POP JUMP JUMPDEST PUSH1 0x0 DUP2 SWAP1 POP DUP2 PUSH1 0x0 MSTORE PUSH1 0x20 PUSH1 0x0 KECCAK256 SWAP1 POP SWAP2 SWAP1 POP JUMP JUMPDEST PUSH1 0x0 PUSH1 0x20 PUSH1 0x1F DUP4 ADD DIV SWAP1 POP SWAP2 SWAP1 POP JUMP JUMPDEST PUSH1 0x0 DUP3 DUP3 SHL SWAP1 POP SWAP3 SWAP2 POP POP JUMP JUMPDEST PUSH1 0x0 PUSH1 0x8 DUP4 MUL PUSH3 0x2D5 PUSH32 0xFFFFFFFFFFFFFFFFFFFFFFFFFFFFFFFFFFFFFFFFFFFFFFFFFFFFFFFFFFFFFFFF DUP3 PUSH3 0x296 JUMP JUMPDEST PUSH3 0x2E1 DUP7 DUP4 PUSH3 0x296 JUMP JUMPDEST SWAP6 POP DUP1 NOT DUP5 AND SWAP4 POP DUP1 DUP7 AND DUP5 OR SWAP3 POP POP POP SWAP4 SWAP3 POP POP POP JUMP JUMPDEST PUSH1 0x0 DUP2 SWAP1 POP SWAP2 SWAP1 POP JUMP JUMPDEST PUSH1 0x0 DUP2 SWAP1 POP SWAP2 SWAP1 POP JUMP JUMPDEST PUSH1 0x0 PUSH3 0x32E PUSH3 0x328 PUSH3 0x322 DUP5 PUSH3 0x2F9 JUMP JUMPDEST PUSH3 0x303 JUMP JUMPDEST PUSH3 0x2F9 JUMP JUMPDEST SWAP1 POP SWAP2 SWAP1 POP JUMP JUMPDEST PUSH1 0x0 DUP2 SWAP1 POP SWAP2 SWAP1 POP JUMP JUMPDEST PUSH3 0x34A DUP4 PUSH3 0x30D JUMP JUMPDEST PUSH3 0x362 PUSH3 0x359 DUP3 PUSH3 0x335 JUMP JUMPDEST DUP5 DUP5 SLOAD PUSH3 0x2A3 JUMP JUMPDEST DUP3 SSTORE POP POP POP POP JUMP JUMPDEST PUSH1 0x0 SWAP1 JUMP JUMPDEST PUSH3 0x379 PUSH3 0x36A JUMP JUMPDEST PUSH3 0x386 DUP2 DUP5 DUP5 PUSH3 0x33F JUMP JUMPDEST POP POP POP JUMP JUMPDEST JUMPDEST DUP2 DUP2 LT ISZERO PUSH3 0x3AE JUMPI PUSH3 0x3A2 PUSH1 0x0 DUP3 PUSH3 0x36F JUMP JUMPDEST PUSH1 0x1 DUP2 ADD SWAP1 POP PUSH3 0x38C JUMP JUMPDEST POP POP JUMP JUMPDEST PUSH1 0x1F DUP3 GT ISZERO PUSH3 0x3FD JUMPI PUSH3 0x3C7 DUP2 PUSH3 0x271 JUMP JUMPDEST PUSH3 0x3D2 DUP5 PUSH3 0x286 JUMP JUMPDEST DUP2 ADD PUSH1 0x20 DUP6 LT ISZERO PUSH3 0x3E2 JUMPI DUP2 SWAP1 POP JUMPDEST PUSH3 0x3FA PUSH3 0x3F1 DUP6 PUSH3 0x286 JUMP JUMPDEST DUP4 ADD DUP3 PUSH3 0x38B JUMP JUMPDEST POP POP JUMPDEST POP POP POP JUMP JUMPDEST PUSH1 0x0 DUP3 DUP3 SHR SWAP1 POP SWAP3 SWAP2 POP POP JUMP JUMPDEST PUSH1 0x0 PUSH3 0x422 PUSH1 0x0 NOT DUP5 PUSH1 0x8 MUL PUSH3 0x402 JUMP JUMPDEST NOT DUP1 DUP4 AND SWAP2 POP POP SWAP3 SWAP2 POP POP JUMP JUMPDEST PUSH1 0x0 PUSH3 0x43D DUP4 DUP4 PUSH3 0x40F JUMP JUMPDEST SWAP2 POP DUP3 PUSH1 0x2 MUL DUP3 OR SWAP1 POP SWAP3 SWAP2 POP POP JUMP JUMPDEST PUSH3 0x458 DUP3 PUSH3 0x1D3 JUMP JUMPDEST PUSH8 0xFFFFFFFFFFFFFFFF DUP2 GT ISZERO PUSH3 0x474 JUMPI PUSH3 0x473 PUSH3 0x1DE JUMP JUMPDEST JUMPDEST PUSH3 0x480 DUP3 SLOAD PUSH3 0x23C JUMP JUMPDEST PUSH3 0x48D DUP3 DUP3 DUP6 PUSH3 0x3B2 JUMP JUMPDEST PUSH1 0x0 PUSH1 0x20 SWAP1 POP PUSH1 0x1F DUP4 GT PUSH1 0x1 DUP2 EQ PUSH3 0x4C5 JUMPI PUSH1 0x0 DUP5 ISZERO PUSH3 0x4B0 JUMPI DUP3 DUP8 ADD MLOAD SWAP1 POP JUMPDEST PUSH3 0x4BC DUP6 DUP3 PUSH3 0x42F JUMP JUMPDEST DUP7 SSTORE POP PUSH3 0x52C JUMP JUMPDEST PUSH1 0x1F NOT DUP5 AND PUSH3 0x4D5 DUP7 PUSH3 0x271 JUMP JUMPDEST PUSH1 0x0 JUMPDEST DUP3 DUP2 LT ISZERO PUSH3 0x4FF JUMPI DUP5 DUP10 ADD MLOAD DUP3 SSTORE PUSH1 0x1 DUP3 ADD SWAP2 POP PUSH1 0x20 DUP6 ADD SWAP5 POP PUSH1 0x20 DUP2 ADD SWAP1 POP PUSH3 0x4D8 JUMP JUMPDEST DUP7 DUP4 LT ISZERO PUSH3 0x51F JUMPI DUP5 DUP10 ADD MLOAD PUSH3 0x51B PUSH1 0x1F DUP10 AND DUP3 PUSH3 0x40F JUMP JUMPDEST DUP4 SSTORE POP JUMPDEST PUSH1 0x1 PUSH1 0x2 DUP9 MUL ADD DUP9 SSTORE POP POP POP JUMPDEST POP POP POP POP POP POP JUMP JUMPDEST PUSH2 0x397D DUP1 PUSH3 0x544 PUSH1 0x0 CODECOPY PUSH1 0x0 RETURN INVALID PUSH1 0x80 PUSH1 0x40 MSTORE CALLVALUE DUP1 ISZERO PUSH2 0x10 JUMPI PUSH1 0x0 DUP1 REVERT JUMPDEST POP PUSH1 0x4 CALLDATASIZE LT PUSH2 0x158 JUMPI PUSH1 0x0 CALLDATALOAD PUSH1 0xE0 SHR DUP1 PUSH4 0x715018A6 GT PUSH2 0xC3 JUMPI DUP1 PUSH4 0xA22CB465 GT PUSH2 0x7C JUMPI DUP1 PUSH4 0xA22CB465 EQ PUSH2 0x377 JUMPI DUP1 PUSH4 0xB88D4FDE EQ PUSH2 0x393 JUMPI DUP1 PUSH4 0xC87B56DD EQ PUSH2 0x3AF JUMPI DUP1 PUSH4 0xE985E9C5 EQ PUSH2 0x3DF JUMPI DUP1 PUSH4 0xF0EB5E54 EQ PUSH2 0x40F JUMPI DUP1 PUSH4 0xF2FDE38B EQ PUSH2 0x43F JUMPI PUSH2 0x158 JUMP JUMPDEST DUP1 PUSH4 0x715018A6 EQ PUSH2 0x2EF JUMPI DUP1 PUSH4 0x8456CB59 EQ PUSH2 0x2F9 JUMPI DUP1 PUSH4 0x8D59CC02 EQ PUSH2 0x303 JUMPI DUP1 PUSH4 0x8DA5CB5B EQ PUSH2 0x31F JUMPI DUP1 PUSH4 0x95D89B41 EQ PUSH2 0x33D JUMPI DUP1 PUSH4 0xA1448194 EQ PUSH2 0x35B JUMPI PUSH2 0x158 JUMP JUMPDEST DUP1 PUSH4 0x3F4BA83A GT PUSH2 0x115 JUMPI DUP1 PUSH4 0x3F4BA83A EQ PUSH2 0x22F JUMPI DUP1 PUSH4 0x42842E0E EQ PUSH2 0x239 JUMPI DUP1 PUSH4 0x42966C68 EQ PUSH2 0x255 JUMPI DUP1 PUSH4 0x5C975ABB EQ PUSH2 0x271 JUMPI DUP1 PUSH4 0x6352211E EQ PUSH2 0x28F JUMPI DUP1 PUSH4 0x70A08231 EQ PUSH2 0x2BF JUMPI PUSH2 0x158 JUMP JUMPDEST DUP1 PUSH4 0x1FFC9A7 EQ PUSH2 0x15D JUMPI DUP1 PUSH4 0x6FDDE03 EQ PUSH2 0x18D JUMPI DUP1 PUSH4 0x81812FC EQ PUSH2 0x1AB JUMPI DUP1 PUSH4 0x95EA7B3 EQ PUSH2 0x1DB JUMPI DUP1 PUSH4 0x23B872DD EQ PUSH2 0x1F7 JUMPI DUP1 PUSH4 0x2EC2C246 EQ PUSH2 0x213 JUMPI JUMPDEST PUSH1 0x0 DUP1 REVERT JUMPDEST PUSH2 0x177 PUSH1 0x4 DUP1 CALLDATASIZE SUB DUP2 ADD SWAP1 PUSH2 0x172 SWAP2 SWAP1 PUSH2 0x2491 JUMP JUMPDEST PUSH2 0x45B JUMP JUMPDEST PUSH1 0x40 MLOAD PUSH2 0x184 SWAP2 SWAP1 PUSH2 0x24D9 JUMP JUMPDEST PUSH1 0x40 MLOAD DUP1 SWAP2 SUB SWAP1 RETURN JUMPDEST PUSH2 0x195 PUSH2 0x53D JUMP JUMPDEST PUSH1 0x40 MLOAD PUSH2 0x1A2 SWAP2 SWAP1 PUSH2 0x2584 JUMP JUMPDEST PUSH1 0x40 MLOAD DUP1 SWAP2 SUB SWAP1 RETURN JUMPDEST PUSH2 0x1C5 PUSH1 0x4 DUP1 CALLDATASIZE SUB DUP2 ADD SWAP1 PUSH2 0x1C0 SWAP2 SWAP1 PUSH2 0x25DC JUMP JUMPDEST PUSH2 0x5CF JUMP JUMPDEST PUSH1 0x40 MLOAD PUSH2 0x1D2 SWAP2 SWAP1 PUSH2 0x264A JUMP JUMPDEST PUSH1 0x40 MLOAD DUP1 SWAP2 SUB SWAP1 RETURN JUMPDEST PUSH2 0x1F5 PUSH1 0x4 DUP1 CALLDATASIZE SUB DUP2 ADD SWAP1 PUSH2 0x1F0 SWAP2 SWAP1 PUSH2 0x2691 JUMP JUMPDEST PUSH2 0x615 JUMP JUMPDEST STOP JUMPDEST PUSH2 0x211 PUSH1 0x4 DUP1 CALLDATASIZE SUB DUP2 ADD SWAP1 PUSH2 0x20C SWAP2 SWAP1 PUSH2 0x26D1 JUMP JUMPDEST PUSH2 0x72C JUMP JUMPDEST STOP JUMPDEST PUSH2 0x22D PUSH1 0x4 DUP1 CALLDATASIZE SUB DUP2 ADD SWAP1 PUSH2 0x228 SWAP2 SWAP1 PUSH2 0x2724 JUMP JUMPDEST PUSH2 0x78C JUMP JUMPDEST STOP JUMPDEST PUSH2 0x237 PUSH2 0x91E JUMP JUMPDEST STOP JUMPDEST PUSH2 0x253 PUSH1 0x4 DUP1 CALLDATASIZE SUB DUP2 ADD SWAP1 PUSH2 0x24E SWAP2 SWAP1 PUSH2 0x26D1 JUMP JUMPDEST PUSH2 0x930 JUMP JUMPDEST STOP JUMPDEST PUSH2 0x26F PUSH1 0x4 DUP1 CALLDATASIZE SUB DUP2 ADD SWAP1 PUSH2 0x26A SWAP2 SWAP1 PUSH2 0x25DC JUMP JUMPDEST PUSH2 0x950 JUMP JUMPDEST STOP JUMPDEST PUSH2 0x279 PUSH2 0x9AC JUMP JUMPDEST PUSH1 0x40 MLOAD PUSH2 0x286 SWAP2 SWAP1 PUSH2 0x24D9 JUMP JUMPDEST PUSH1 0x40 MLOAD DUP1 SWAP2 SUB SWAP1 RETURN JUMPDEST PUSH2 0x2A9 PUSH1 0x4 DUP1 CALLDATASIZE SUB DUP2 ADD SWAP1 PUSH2 0x2A4 SWAP2 SWAP1 PUSH2 0x25DC JUMP JUMPDEST PUSH2 0x9C3 JUMP JUMPDEST PUSH1 0x40 MLOAD PUSH2 0x2B6 SWAP2 SWAP1 PUSH2 0x264A JUMP JUMPDEST PUSH1 0x40 MLOAD DUP1 SWAP2 SUB SWAP1 RETURN JUMPDEST PUSH2 0x2D9 PUSH1 0x4 DUP1 CALLDATASIZE SUB DUP2 ADD SWAP1 PUSH2 0x2D4 SWAP2 SWAP1 PUSH2 0x2724 JUMP JUMPDEST PUSH2 0xA49 JUMP JUMPDEST PUSH1 0x40 MLOAD PUSH2 0x2E6 SWAP2 SWAP1 PUSH2 0x2760 JUMP JUMPDEST PUSH1 0x40 MLOAD DUP1 SWAP2 SUB SWAP1 RETURN JUMPDEST PUSH2 0x2F7 PUSH2 0xB00 JUMP JUMPDEST STOP JUMPDEST PUSH2 0x301 PUSH2 0xB14 JUMP JUMPDEST STOP JUMPDEST PUSH2 0x31D PUSH1 0x4 DUP1 CALLDATASIZE SUB DUP2 ADD SWAP1 PUSH2 0x318 SWAP2 SWAP1 PUSH2 0x27E0 JUMP JUMPDEST PUSH2 0xB26 JUMP JUMPDEST STOP JUMPDEST PUSH2 0x327 PUSH2 0xD91 JUMP JUMPDEST PUSH1 0x40 MLOAD PUSH2 0x334 SWAP2 SWAP1 PUSH2 0x264A JUMP JUMPDEST PUSH1 0x40 MLOAD DUP1 SWAP2 SUB SWAP1 RETURN JUMPDEST PUSH2 0x345 PUSH2 0xDBB JUMP JUMPDEST PUSH1 0x40 MLOAD PUSH2 0x352 SWAP2 SWAP1 PUSH2 0x2584 JUMP JUMPDEST PUSH1 0x40 MLOAD DUP1 SWAP2 SUB SWAP1 RETURN JUMPDEST PUSH2 0x375 PUSH1 0x4 DUP1 CALLDATASIZE SUB DUP2 ADD SWAP1 PUSH2 0x370 SWAP2 SWAP1 PUSH2 0x2691 JUMP JUMPDEST PUSH2 0xE4D JUMP JUMPDEST STOP JUMPDEST PUSH2 0x391 PUSH1 0x4 DUP1 CALLDATASIZE SUB DUP2 ADD SWAP1 PUSH2 0x38C SWAP2 SWAP1 PUSH2 0x28A1 JUMP JUMPDEST PUSH2 0xE63 JUMP JUMPDEST STOP JUMPDEST PUSH2 0x3AD PUSH1 0x4 DUP1 CALLDATASIZE SUB DUP2 ADD SWAP1 PUSH2 0x3A8 SWAP2 SWAP1 PUSH2 0x2A11 JUMP JUMPDEST PUSH2 0xE79 JUMP JUMPDEST STOP JUMPDEST PUSH2 0x3C9 PUSH1 0x4 DUP1 CALLDATASIZE SUB DUP2 ADD SWAP1 PUSH2 0x3C4 SWAP2 SWAP1 PUSH2 0x25DC JUMP JUMPDEST PUSH2 0xEDB JUMP JUMPDEST PUSH1 0x40 MLOAD PUSH2 0x3D6 SWAP2 SWAP1 PUSH2 0x2584 JUMP JUMPDEST PUSH1 0x40 MLOAD DUP1 SWAP2 SUB SWAP1 RETURN JUMPDEST PUSH2 0x3F9 PUSH1 0x4 DUP1 CALLDATASIZE SUB DUP2 ADD SWAP1 PUSH2 0x3F4 SWAP2 SWAP1 PUSH2 0x2A94 JUMP JUMPDEST PUSH2 0xF43 JUMP JUMPDEST PUSH1 0x40 MLOAD PUSH2 0x406 SWAP2 SWAP1 PUSH2 0x24D9 JUMP JUMPDEST PUSH1 0x40 MLOAD DUP1 SWAP2 SUB SWAP1 RETURN JUMPDEST PUSH2 0x429 PUSH1 0x4 DUP1 CALLDATASIZE SUB DUP2 ADD SWAP1 PUSH2 0x424 SWAP2 SWAP1 PUSH2 0x2724 JUMP JUMPDEST PUSH2 0xFD7 JUMP JUMPDEST PUSH1 0x40 MLOAD PUSH2 0x436 SWAP2 SWAP1 PUSH2 0x2B84 JUMP JUMPDEST PUSH1 0x40 MLOAD DUP1 SWAP2 SUB SWAP1 RETURN JUMPDEST PUSH2 0x459 PUSH1 0x4 DUP1 CALLDATASIZE SUB DUP2 ADD SWAP1 PUSH2 0x454 SWAP2 SWAP1 PUSH2 0x2724 JUMP JUMPDEST PUSH2 0x115E JUMP JUMPDEST STOP JUMPDEST PUSH1 0x0 PUSH32 0x80AC58CD00000000000000000000000000000000000000000000000000000000 PUSH28 0xFFFFFFFFFFFFFFFFFFFFFFFFFFFFFFFFFFFFFFFFFFFFFFFFFFFFFFFF NOT AND DUP3 PUSH28 0xFFFFFFFFFFFFFFFFFFFFFFFFFFFFFFFFFFFFFFFFFFFFFFFFFFFFFFFF NOT AND EQ DUP1 PUSH2 0x526 JUMPI POP PUSH32 0x5B5E139F00000000000000000000000000000000000000000000000000000000 PUSH28 0xFFFFFFFFFFFFFFFFFFFFFFFFFFFFFFFFFFFFFFFFFFFFFFFFFFFFFFFF NOT AND DUP3 PUSH28 0xFFFFFFFFFFFFFFFFFFFFFFFFFFFFFFFFFFFFFFFFFFFFFFFFFFFFFFFF NOT AND EQ JUMPDEST DUP1 PUSH2 0x536 JUMPI POP PUSH2 0x535 DUP3 PUSH2 0x11E1 JUMP JUMPDEST JUMPDEST SWAP1 POP SWAP2 SWAP1 POP JUMP JUMPDEST PUSH1 0x60 PUSH1 0x0 DUP1 SLOAD PUSH2 0x54C SWAP1 PUSH2 0x2BD5 JUMP JUMPDEST DUP1 PUSH1 0x1F ADD PUSH1 0x20 DUP1 SWAP2 DIV MUL PUSH1 0x20 ADD PUSH1 0x40 MLOAD SWAP1 DUP2 ADD PUSH1 0x40 MSTORE DUP1 SWAP3 SWAP2 SWAP1 DUP2 DUP2 MSTORE PUSH1 0x20 ADD DUP3 DUP1 SLOAD PUSH2 0x578 SWAP1 PUSH2 0x2BD5 JUMP JUMPDEST DUP1 ISZERO PUSH2 0x5C5 JUMPI DUP1 PUSH1 0x1F LT PUSH2 0x59A JUMPI PUSH2 0x100 DUP1 DUP4 SLOAD DIV MUL DUP4 MSTORE SWAP2 PUSH1 0x20 ADD SWAP2 PUSH2 0x5C5 JUMP JUMPDEST DUP3 ADD SWAP2 SWAP1 PUSH1 0x0 MSTORE PUSH1 0x20 PUSH1 0x0 KECCAK256 SWAP1 JUMPDEST DUP2 SLOAD DUP2 MSTORE SWAP1 PUSH1 0x1 ADD SWAP1 PUSH1 0x20 ADD DUP1 DUP4 GT PUSH2 0x5A8 JUMPI DUP3 SWAP1 SUB PUSH1 0x1F AND DUP3 ADD SWAP2 JUMPDEST POP POP POP POP POP SWAP1 POP SWAP1 JUMP JUMPDEST PUSH1 0x0 PUSH2 0x5DA DUP3 PUSH2 0x124B JUMP JUMPDEST PUSH1 0x4 PUSH1 0x0 DUP4 DUP2 MSTORE PUSH1 0x20 ADD SWAP1 DUP2 MSTORE PUSH1 0x20 ADD PUSH1 0x0 KECCAK256 PUSH1 0x0 SWAP1 SLOAD SWAP1 PUSH2 0x100 EXP SWAP1 DIV PUSH20 0xFFFFFFFFFFFFFFFFFFFFFFFFFFFFFFFFFFFFFFFF AND SWAP1 POP SWAP2 SWAP1 POP JUMP JUMPDEST PUSH1 0x0 PUSH2 0x620 DUP3 PUSH2 0x9C3 JUMP JUMPDEST SWAP1 POP DUP1 PUSH20 0xFFFFFFFFFFFFFFFFFFFFFFFFFFFFFFFFFFFFFFFF AND DUP4 PUSH20 0xFFFFFFFFFFFFFFFFFFFFFFFFFFFFFFFFFFFFFFFF AND SUB PUSH2 0x690 JUMPI PUSH1 0x40 MLOAD PUSH32 0x8C379A000000000000000000000000000000000000000000000000000000000 DUP2 MSTORE PUSH1 0x4 ADD PUSH2 0x687 SWAP1 PUSH2 0x2C78 JUMP JUMPDEST PUSH1 0x40 MLOAD DUP1 SWAP2 SUB SWAP1 REVERT JUMPDEST DUP1 PUSH20 0xFFFFFFFFFFFFFFFFFFFFFFFFFFFFFFFFFFFFFFFF AND PUSH2 0x6AF PUSH2 0x1296 JUMP JUMPDEST PUSH20 0xFFFFFFFFFFFFFFFFFFFFFFFFFFFFFFFFFFFFFFFF AND EQ DUP1 PUSH2 0x6DE JUMPI POP PUSH2 0x6DD DUP2 PUSH2 0x6D8 PUSH2 0x1296 JUMP JUMPDEST PUSH2 0xF43 JUMP JUMPDEST JUMPDEST PUSH2 0x71D JUMPI PUSH1 0x40 MLOAD PUSH32 0x8C379A000000000000000000000000000000000000000000000000000000000 DUP2 MSTORE PUSH1 0x4 ADD PUSH2 0x714 SWAP1 PUSH2 0x2D0A JUMP JUMPDEST PUSH1 0x40 MLOAD DUP1 SWAP2 SUB SWAP1 REVERT JUMPDEST PUSH2 0x727 DUP4 DUP4 PUSH2 0x129E JUMP JUMPDEST POP POP POP JUMP JUMPDEST PUSH2 0x73D PUSH2 0x737 PUSH2 0x1296 JUMP JUMPDEST DUP3 PUSH2 0x1357 JUMP JUMPDEST PUSH2 0x77C JUMPI PUSH1 0x40 MLOAD PUSH32 0x8C379A000000000000000000000000000000000000000000000000000000000 DUP2 MSTORE PUSH1 0x4 ADD PUSH2 0x773 SWAP1 PUSH2 0x2D9C JUMP JUMPDEST PUSH1 0x40 MLOAD DUP1 SWAP2 SUB SWAP1 REVERT JUMPDEST PUSH2 0x787 DUP4 DUP4 DUP4 PUSH2 0x13EC JUMP JUMPDEST POP POP POP JUMP JUMPDEST PUSH2 0x794 PUSH2 0x16E5 JUMP JUMPDEST PUSH1 0x0 PUSH1 0x9 PUSH1 0x0 PUSH2 0x100 EXP DUP2 SLOAD DUP2 PUSH1 0xFF MUL NOT AND SWAP1 DUP4 ISZERO ISZERO MUL OR SWAP1 SSTORE POP PUSH2 0x7FA PUSH1 0x7 PUSH1 0x0 DUP4 PUSH20 0xFFFFFFFFFFFFFFFFFFFFFFFFFFFFFFFFFFFFFFFF AND PUSH20 0xFFFFFFFFFFFFFFFFFFFFFFFFFFFFFFFFFFFFFFFF AND DUP2 MSTORE PUSH1 0x20 ADD SWAP1 DUP2 MSTORE PUSH1 0x20 ADD PUSH1 0x0 KECCAK256 PUSH1 0x2 ADD SLOAD PUSH2 0x1763 JUMP JUMPDEST PUSH1 0x1 PUSH1 0x9 PUSH1 0x0 PUSH2 0x100 EXP DUP2 SLOAD DUP2 PUSH1 0xFF MUL NOT AND SWAP1 DUP4 ISZERO ISZERO MUL OR SWAP1 SSTORE POP PUSH1 0x40 MLOAD DUP1 PUSH1 0x20 ADD PUSH1 0x40 MSTORE DUP1 PUSH1 0x0 DUP2 MSTORE POP PUSH1 0x7 PUSH1 0x0 DUP4 PUSH20 0xFFFFFFFFFFFFFFFFFFFFFFFFFFFFFFFFFFFFFFFF AND PUSH20 0xFFFFFFFFFFFFFFFFFFFFFFFFFFFFFFFFFFFFFFFF AND DUP2 MSTORE PUSH1 0x20 ADD SWAP1 DUP2 MSTORE PUSH1 0x20 ADD PUSH1 0x0 KECCAK256 PUSH1 0x0 ADD SWAP1 DUP2 PUSH2 0x873 SWAP2 SWAP1 PUSH2 0x2F68 JUMP JUMPDEST POP PUSH1 0x40 MLOAD DUP1 PUSH1 0x20 ADD PUSH1 0x40 MSTORE DUP1 PUSH1 0x0 DUP2 MSTORE POP PUSH1 0x7 PUSH1 0x0 DUP4 PUSH20 0xFFFFFFFFFFFFFFFFFFFFFFFFFFFFFFFFFFFFFFFF AND PUSH20 0xFFFFFFFFFFFFFFFFFFFFFFFFFFFFFFFFFFFFFFFF AND DUP2 MSTORE PUSH1 0x20 ADD SWAP1 DUP2 MSTORE PUSH1 0x20 ADD PUSH1 0x0 KECCAK256 PUSH1 0x1 ADD SWAP1 DUP2 PUSH2 0x8D2 SWAP2 SWAP1 PUSH2 0x2F68 JUMP JUMPDEST POP PUSH1 0x0 PUSH1 0x7 PUSH1 0x0 DUP4 PUSH20 0xFFFFFFFFFFFFFFFFFFFFFFFFFFFFFFFFFFFFFFFF AND PUSH20 0xFFFFFFFFFFFFFFFFFFFFFFFFFFFFFFFFFFFFFFFF AND DUP2 MSTORE PUSH1 0x20 ADD SWAP1 DUP2 MSTORE PUSH1 0x20 ADD PUSH1 0x0 KECCAK256 PUSH1 0x2 ADD DUP2 SWAP1 SSTORE POP POP JUMP JUMPDEST PUSH2 0x926 PUSH2 0x16E5 JUMP JUMPDEST PUSH2 0x92E PUSH2 0x18B1 JUMP JUMPDEST JUMP JUMPDEST PUSH2 0x94B DUP4 DUP4 DUP4 PUSH1 0x40 MLOAD DUP1 PUSH1 0x20 ADD PUSH1 0x40 MSTORE DUP1 PUSH1 0x0 DUP2 MSTORE POP PUSH2 0xE79 JUMP JUMPDEST POP POP POP JUMP JUMPDEST PUSH2 0x961 PUSH2 0x95B PUSH2 0x1296 JUMP JUMPDEST DUP3 PUSH2 0x1357 JUMP JUMPDEST PUSH2 0x9A0 JUMPI PUSH1 0x40 MLOAD PUSH32 0x8C379A000000000000000000000000000000000000000000000000000000000 DUP2 MSTORE PUSH1 0x4 ADD PUSH2 0x997 SWAP1 PUSH2 0x2D9C JUMP JUMPDEST PUSH1 0x40 MLOAD DUP1 SWAP2 SUB SWAP1 REVERT JUMPDEST PUSH2 0x9A9 DUP2 PUSH2 0x1763 JUMP JUMPDEST POP JUMP JUMPDEST PUSH1 0x0 PUSH1 0x6 PUSH1 0x0 SWAP1 SLOAD SWAP1 PUSH2 0x100 EXP SWAP1 DIV PUSH1 0xFF AND SWAP1 POP SWAP1 JUMP JUMPDEST PUSH1 0x0 DUP1 PUSH2 0x9CF DUP4 PUSH2 0x1914 JUMP JUMPDEST SWAP1 POP PUSH1 0x0 PUSH20 0xFFFFFFFFFFFFFFFFFFFFFFFFFFFFFFFFFFFFFFFF AND DUP2 PUSH20 0xFFFFFFFFFFFFFFFFFFFFFFFFFFFFFFFFFFFFFFFF AND SUB PUSH2 0xA40 JUMPI PUSH1 0x40 MLOAD PUSH32 0x8C379A000000000000000000000000000000000000000000000000000000000 DUP2 MSTORE PUSH1 0x4 ADD PUSH2 0xA37 SWAP1 PUSH2 0x3086 JUMP JUMPDEST PUSH1 0x40 MLOAD DUP1 SWAP2 SUB SWAP1 REVERT JUMPDEST DUP1 SWAP2 POP POP SWAP2 SWAP1 POP JUMP JUMPDEST PUSH1 0x0 DUP1 PUSH20 0xFFFFFFFFFFFFFFFFFFFFFFFFFFFFFFFFFFFFFFFF AND DUP3 PUSH20 0xFFFFFFFFFFFFFFFFFFFFFFFFFFFFFFFFFFFFFFFF AND SUB PUSH2 0xAB9 JUMPI PUSH1 0x40 MLOAD PUSH32 0x8C379A000000000000000000000000000000000000000000000000000000000 DUP2 MSTORE PUSH1 0x4 ADD PUSH2 0xAB0 SWAP1 PUSH2 0x3118 JUMP JUMPDEST PUSH1 0x40 MLOAD DUP1 SWAP2 SUB SWAP1 REVERT JUMPDEST PUSH1 0x3 PUSH1 0x0 DUP4 PUSH20 0xFFFFFFFFFFFFFFFFFFFFFFFFFFFFFFFFFFFFFFFF AND PUSH20 0xFFFFFFFFFFFFFFFFFFFFFFFFFFFFFFFFFFFFFFFF AND DUP2 MSTORE PUSH1 0x20 ADD SWAP1 DUP2 MSTORE PUSH1 0x20 ADD PUSH1 0x0 KECCAK256 SLOAD SWAP1 POP SWAP2 SWAP1 POP JUMP JUMPDEST PUSH2 0xB08 PUSH2 0x16E5 JUMP JUMPDEST PUSH2 0xB12 PUSH1 0x0 PUSH2 0x1951 JUMP JUMPDEST JUMP JUMPDEST PUSH2 0xB1C PUSH2 0x16E5 JUMP JUMPDEST PUSH2 0xB24 PUSH2 0x1A17 JUMP JUMPDEST JUMP JUMPDEST PUSH2 0xB2E PUSH2 0x16E5 JUMP JUMPDEST PUSH1 0x1 PUSH1 0x8 SLOAD PUSH2 0xB3D SWAP2 SWAP1 PUSH2 0x3167 JUMP JUMPDEST PUSH1 0x8 DUP2 SWAP1 SSTORE POP PUSH1 0x0 PUSH1 0x7 PUSH1 0x0 DUP8 PUSH20 0xFFFFFFFFFFFFFFFFFFFFFFFFFFFFFFFFFFFFFFFF AND PUSH20 0xFFFFFFFFFFFFFFFFFFFFFFFFFFFFFFFFFFFFFFFF AND DUP2 MSTORE PUSH1 0x20 ADD SWAP1 DUP2 MSTORE PUSH1 0x20 ADD PUSH1 0x0 KECCAK256 PUSH1 0x0 ADD DUP1 SLOAD PUSH2 0xB92 SWAP1 PUSH2 0x2BD5 JUMP JUMPDEST SWAP1 POP EQ PUSH2 0xBD4 JUMPI PUSH1 0x40 MLOAD PUSH32 0x8C379A000000000000000000000000000000000000000000000000000000000 DUP2 MSTORE PUSH1 0x4 ADD PUSH2 0xBCB SWAP1 PUSH2 0x320D JUMP JUMPDEST PUSH1 0x40 MLOAD DUP1 SWAP2 SUB SWAP1 REVERT JUMPDEST PUSH1 0x0 DUP5 DUP5 SWAP1 POP EQ ISZERO DUP1 ISZERO PUSH2 0xBEC JUMPI POP PUSH1 0x0 DUP3 DUP3 SWAP1 POP EQ ISZERO JUMPDEST PUSH2 0xC2B JUMPI PUSH1 0x40 MLOAD PUSH32 0x8C379A000000000000000000000000000000000000000000000000000000000 DUP2 MSTORE PUSH1 0x4 ADD PUSH2 0xC22 SWAP1 PUSH2 0x3279 JUMP JUMPDEST PUSH1 0x40 MLOAD DUP1 SWAP2 SUB SWAP1 REVERT JUMPDEST PUSH1 0x40 MLOAD DUP1 PUSH1 0x60 ADD PUSH1 0x40 MSTORE DUP1 DUP6 DUP6 DUP1 DUP1 PUSH1 0x1F ADD PUSH1 0x20 DUP1 SWAP2 DIV MUL PUSH1 0x20 ADD PUSH1 0x40 MLOAD SWAP1 DUP2 ADD PUSH1 0x40 MSTORE DUP1 SWAP4 SWAP3 SWAP2 SWAP1 DUP2 DUP2 MSTORE PUSH1 0x20 ADD DUP4 DUP4 DUP1 DUP3 DUP5 CALLDATACOPY PUSH1 0x0 DUP2 DUP5 ADD MSTORE PUSH1 0x1F NOT PUSH1 0x1F DUP3 ADD AND SWAP1 POP DUP1 DUP4 ADD SWAP3 POP POP POP POP POP POP POP DUP2 MSTORE PUSH1 0x20 ADD DUP4 DUP4 DUP1 DUP1 PUSH1 0x1F ADD PUSH1 0x20 DUP1 SWAP2 DIV MUL PUSH1 0x20 ADD PUSH1 0x40 MLOAD SWAP1 DUP2 ADD PUSH1 0x40 MSTORE DUP1 SWAP4 SWAP3 SWAP2 SWAP1 DUP2 DUP2 MSTORE PUSH1 0x20 ADD DUP4 DUP4 DUP1 DUP3 DUP5 CALLDATACOPY PUSH1 0x0 DUP2 DUP5 ADD MSTORE PUSH1 0x1F NOT PUSH1 0x1F DUP3 ADD AND SWAP1 POP DUP1 DUP4 ADD SWAP3 POP POP POP POP POP POP POP DUP2 MSTORE PUSH1 0x20 ADD PUSH1 0x8 SLOAD DUP2 MSTORE POP PUSH1 0x7 PUSH1 0x0 DUP8 PUSH20 0xFFFFFFFFFFFFFFFFFFFFFFFFFFFFFFFFFFFFFFFF AND PUSH20 0xFFFFFFFFFFFFFFFFFFFFFFFFFFFFFFFFFFFFFFFF AND DUP2 MSTORE PUSH1 0x20 ADD SWAP1 DUP2 MSTORE PUSH1 0x20 ADD PUSH1 0x0 KECCAK256 PUSH1 0x0 DUP3 ADD MLOAD DUP2 PUSH1 0x0 ADD SWAP1 DUP2 PUSH2 0xD24 SWAP2 SWAP1 PUSH2 0x2F68 JUMP JUMPDEST POP PUSH1 0x20 DUP3 ADD MLOAD DUP2 PUSH1 0x1 ADD SWAP1 DUP2 PUSH2 0xD3A SWAP2 SWAP1 PUSH2 0x2F68 JUMP JUMPDEST POP PUSH1 0x40 DUP3 ADD MLOAD DUP2 PUSH1 0x2 ADD SSTORE SWAP1 POP POP PUSH1 0x0 PUSH1 0x9 PUSH1 0x0 PUSH2 0x100 EXP DUP2 SLOAD DUP2 PUSH1 0xFF MUL NOT AND SWAP1 DUP4 ISZERO ISZERO MUL OR SWAP1 SSTORE POP PUSH2 0xD6F DUP6 PUSH1 0x8 SLOAD PUSH2 0xE4D JUMP JUMPDEST PUSH1 0x1 PUSH1 0x9 PUSH1 0x0 PUSH2 0x100 EXP DUP2 SLOAD DUP2 PUSH1 0xFF MUL NOT AND SWAP1 DUP4 ISZERO ISZERO MUL OR SWAP1 SSTORE POP POP POP POP POP POP JUMP JUMPDEST PUSH1 0x0 PUSH1 0x6 PUSH1 0x1 SWAP1 SLOAD SWAP1 PUSH2 0x100 EXP SWAP1 DIV PUSH20 0xFFFFFFFFFFFFFFFFFFFFFFFFFFFFFFFFFFFFFFFF AND SWAP1 POP SWAP1 JUMP JUMPDEST PUSH1 0x60 PUSH1 0x1 DUP1 SLOAD PUSH2 0xDCA SWAP1 PUSH2 0x2BD5 JUMP JUMPDEST DUP1 PUSH1 0x1F ADD PUSH1 0x20 DUP1 SWAP2 DIV MUL PUSH1 0x20 ADD PUSH1 0x40 MLOAD SWAP1 DUP2 ADD PUSH1 0x40 MSTORE DUP1 SWAP3 SWAP2 SWAP1 DUP2 DUP2 MSTORE PUSH1 0x20 ADD DUP3 DUP1 SLOAD PUSH2 0xDF6 SWAP1 PUSH2 0x2BD5 JUMP JUMPDEST DUP1 ISZERO PUSH2 0xE43 JUMPI DUP1 PUSH1 0x1F LT PUSH2 0xE18 JUMPI PUSH2 0x100 DUP1 DUP4 SLOAD DIV MUL DUP4 MSTORE SWAP2 PUSH1 0x20 ADD SWAP2 PUSH2 0xE43 JUMP JUMPDEST DUP3 ADD SWAP2 SWAP1 PUSH1 0x0 MSTORE PUSH1 0x20 PUSH1 0x0 KECCAK256 SWAP1 JUMPDEST DUP2 SLOAD DUP2 MSTORE SWAP1 PUSH1 0x1 ADD SWAP1 PUSH1 0x20 ADD DUP1 DUP4 GT PUSH2 0xE26 JUMPI DUP3 SWAP1 SUB PUSH1 0x1F AND DUP3 ADD SWAP2 JUMPDEST POP POP POP POP POP SWAP1 POP SWAP1 JUMP JUMPDEST PUSH2 0xE55 PUSH2 0x16E5 JUMP JUMPDEST PUSH2 0xE5F DUP3 DUP3 PUSH2 0x1A7A JUMP JUMPDEST POP POP JUMP JUMPDEST PUSH2 0xE75 PUSH2 0xE6E PUSH2 0x1296 JUMP JUMPDEST DUP4 DUP4 PUSH2 0x1A98 JUMP JUMPDEST POP POP JUMP JUMPDEST PUSH2 0xE8A PUSH2 0xE84 PUSH2 0x1296 JUMP JUMPDEST DUP4 PUSH2 0x1357 JUMP JUMPDEST PUSH2 0xEC9 JUMPI PUSH1 0x40 MLOAD PUSH32 0x8C379A000000000000000000000000000000000000000000000000000000000 DUP2 MSTORE PUSH1 0x4 ADD PUSH2 0xEC0 SWAP1 PUSH2 0x2D9C JUMP JUMPDEST PUSH1 0x40 MLOAD DUP1 SWAP2 SUB SWAP1 REVERT JUMPDEST PUSH2 0xED5 DUP5 DUP5 DUP5 DUP5 PUSH2 0x1C04 JUMP JUMPDEST POP POP POP POP JUMP JUMPDEST PUSH1 0x60 PUSH2 0xEE6 DUP3 PUSH2 0x124B JUMP JUMPDEST PUSH1 0x0 PUSH2 0xEF0 PUSH2 0x1C60 JUMP JUMPDEST SWAP1 POP PUSH1 0x0 DUP2 MLOAD GT PUSH2 0xF10 JUMPI PUSH1 0x40 MLOAD DUP1 PUSH1 0x20 ADD PUSH1 0x40 MSTORE DUP1 PUSH1 0x0 DUP2 MSTORE POP PUSH2 0xF3B JUMP JUMPDEST DUP1 PUSH2 0xF1A DUP5 PUSH2 0x1C77 JUMP JUMPDEST PUSH1 0x40 MLOAD PUSH1 0x20 ADD PUSH2 0xF2B SWAP3 SWAP2 SWAP1 PUSH2 0x32D5 JUMP JUMPDEST PUSH1 0x40 MLOAD PUSH1 0x20 DUP2 DUP4 SUB SUB DUP2 MSTORE SWAP1 PUSH1 0x40 MSTORE JUMPDEST SWAP2 POP POP SWAP2 SWAP1 POP JUMP JUMPDEST PUSH1 0x0 PUSH1 0x5 PUSH1 0x0 DUP5 PUSH20 0xFFFFFFFFFFFFFFFFFFFFFFFFFFFFFFFFFFFFFFFF AND PUSH20 0xFFFFFFFFFFFFFFFFFFFFFFFFFFFFFFFFFFFFFFFF AND DUP2 MSTORE PUSH1 0x20 ADD SWAP1 DUP2 MSTORE PUSH1 0x20 ADD PUSH1 0x0 KECCAK256 PUSH1 0x0 DUP4 PUSH20 0xFFFFFFFFFFFFFFFFFFFFFFFFFFFFFFFFFFFFFFFF AND PUSH20 0xFFFFFFFFFFFFFFFFFFFFFFFFFFFFFFFFFFFFFFFF AND DUP2 MSTORE PUSH1 0x20 ADD SWAP1 DUP2 MSTORE PUSH1 0x20 ADD PUSH1 0x0 KECCAK256 PUSH1 0x0 SWAP1 SLOAD SWAP1 PUSH2 0x100 EXP SWAP1 DIV PUSH1 0xFF AND SWAP1 POP SWAP3 SWAP2 POP POP JUMP JUMPDEST PUSH2 0xFDF PUSH2 0x2404 JUMP JUMPDEST PUSH1 0x7 PUSH1 0x0 DUP4 PUSH20 0xFFFFFFFFFFFFFFFFFFFFFFFFFFFFFFFFFFFFFFFF AND PUSH20 0xFFFFFFFFFFFFFFFFFFFFFFFFFFFFFFFFFFFFFFFF AND DUP2 MSTORE PUSH1 0x20 ADD SWAP1 DUP2 MSTORE PUSH1 0x20 ADD PUSH1 0x0 KECCAK256 PUSH1 0x40 MLOAD DUP1 PUSH1 0x60 ADD PUSH1 0x40 MSTORE SWAP1 DUP2 PUSH1 0x0 DUP3 ADD DUP1 SLOAD PUSH2 0x1039 SWAP1 PUSH2 0x2BD5 JUMP JUMPDEST DUP1 PUSH1 0x1F ADD PUSH1 0x20 DUP1 SWAP2 DIV MUL PUSH1 0x20 ADD PUSH1 0x40 MLOAD SWAP1 DUP2 ADD PUSH1 0x40 MSTORE DUP1 SWAP3 SWAP2 SWAP1 DUP2 DUP2 MSTORE PUSH1 0x20 ADD DUP3 DUP1 SLOAD PUSH2 0x1065 SWAP1 PUSH2 0x2BD5 JUMP JUMPDEST DUP1 ISZERO PUSH2 0x10B2 JUMPI DUP1 PUSH1 0x1F LT PUSH2 0x1087 JUMPI PUSH2 0x100 DUP1 DUP4 SLOAD DIV MUL DUP4 MSTORE SWAP2 PUSH1 0x20 ADD SWAP2 PUSH2 0x10B2 JUMP JUMPDEST DUP3 ADD SWAP2 SWAP1 PUSH1 0x0 MSTORE PUSH1 0x20 PUSH1 0x0 KECCAK256 SWAP1 JUMPDEST DUP2 SLOAD DUP2 MSTORE SWAP1 PUSH1 0x1 ADD SWAP1 PUSH1 0x20 ADD DUP1 DUP4 GT PUSH2 0x1095 JUMPI DUP3 SWAP1 SUB PUSH1 0x1F AND DUP3 ADD SWAP2 JUMPDEST POP POP POP POP POP DUP2 MSTORE PUSH1 0x20 ADD PUSH1 0x1 DUP3 ADD DUP1 SLOAD PUSH2 0x10CB SWAP1 PUSH2 0x2BD5 JUMP JUMPDEST DUP1 PUSH1 0x1F ADD PUSH1 0x20 DUP1 SWAP2 DIV MUL PUSH1 0x20 ADD PUSH1 0x40 MLOAD SWAP1 DUP2 ADD PUSH1 0x40 MSTORE DUP1 SWAP3 SWAP2 SWAP1 DUP2 DUP2 MSTORE PUSH1 0x20 ADD DUP3 DUP1 SLOAD PUSH2 0x10F7 SWAP1 PUSH2 0x2BD5 JUMP JUMPDEST DUP1 ISZERO PUSH2 0x1144 JUMPI DUP1 PUSH1 0x1F LT PUSH2 0x1119 JUMPI PUSH2 0x100 DUP1 DUP4 SLOAD DIV MUL DUP4 MSTORE SWAP2 PUSH1 0x20 ADD SWAP2 PUSH2 0x1144 JUMP JUMPDEST DUP3 ADD SWAP2 SWAP1 PUSH1 0x0 MSTORE PUSH1 0x20 PUSH1 0x0 KECCAK256 SWAP1 JUMPDEST DUP2 SLOAD DUP2 MSTORE SWAP1 PUSH1 0x1 ADD SWAP1 PUSH1 0x20 ADD DUP1 DUP4 GT PUSH2 0x1127 JUMPI DUP3 SWAP1 SUB PUSH1 0x1F AND DUP3 ADD SWAP2 JUMPDEST POP POP POP POP POP DUP2 MSTORE PUSH1 0x20 ADD PUSH1 0x2 DUP3 ADD SLOAD DUP2 MSTORE POP POP SWAP1 POP SWAP2 SWAP1 POP JUMP JUMPDEST PUSH2 0x1166 PUSH2 0x16E5 JUMP JUMPDEST PUSH1 0x0 PUSH20 0xFFFFFFFFFFFFFFFFFFFFFFFFFFFFFFFFFFFFFFFF AND DUP2 PUSH20 0xFFFFFFFFFFFFFFFFFFFFFFFFFFFFFFFFFFFFFFFF AND SUB PUSH2 0x11D5 JUMPI PUSH1 0x40 MLOAD PUSH32 0x8C379A000000000000000000000000000000000000000000000000000000000 DUP2 MSTORE PUSH1 0x4 ADD PUSH2 0x11CC SWAP1 PUSH2 0x336B JUMP JUMPDEST PUSH1 0x40 MLOAD DUP1 SWAP2 SUB SWAP1 REVERT JUMPDEST PUSH2 0x11DE DUP2 PUSH2 0x1951 JUMP JUMPDEST POP JUMP JUMPDEST PUSH1 0x0 PUSH32 0x1FFC9A700000000000000000000000000000000000000000000000000000000 PUSH28 0xFFFFFFFFFFFFFFFFFFFFFFFFFFFFFFFFFFFFFFFFFFFFFFFFFFFFFFFF NOT AND DUP3 PUSH28 0xFFFFFFFFFFFFFFFFFFFFFFFFFFFFFFFFFFFFFFFFFFFFFFFFFFFFFFFF NOT AND EQ SWAP1 POP SWAP2 SWAP1 POP JUMP JUMPDEST PUSH2 0x1254 DUP2 PUSH2 0x1D45 JUMP JUMPDEST PUSH2 0x1293 JUMPI PUSH1 0x40 MLOAD PUSH32 0x8C379A000000000000000000000000000000000000000000000000000000000 DUP2 MSTORE PUSH1 0x4 ADD PUSH2 0x128A SWAP1 PUSH2 0x3086 JUMP JUMPDEST PUSH1 0x40 MLOAD DUP1 SWAP2 SUB SWAP1 REVERT JUMPDEST POP JUMP JUMPDEST PUSH1 0x0 CALLER SWAP1 POP SWAP1 JUMP JUMPDEST DUP2 PUSH1 0x4 PUSH1 0x0 DUP4 DUP2 MSTORE PUSH1 0x20 ADD SWAP1 DUP2 MSTORE PUSH1 0x20 ADD PUSH1 0x0 KECCAK256 PUSH1 0x0 PUSH2 0x100 EXP DUP2 SLOAD DUP2 PUSH20 0xFFFFFFFFFFFFFFFFFFFFFFFFFFFFFFFFFFFFFFFF MUL NOT AND SWAP1 DUP4 PUSH20 0xFFFFFFFFFFFFFFFFFFFFFFFFFFFFFFFFFFFFFFFF AND MUL OR SWAP1 SSTORE POP DUP1 DUP3 PUSH20 0xFFFFFFFFFFFFFFFFFFFFFFFFFFFFFFFFFFFFFFFF AND PUSH2 0x1311 DUP4 PUSH2 0x9C3 JUMP JUMPDEST PUSH20 0xFFFFFFFFFFFFFFFFFFFFFFFFFFFFFFFFFFFFFFFF AND PUSH32 0x8C5BE1E5EBEC7D5BD14F71427D1E84F3DD0314C0F7B2291E5B200AC8C7C3B925 PUSH1 0x40 MLOAD PUSH1 0x40 MLOAD DUP1 SWAP2 SUB SWAP1 LOG4 POP POP JUMP JUMPDEST PUSH1 0x0 DUP1 PUSH2 0x1363 DUP4 PUSH2 0x9C3 JUMP JUMPDEST SWAP1 POP DUP1 PUSH20 0xFFFFFFFFFFFFFFFFFFFFFFFFFFFFFFFFFFFFFFFF AND DUP5 PUSH20 0xFFFFFFFFFFFFFFFFFFFFFFFFFFFFFFFFFFFFFFFF AND EQ DUP1 PUSH2 0x13A5 JUMPI POP PUSH2 0x13A4 DUP2 DUP6 PUSH2 0xF43 JUMP JUMPDEST JUMPDEST DUP1 PUSH2 0x13E3 JUMPI POP DUP4 PUSH20 0xFFFFFFFFFFFFFFFFFFFFFFFFFFFFFFFFFFFFFFFF AND PUSH2 0x13CB DUP5 PUSH2 0x5CF JUMP JUMPDEST PUSH20 0xFFFFFFFFFFFFFFFFFFFFFFFFFFFFFFFFFFFFFFFF AND EQ JUMPDEST SWAP2 POP POP SWAP3 SWAP2 POP POP JUMP JUMPDEST DUP3 PUSH20 0xFFFFFFFFFFFFFFFFFFFFFFFFFFFFFFFFFFFFFFFF AND PUSH2 0x140C DUP3 PUSH2 0x9C3 JUMP JUMPDEST PUSH20 0xFFFFFFFFFFFFFFFFFFFFFFFFFFFFFFFFFFFFFFFF AND EQ PUSH2 0x1462 JUMPI PUSH1 0x40 MLOAD PUSH32 0x8C379A000000000000000000000000000000000000000000000000000000000 DUP2 MSTORE PUSH1 0x4 ADD PUSH2 0x1459 SWAP1 PUSH2 0x33FD JUMP JUMPDEST PUSH1 0x40 MLOAD DUP1 SWAP2 SUB SWAP1 REVERT JUMPDEST PUSH1 0x0 PUSH20 0xFFFFFFFFFFFFFFFFFFFFFFFFFFFFFFFFFFFFFFFF AND DUP3 PUSH20 0xFFFFFFFFFFFFFFFFFFFFFFFFFFFFFFFFFFFFFFFF AND SUB PUSH2 0x14D1 JUMPI PUSH1 0x40 MLOAD PUSH32 0x8C379A000000000000000000000000000000000000000000000000000000000 DUP2 MSTORE PUSH1 0x4 ADD PUSH2 0x14C8 SWAP1 PUSH2 0x348F JUMP JUMPDEST PUSH1 0x40 MLOAD DUP1 SWAP2 SUB SWAP1 REVERT JUMPDEST PUSH2 0x14DE DUP4 DUP4 DUP4 PUSH1 0x1 PUSH2 0x1D86 JUMP JUMPDEST DUP3 PUSH20 0xFFFFFFFFFFFFFFFFFFFFFFFFFFFFFFFFFFFFFFFF AND PUSH2 0x14FE DUP3 PUSH2 0x9C3 JUMP JUMPDEST PUSH20 0xFFFFFFFFFFFFFFFFFFFFFFFFFFFFFFFFFFFFFFFF AND EQ PUSH2 0x1554 JUMPI PUSH1 0x40 MLOAD PUSH32 0x8C379A000000000000000000000000000000000000000000000000000000000 DUP2 MSTORE PUSH1 0x4 ADD PUSH2 0x154B SWAP1 PUSH2 0x33FD JUMP JUMPDEST PUSH1 0x40 MLOAD DUP1 SWAP2 SUB SWAP1 REVERT JUMPDEST PUSH1 0x4 PUSH1 0x0 DUP3 DUP2 MSTORE PUSH1 0x20 ADD SWAP1 DUP2 MSTORE PUSH1 0x20 ADD PUSH1 0x0 KECCAK256 PUSH1 0x0 PUSH2 0x100 EXP DUP2 SLOAD SWAP1 PUSH20 0xFFFFFFFFFFFFFFFFFFFFFFFFFFFFFFFFFFFFFFFF MUL NOT AND SWAP1 SSTORE PUSH1 0x1 PUSH1 0x3 PUSH1 0x0 DUP6 PUSH20 0xFFFFFFFFFFFFFFFFFFFFFFFFFFFFFFFFFFFFFFFF AND PUSH20 0xFFFFFFFFFFFFFFFFFFFFFFFFFFFFFFFFFFFFFFFF AND DUP2 MSTORE PUSH1 0x20 ADD SWAP1 DUP2 MSTORE PUSH1 0x20 ADD PUSH1 0x0 KECCAK256 PUSH1 0x0 DUP3 DUP3 SLOAD SUB SWAP3 POP POP DUP2 SWAP1 SSTORE POP PUSH1 0x1 PUSH1 0x3 PUSH1 0x0 DUP5 PUSH20 0xFFFFFFFFFFFFFFFFFFFFFFFFFFFFFFFFFFFFFFFF AND PUSH20 0xFFFFFFFFFFFFFFFFFFFFFFFFFFFFFFFFFFFFFFFF AND DUP2 MSTORE PUSH1 0x20 ADD SWAP1 DUP2 MSTORE PUSH1 0x20 ADD PUSH1 0x0 KECCAK256 PUSH1 0x0 DUP3 DUP3 SLOAD ADD SWAP3 POP POP DUP2 SWAP1 SSTORE POP DUP2 PUSH1 0x2 PUSH1 0x0 DUP4 DUP2 MSTORE PUSH1 0x20 ADD SWAP1 DUP2 MSTORE PUSH1 0x20 ADD PUSH1 0x0 KECCAK256 PUSH1 0x0 PUSH2 0x100 EXP DUP2 SLOAD DUP2 PUSH20 0xFFFFFFFFFFFFFFFFFFFFFFFFFFFFFFFFFFFFFFFF MUL NOT AND SWAP1 DUP4 PUSH20 0xFFFFFFFFFFFFFFFFFFFFFFFFFFFFFFFFFFFFFFFF AND MUL OR SWAP1 SSTORE POP DUP1 DUP3 PUSH20 0xFFFFFFFFFFFFFFFFFFFFFFFFFFFFFFFFFFFFFFFF AND DUP5 PUSH20 0xFFFFFFFFFFFFFFFFFFFFFFFFFFFFFFFFFFFFFFFF AND PUSH32 0xDDF252AD1BE2C89B69C2B068FC378DAA952BA7F163C4A11628F55A4DF523B3EF PUSH1 0x40 MLOAD PUSH1 0x40 MLOAD DUP1 SWAP2 SUB SWAP1 LOG4 PUSH2 0x16E0 DUP4 DUP4 DUP4 PUSH1 0x1 PUSH2 0x1DF0 JUMP JUMPDEST POP POP POP JUMP JUMPDEST PUSH2 0x16ED PUSH2 0x1296 JUMP JUMPDEST PUSH20 0xFFFFFFFFFFFFFFFFFFFFFFFFFFFFFFFFFFFFFFFF AND PUSH2 0x170B PUSH2 0xD91 JUMP JUMPDEST PUSH20 0xFFFFFFFFFFFFFFFFFFFFFFFFFFFFFFFFFFFFFFFF AND EQ PUSH2 0x1761 JUMPI PUSH1 0x40 MLOAD PUSH32 0x8C379A000000000000000000000000000000000000000000000000000000000 DUP2 MSTORE PUSH1 0x4 ADD PUSH2 0x1758 SWAP1 PUSH2 0x34FB JUMP JUMPDEST PUSH1 0x40 MLOAD DUP1 SWAP2 SUB SWAP1 REVERT JUMPDEST JUMP JUMPDEST PUSH1 0x0 PUSH2 0x176E DUP3 PUSH2 0x9C3 JUMP JUMPDEST SWAP1 POP PUSH2 0x177E DUP2 PUSH1 0x0 DUP5 PUSH1 0x1 PUSH2 0x1D86 JUMP JUMPDEST PUSH2 0x1787 DUP3 PUSH2 0x9C3 JUMP JUMPDEST SWAP1 POP PUSH1 0x4 PUSH1 0x0 DUP4 DUP2 MSTORE PUSH1 0x20 ADD SWAP1 DUP2 MSTORE PUSH1 0x20 ADD PUSH1 0x0 KECCAK256 PUSH1 0x0 PUSH2 0x100 EXP DUP2 SLOAD SWAP1 PUSH20 0xFFFFFFFFFFFFFFFFFFFFFFFFFFFFFFFFFFFFFFFF MUL NOT AND SWAP1 SSTORE PUSH1 0x1 PUSH1 0x3 PUSH1 0x0 DUP4 PUSH20 0xFFFFFFFFFFFFFFFFFFFFFFFFFFFFFFFFFFFFFFFF AND PUSH20 0xFFFFFFFFFFFFFFFFFFFFFFFFFFFFFFFFFFFFFFFF AND DUP2 MSTORE PUSH1 0x20 ADD SWAP1 DUP2 MSTORE PUSH1 0x20 ADD PUSH1 0x0 KECCAK256 PUSH1 0x0 DUP3 DUP3 SLOAD SUB SWAP3 POP POP DUP2 SWAP1 SSTORE POP PUSH1 0x2 PUSH1 0x0 DUP4 DUP2 MSTORE PUSH1 0x20 ADD SWAP1 DUP2 MSTORE PUSH1 0x20 ADD PUSH1 0x0 KECCAK256 PUSH1 0x0 PUSH2 0x100 EXP DUP2 SLOAD SWAP1 PUSH20 0xFFFFFFFFFFFFFFFFFFFFFFFFFFFFFFFFFFFFFFFF MUL NOT AND SWAP1 SSTORE DUP2 PUSH1 0x0 PUSH20 0xFFFFFFFFFFFFFFFFFFFFFFFFFFFFFFFFFFFFFFFF AND DUP3 PUSH20 0xFFFFFFFFFFFFFFFFFFFFFFFFFFFFFFFFFFFFFFFF AND PUSH32 0xDDF252AD1BE2C89B69C2B068FC378DAA952BA7F163C4A11628F55A4DF523B3EF PUSH1 0x40 MLOAD PUSH1 0x40 MLOAD DUP1 SWAP2 SUB SWAP1 LOG4 PUSH2 0x18AD DUP2 PUSH1 0x0 DUP5 PUSH1 0x1 PUSH2 0x1DF0 JUMP JUMPDEST POP POP JUMP JUMPDEST PUSH2 0x18B9 PUSH2 0x1DF6 JUMP JUMPDEST PUSH1 0x0 PUSH1 0x6 PUSH1 0x0 PUSH2 0x100 EXP DUP2 SLOAD DUP2 PUSH1 0xFF MUL NOT AND SWAP1 DUP4 ISZERO ISZERO MUL OR SWAP1 SSTORE POP PUSH32 0x5DB9EE0A495BF2E6FF9C91A7834C1BA4FDD244A5E8AA4E537BD38AEAE4B073AA PUSH2 0x18FD PUSH2 0x1296 JUMP JUMPDEST PUSH1 0x40 MLOAD PUSH2 0x190A SWAP2 SWAP1 PUSH2 0x264A JUMP JUMPDEST PUSH1 0x40 MLOAD DUP1 SWAP2 SUB SWAP1 LOG1 JUMP JUMPDEST PUSH1 0x0 PUSH1 0x2 PUSH1 0x0 DUP4 DUP2 MSTORE PUSH1 0x20 ADD SWAP1 DUP2 MSTORE PUSH1 0x20 ADD PUSH1 0x0 KECCAK256 PUSH1 0x0 SWAP1 SLOAD SWAP1 PUSH2 0x100 EXP SWAP1 DIV PUSH20 0xFFFFFFFFFFFFFFFFFFFFFFFFFFFFFFFFFFFFFFFF AND SWAP1 POP SWAP2 SWAP1 POP JUMP JUMPDEST PUSH1 0x0 PUSH1 0x6 PUSH1 0x1 SWAP1 SLOAD SWAP1 PUSH2 0x100 EXP SWAP1 DIV PUSH20 0xFFFFFFFFFFFFFFFFFFFFFFFFFFFFFFFFFFFFFFFF AND SWAP1 POP DUP2 PUSH1 0x6 PUSH1 0x1 PUSH2 0x100 EXP DUP2 SLOAD DUP2 PUSH20 0xFFFFFFFFFFFFFFFFFFFFFFFFFFFFFFFFFFFFFFFF MUL NOT AND SWAP1 DUP4 PUSH20 0xFFFFFFFFFFFFFFFFFFFFFFFFFFFFFFFFFFFFFFFF AND MUL OR SWAP1 SSTORE POP DUP2 PUSH20 0xFFFFFFFFFFFFFFFFFFFFFFFFFFFFFFFFFFFFFFFF AND DUP2 PUSH20 0xFFFFFFFFFFFFFFFFFFFFFFFFFFFFFFFFFFFFFFFF AND PUSH32 0x8BE0079C531659141344CD1FD0A4F28419497F9722A3DAAFE3B4186F6B6457E0 PUSH1 0x40 MLOAD PUSH1 0x40 MLOAD DUP1 SWAP2 SUB SWAP1 LOG3 POP POP JUMP JUMPDEST PUSH2 0x1A1F PUSH2 0x1E3F JUMP JUMPDEST PUSH1 0x1 PUSH1 0x6 PUSH1 0x0 PUSH2 0x100 EXP DUP2 SLOAD DUP2 PUSH1 0xFF MUL NOT AND SWAP1 DUP4 ISZERO ISZERO MUL OR SWAP1 SSTORE POP PUSH32 0x62E78CEA01BEE320CD4E420270B5EA74000D11B0C9F74754EBDBFC544B05A258 PUSH2 0x1A63 PUSH2 0x1296 JUMP JUMPDEST PUSH1 0x40 MLOAD PUSH2 0x1A70 SWAP2 SWAP1 PUSH2 0x264A JUMP JUMPDEST PUSH1 0x40 MLOAD DUP1 SWAP2 SUB SWAP1 LOG1 JUMP JUMPDEST PUSH2 0x1A94 DUP3 DUP3 PUSH1 0x40 MLOAD DUP1 PUSH1 0x20 ADD PUSH1 0x40 MSTORE DUP1 PUSH1 0x0 DUP2 MSTORE POP PUSH2 0x1E89 JUMP JUMPDEST POP POP JUMP JUMPDEST DUP2 PUSH20 0xFFFFFFFFFFFFFFFFFFFFFFFFFFFFFFFFFFFFFFFF AND DUP4 PUSH20 0xFFFFFFFFFFFFFFFFFFFFFFFFFFFFFFFFFFFFFFFF AND SUB PUSH2 0x1B06 JUMPI PUSH1 0x40 MLOAD PUSH32 0x8C379A000000000000000000000000000000000000000000000000000000000 DUP2 MSTORE PUSH1 0x4 ADD PUSH2 0x1AFD SWAP1 PUSH2 0x3567 JUMP JUMPDEST PUSH1 0x40 MLOAD DUP1 SWAP2 SUB SWAP1 REVERT JUMPDEST DUP1 PUSH1 0x5 PUSH1 0x0 DUP6 PUSH20 0xFFFFFFFFFFFFFFFFFFFFFFFFFFFFFFFFFFFFFFFF AND PUSH20 0xFFFFFFFFFFFFFFFFFFFFFFFFFFFFFFFFFFFFFFFF AND DUP2 MSTORE PUSH1 0x20 ADD SWAP1 DUP2 MSTORE PUSH1 0x20 ADD PUSH1 0x0 KECCAK256 PUSH1 0x0 DUP5 PUSH20 0xFFFFFFFFFFFFFFFFFFFFFFFFFFFFFFFFFFFFFFFF AND PUSH20 0xFFFFFFFFFFFFFFFFFFFFFFFFFFFFFFFFFFFFFFFF AND DUP2 MSTORE PUSH1 0x20 ADD SWAP1 DUP2 MSTORE PUSH1 0x20 ADD PUSH1 0x0 KECCAK256 PUSH1 0x0 PUSH2 0x100 EXP DUP2 SLOAD DUP2 PUSH1 0xFF MUL NOT AND SWAP1 DUP4 ISZERO ISZERO MUL OR SWAP1 SSTORE POP DUP2 PUSH20 0xFFFFFFFFFFFFFFFFFFFFFFFFFFFFFFFFFFFFFFFF AND DUP4 PUSH20 0xFFFFFFFFFFFFFFFFFFFFFFFFFFFFFFFFFFFFFFFF AND PUSH32 0x17307EAB39AB6107E8899845AD3D59BD9653F200F220920489CA2B5937696C31 DUP4 PUSH1 0x40 MLOAD PUSH2 0x1BF7 SWAP2 SWAP1 PUSH2 0x24D9 JUMP JUMPDEST PUSH1 0x40 MLOAD DUP1 SWAP2 SUB SWAP1 LOG3 POP POP POP JUMP JUMPDEST PUSH2 0x1C0F DUP5 DUP5 DUP5 PUSH2 0x13EC JUMP JUMPDEST PUSH2 0x1C1B DUP5 DUP5 DUP5 DUP5 PUSH2 0x1EE4 JUMP JUMPDEST PUSH2 0x1C5A JUMPI PUSH1 0x40 MLOAD PUSH32 0x8C379A000000000000000000000000000000000000000000000000000000000 DUP2 MSTORE PUSH1 0x4 ADD PUSH2 0x1C51 SWAP1 PUSH2 0x35F9 JUMP JUMPDEST PUSH1 0x40 MLOAD DUP1 SWAP2 SUB SWAP1 REVERT JUMPDEST POP POP POP POP JUMP JUMPDEST PUSH1 0x60 PUSH1 0x40 MLOAD DUP1 PUSH1 0x20 ADD PUSH1 0x40 MSTORE DUP1 PUSH1 0x0 DUP2 MSTORE POP SWAP1 POP SWAP1 JUMP JUMPDEST PUSH1 0x60 PUSH1 0x0 PUSH1 0x1 PUSH2 0x1C86 DUP5 PUSH2 0x206B JUMP JUMPDEST ADD SWAP1 POP PUSH1 0x0 DUP2 PUSH8 0xFFFFFFFFFFFFFFFF DUP2 GT ISZERO PUSH2 0x1CA5 JUMPI PUSH2 0x1CA4 PUSH2 0x28E6 JUMP JUMPDEST JUMPDEST PUSH1 0x40 MLOAD SWAP1 DUP1 DUP3 MSTORE DUP1 PUSH1 0x1F ADD PUSH1 0x1F NOT AND PUSH1 0x20 ADD DUP3 ADD PUSH1 0x40 MSTORE DUP1 ISZERO PUSH2 0x1CD7 JUMPI DUP2 PUSH1 0x20 ADD PUSH1 0x1 DUP3 MUL DUP1 CALLDATASIZE DUP4 CALLDATACOPY DUP1 DUP3 ADD SWAP2 POP POP SWAP1 POP JUMPDEST POP SWAP1 POP PUSH1 0x0 DUP3 PUSH1 0x20 ADD DUP3 ADD SWAP1 POP JUMPDEST PUSH1 0x1 ISZERO PUSH2 0x1D3A JUMPI DUP1 DUP1 PUSH1 0x1 SWAP1 SUB SWAP2 POP POP PUSH32 0x3031323334353637383961626364656600000000000000000000000000000000 PUSH1 0xA DUP7 MOD BYTE DUP2 MSTORE8 PUSH1 0xA DUP6 DUP2 PUSH2 0x1D2E JUMPI PUSH2 0x1D2D PUSH2 0x3619 JUMP JUMPDEST JUMPDEST DIV SWAP5 POP PUSH1 0x0 DUP6 SUB PUSH2 0x1CE5 JUMPI JUMPDEST DUP2 SWAP4 POP POP POP POP SWAP2 SWAP1 POP JUMP JUMPDEST PUSH1 0x0 DUP1 PUSH20 0xFFFFFFFFFFFFFFFFFFFFFFFFFFFFFFFFFFFFFFFF AND PUSH2 0x1D67 DUP4 PUSH2 0x1914 JUMP JUMPDEST PUSH20 0xFFFFFFFFFFFFFFFFFFFFFFFFFFFFFFFFFFFFFFFF AND EQ ISZERO SWAP1 POP SWAP2 SWAP1 POP JUMP JUMPDEST PUSH2 0x1D8E PUSH2 0x1E3F JUMP JUMPDEST PUSH1 0x9 PUSH1 0x0 SWAP1 SLOAD SWAP1 PUSH2 0x100 EXP SWAP1 DIV PUSH1 0xFF AND ISZERO PUSH2 0x1DDE JUMPI PUSH1 0x40 MLOAD PUSH32 0x8C379A000000000000000000000000000000000000000000000000000000000 DUP2 MSTORE PUSH1 0x4 ADD PUSH2 0x1DD5 SWAP1 PUSH2 0x3694 JUMP JUMPDEST PUSH1 0x40 MLOAD DUP1 SWAP2 SUB SWAP1 REVERT JUMPDEST PUSH2 0x1DEA DUP5 DUP5 DUP5 DUP5 PUSH2 0x21BE JUMP JUMPDEST POP POP POP POP JUMP JUMPDEST POP POP POP POP JUMP JUMPDEST PUSH2 0x1DFE PUSH2 0x9AC JUMP JUMPDEST PUSH2 0x1E3D JUMPI PUSH1 0x40 MLOAD PUSH32 0x8C379A000000000000000000000000000000000000000000000000000000000 DUP2 MSTORE PUSH1 0x4 ADD PUSH2 0x1E34 SWAP1 PUSH2 0x3700 JUMP JUMPDEST PUSH1 0x40 MLOAD DUP1 SWAP2 SUB SWAP1 REVERT JUMPDEST JUMP JUMPDEST PUSH2 0x1E47 PUSH2 0x9AC JUMP JUMPDEST ISZERO PUSH2 0x1E87 JUMPI PUSH1 0x40 MLOAD PUSH32 0x8C379A000000000000000000000000000000000000000000000000000000000 DUP2 MSTORE PUSH1 0x4 ADD PUSH2 0x1E7E SWAP1 PUSH2 0x376C JUMP JUMPDEST PUSH1 0x40 MLOAD DUP1 SWAP2 SUB SWAP1 REVERT JUMPDEST JUMP JUMPDEST PUSH2 0x1E93 DUP4 DUP4 PUSH2 0x21C4 JUMP JUMPDEST PUSH2 0x1EA0 PUSH1 0x0 DUP5 DUP5 DUP5 PUSH2 0x1EE4 JUMP JUMPDEST PUSH2 0x1EDF JUMPI PUSH1 0x40 MLOAD PUSH32 0x8C379A000000000000000000000000000000000000000000000000000000000 DUP2 MSTORE PUSH1 0x4 ADD PUSH2 0x1ED6 SWAP1 PUSH2 0x35F9 JUMP JUMPDEST PUSH1 0x40 MLOAD DUP1 SWAP2 SUB SWAP1 REVERT JUMPDEST POP POP POP JUMP JUMPDEST PUSH1 0x0 PUSH2 0x1F05 DUP5 PUSH20 0xFFFFFFFFFFFFFFFFFFFFFFFFFFFFFFFFFFFFFFFF AND PUSH2 0x23E1 JUMP JUMPDEST ISZERO PUSH2 0x205E JUMPI DUP4 PUSH20 0xFFFFFFFFFFFFFFFFFFFFFFFFFFFFFFFFFFFFFFFF AND PUSH4 0x150B7A02 PUSH2 0x1F2E PUSH2 0x1296 JUMP JUMPDEST DUP8 DUP7 DUP7 PUSH1 0x40 MLOAD DUP6 PUSH4 0xFFFFFFFF AND PUSH1 0xE0 SHL DUP2 MSTORE PUSH1 0x4 ADD PUSH2 0x1F50 SWAP5 SWAP4 SWAP3 SWAP2 SWAP1 PUSH2 0x37E1 JUMP JUMPDEST PUSH1 0x20 PUSH1 0x40 MLOAD DUP1 DUP4 SUB DUP2 PUSH1 0x0 DUP8 GAS CALL SWAP3 POP POP POP DUP1 ISZERO PUSH2 0x1F8C JUMPI POP PUSH1 0x40 MLOAD RETURNDATASIZE PUSH1 0x1F NOT PUSH1 0x1F DUP3 ADD AND DUP3 ADD DUP1 PUSH1 0x40 MSTORE POP DUP2 ADD SWAP1 PUSH2 0x1F89 SWAP2 SWAP1 PUSH2 0x3842 JUMP JUMPDEST PUSH1 0x1 JUMPDEST PUSH2 0x200E JUMPI RETURNDATASIZE DUP1 PUSH1 0x0 DUP2 EQ PUSH2 0x1FBC JUMPI PUSH1 0x40 MLOAD SWAP2 POP PUSH1 0x1F NOT PUSH1 0x3F RETURNDATASIZE ADD AND DUP3 ADD PUSH1 0x40 MSTORE RETURNDATASIZE DUP3 MSTORE RETURNDATASIZE PUSH1 0x0 PUSH1 0x20 DUP5 ADD RETURNDATACOPY PUSH2 0x1FC1 JUMP JUMPDEST PUSH1 0x60 SWAP2 POP JUMPDEST POP PUSH1 0x0 DUP2 MLOAD SUB PUSH2 0x2006 JUMPI PUSH1 0x40 MLOAD PUSH32 0x8C379A000000000000000000000000000000000000000000000000000000000 DUP2 MSTORE PUSH1 0x4 ADD PUSH2 0x1FFD SWAP1 PUSH2 0x35F9 JUMP JUMPDEST PUSH1 0x40 MLOAD DUP1 SWAP2 SUB SWAP1 REVERT JUMPDEST DUP1 MLOAD DUP2 PUSH1 0x20 ADD REVERT JUMPDEST PUSH4 0x150B7A02 PUSH1 0xE0 SHL PUSH28 0xFFFFFFFFFFFFFFFFFFFFFFFFFFFFFFFFFFFFFFFFFFFFFFFFFFFFFFFF NOT AND DUP2 PUSH28 0xFFFFFFFFFFFFFFFFFFFFFFFFFFFFFFFFFFFFFFFFFFFFFFFFFFFFFFFF NOT AND EQ SWAP2 POP POP PUSH2 0x2063 JUMP JUMPDEST PUSH1 0x1 SWAP1 POP JUMPDEST SWAP5 SWAP4 POP POP POP POP JUMP JUMPDEST PUSH1 0x0 DUP1 PUSH1 0x0 SWAP1 POP PUSH27 0x184F03E93FF9F4DAA797ED6E38ED64BF6A1F010000000000000000 DUP4 LT PUSH2 0x20C9 JUMPI PUSH27 0x184F03E93FF9F4DAA797ED6E38ED64BF6A1F010000000000000000 DUP4 DUP2 PUSH2 0x20BF JUMPI PUSH2 0x20BE PUSH2 0x3619 JUMP JUMPDEST JUMPDEST DIV SWAP3 POP PUSH1 0x40 DUP2 ADD SWAP1 POP JUMPDEST PUSH14 0x4EE2D6D415B85ACEF8100000000 DUP4 LT PUSH2 0x2106 JUMPI PUSH14 0x4EE2D6D415B85ACEF8100000000 DUP4 DUP2 PUSH2 0x20FC JUMPI PUSH2 0x20FB PUSH2 0x3619 JUMP JUMPDEST JUMPDEST DIV SWAP3 POP PUSH1 0x20 DUP2 ADD SWAP1 POP JUMPDEST PUSH7 0x2386F26FC10000 DUP4 LT PUSH2 0x2135 JUMPI PUSH7 0x2386F26FC10000 DUP4 DUP2 PUSH2 0x212B JUMPI PUSH2 0x212A PUSH2 0x3619 JUMP JUMPDEST JUMPDEST DIV SWAP3 POP PUSH1 0x10 DUP2 ADD SWAP1 POP JUMPDEST PUSH4 0x5F5E100 DUP4 LT PUSH2 0x215E JUMPI PUSH4 0x5F5E100 DUP4 DUP2 PUSH2 0x2154 JUMPI PUSH2 0x2153 PUSH2 0x3619 JUMP JUMPDEST JUMPDEST DIV SWAP3 POP PUSH1 0x8 DUP2 ADD SWAP1 POP JUMPDEST PUSH2 0x2710 DUP4 LT PUSH2 0x2183 JUMPI PUSH2 0x2710 DUP4 DUP2 PUSH2 0x2179 JUMPI PUSH2 0x2178 PUSH2 0x3619 JUMP JUMPDEST JUMPDEST DIV SWAP3 POP PUSH1 0x4 DUP2 ADD SWAP1 POP JUMPDEST PUSH1 0x64 DUP4 LT PUSH2 0x21A6 JUMPI PUSH1 0x64 DUP4 DUP2 PUSH2 0x219C JUMPI PUSH2 0x219B PUSH2 0x3619 JUMP JUMPDEST JUMPDEST DIV SWAP3 POP PUSH1 0x2 DUP2 ADD SWAP1 POP JUMPDEST PUSH1 0xA DUP4 LT PUSH2 0x21B5 JUMPI PUSH1 0x1 DUP2 ADD SWAP1 POP JUMPDEST DUP1 SWAP2 POP POP SWAP2 SWAP1 POP JUMP JUMPDEST POP POP POP POP JUMP JUMPDEST PUSH1 0x0 PUSH20 0xFFFFFFFFFFFFFFFFFFFFFFFFFFFFFFFFFFFFFFFF AND DUP3 PUSH20 0xFFFFFFFFFFFFFFFFFFFFFFFFFFFFFFFFFFFFFFFF AND SUB PUSH2 0x2233 JUMPI PUSH1 0x40 MLOAD PUSH32 0x8C379A000000000000000000000000000000000000000000000000000000000 DUP2 MSTORE PUSH1 0x4 ADD PUSH2 0x222A SWAP1 PUSH2 0x38BB JUMP JUMPDEST PUSH1 0x40 MLOAD DUP1 SWAP2 SUB SWAP1 REVERT JUMPDEST PUSH2 0x223C DUP2 PUSH2 0x1D45 JUMP JUMPDEST ISZERO PUSH2 0x227C JUMPI PUSH1 0x40 MLOAD PUSH32 0x8C379A000000000000000000000000000000000000000000000000000000000 DUP2 MSTORE PUSH1 0x4 ADD PUSH2 0x2273 SWAP1 PUSH2 0x3927 JUMP JUMPDEST PUSH1 0x40 MLOAD DUP1 SWAP2 SUB SWAP1 REVERT JUMPDEST PUSH2 0x228A PUSH1 0x0 DUP4 DUP4 PUSH1 0x1 PUSH2 0x1D86 JUMP JUMPDEST PUSH2 0x2293 DUP2 PUSH2 0x1D45 JUMP JUMPDEST ISZERO PUSH2 0x22D3 JUMPI PUSH1 0x40 MLOAD PUSH32 0x8C379A000000000000000000000000000000000000000000000000000000000 DUP2 MSTORE PUSH1 0x4 ADD PUSH2 0x22CA SWAP1 PUSH2 0x3927 JUMP JUMPDEST PUSH1 0x40 MLOAD DUP1 SWAP2 SUB SWAP1 REVERT JUMPDEST PUSH1 0x1 PUSH1 0x3 PUSH1 0x0 DUP5 PUSH20 0xFFFFFFFFFFFFFFFFFFFFFFFFFFFFFFFFFFFFFFFF AND PUSH20 0xFFFFFFFFFFFFFFFFFFFFFFFFFFFFFFFFFFFFFFFF AND DUP2 MSTORE PUSH1 0x20 ADD SWAP1 DUP2 MSTORE PUSH1 0x20 ADD PUSH1 0x0 KECCAK256 PUSH1 0x0 DUP3 DUP3 SLOAD ADD SWAP3 POP POP DUP2 SWAP1 SSTORE POP DUP2 PUSH1 0x2 PUSH1 0x0 DUP4 DUP2 MSTORE PUSH1 0x20 ADD SWAP1 DUP2 MSTORE PUSH1 0x20 ADD PUSH1 0x0 KECCAK256 PUSH1 0x0 PUSH2 0x100 EXP DUP2 SLOAD DUP2 PUSH20 0xFFFFFFFFFFFFFFFFFFFFFFFFFFFFFFFFFFFFFFFF MUL NOT AND SWAP1 DUP4 PUSH20 0xFFFFFFFFFFFFFFFFFFFFFFFFFFFFFFFFFFFFFFFF AND MUL OR SWAP1 SSTORE POP DUP1 DUP3 PUSH20 0xFFFFFFFFFFFFFFFFFFFFFFFFFFFFFFFFFFFFFFFF AND PUSH1 0x0 PUSH20 0xFFFFFFFFFFFFFFFFFFFFFFFFFFFFFFFFFFFFFFFF AND PUSH32 0xDDF252AD1BE2C89B69C2B068FC378DAA952BA7F163C4A11628F55A4DF523B3EF PUSH1 0x40 MLOAD PUSH1 0x40 MLOAD DUP1 SWAP2 SUB SWAP1 LOG4 PUSH2 0x23DD PUSH1 0x0 DUP4 DUP4 PUSH1 0x1 PUSH2 0x1DF0 JUMP JUMPDEST POP POP JUMP JUMPDEST PUSH1 0x0 DUP1 DUP3 PUSH20 0xFFFFFFFFFFFFFFFFFFFFFFFFFFFFFFFFFFFFFFFF AND EXTCODESIZE GT SWAP1 POP SWAP2 SWAP1 POP JUMP JUMPDEST PUSH1 0x40 MLOAD DUP1 PUSH1 0x60 ADD PUSH1 0x40 MSTORE DUP1 PUSH1 0x60 DUP2 MSTORE PUSH1 0x20 ADD PUSH1 0x60 DUP2 MSTORE PUSH1 0x20 ADD PUSH1 0x0 DUP2 MSTORE POP SWAP1 JUMP JUMPDEST PUSH1 0x0 PUSH1 0x40 MLOAD SWAP1 POP SWAP1 JUMP JUMPDEST PUSH1 0x0 DUP1 REVERT JUMPDEST PUSH1 0x0 DUP1 REVERT JUMPDEST PUSH1 0x0 PUSH32 0xFFFFFFFF00000000000000000000000000000000000000000000000000000000 DUP3 AND SWAP1 POP SWAP2 SWAP1 POP JUMP JUMPDEST PUSH2 0x246E DUP2 PUSH2 0x2439 JUMP JUMPDEST DUP2 EQ PUSH2 0x2479 JUMPI PUSH1 0x0 DUP1 REVERT JUMPDEST POP JUMP JUMPDEST PUSH1 0x0 DUP2 CALLDATALOAD SWAP1 POP PUSH2 0x248B DUP2 PUSH2 0x2465 JUMP JUMPDEST SWAP3 SWAP2 POP POP JUMP JUMPDEST PUSH1 0x0 PUSH1 0x20 DUP3 DUP5 SUB SLT ISZERO PUSH2 0x24A7 JUMPI PUSH2 0x24A6 PUSH2 0x242F JUMP JUMPDEST JUMPDEST PUSH1 0x0 PUSH2 0x24B5 DUP5 DUP3 DUP6 ADD PUSH2 0x247C JUMP JUMPDEST SWAP2 POP POP SWAP3 SWAP2 POP POP JUMP JUMPDEST PUSH1 0x0 DUP2 ISZERO ISZERO SWAP1 POP SWAP2 SWAP1 POP JUMP JUMPDEST PUSH2 0x24D3 DUP2 PUSH2 0x24BE JUMP JUMPDEST DUP3 MSTORE POP POP JUMP JUMPDEST PUSH1 0x0 PUSH1 0x20 DUP3 ADD SWAP1 POP PUSH2 0x24EE PUSH1 0x0 DUP4 ADD DUP5 PUSH2 0x24CA JUMP JUMPDEST SWAP3 SWAP2 POP POP JUMP JUMPDEST PUSH1 0x0 DUP2 MLOAD SWAP1 POP SWAP2 SWAP1 POP JUMP JUMPDEST PUSH1 0x0 DUP3 DUP3 MSTORE PUSH1 0x20 DUP3 ADD SWAP1 POP SWAP3 SWAP2 POP POP JUMP JUMPDEST PUSH1 0x0 JUMPDEST DUP4 DUP2 LT ISZERO PUSH2 0x252E JUMPI DUP1 DUP3 ADD MLOAD DUP2 DUP5 ADD MSTORE PUSH1 0x20 DUP2 ADD SWAP1 POP PUSH2 0x2513 JUMP JUMPDEST PUSH1 0x0 DUP5 DUP5 ADD MSTORE POP POP POP POP JUMP JUMPDEST PUSH1 0x0 PUSH1 0x1F NOT PUSH1 0x1F DUP4 ADD AND SWAP1 POP SWAP2 SWAP1 POP JUMP JUMPDEST PUSH1 0x0 PUSH2 0x2556 DUP3 PUSH2 0x24F4 JUMP JUMPDEST PUSH2 0x2560 DUP2 DUP6 PUSH2 0x24FF JUMP JUMPDEST SWAP4 POP PUSH2 0x2570 DUP2 DUP6 PUSH1 0x20 DUP7 ADD PUSH2 0x2510 JUMP JUMPDEST PUSH2 0x2579 DUP2 PUSH2 0x253A JUMP JUMPDEST DUP5 ADD SWAP2 POP POP SWAP3 SWAP2 POP POP JUMP JUMPDEST PUSH1 0x0 PUSH1 0x20 DUP3 ADD SWAP1 POP DUP2 DUP2 SUB PUSH1 0x0 DUP4 ADD MSTORE PUSH2 0x259E DUP2 DUP5 PUSH2 0x254B JUMP JUMPDEST SWAP1 POP SWAP3 SWAP2 POP POP JUMP JUMPDEST PUSH1 0x0 DUP2 SWAP1 POP SWAP2 SWAP1 POP JUMP JUMPDEST PUSH2 0x25B9 DUP2 PUSH2 0x25A6 JUMP JUMPDEST DUP2 EQ PUSH2 0x25C4 JUMPI PUSH1 0x0 DUP1 REVERT JUMPDEST POP JUMP JUMPDEST PUSH1 0x0 DUP2 CALLDATALOAD SWAP1 POP PUSH2 0x25D6 DUP2 PUSH2 0x25B0 JUMP JUMPDEST SWAP3 SWAP2 POP POP JUMP JUMPDEST PUSH1 0x0 PUSH1 0x20 DUP3 DUP5 SUB SLT ISZERO PUSH2 0x25F2 JUMPI PUSH2 0x25F1 PUSH2 0x242F JUMP JUMPDEST JUMPDEST PUSH1 0x0 PUSH2 0x2600 DUP5 DUP3 DUP6 ADD PUSH2 0x25C7 JUMP JUMPDEST SWAP2 POP POP SWAP3 SWAP2 POP POP JUMP JUMPDEST PUSH1 0x0 PUSH20 0xFFFFFFFFFFFFFFFFFFFFFFFFFFFFFFFFFFFFFFFF DUP3 AND SWAP1 POP SWAP2 SWAP1 POP JUMP JUMPDEST PUSH1 0x0 PUSH2 0x2634 DUP3 PUSH2 0x2609 JUMP JUMPDEST SWAP1 POP SWAP2 SWAP1 POP JUMP JUMPDEST PUSH2 0x2644 DUP2 PUSH2 0x2629 JUMP JUMPDEST DUP3 MSTORE POP POP JUMP JUMPDEST PUSH1 0x0 PUSH1 0x20 DUP3 ADD SWAP1 POP PUSH2 0x265F PUSH1 0x0 DUP4 ADD DUP5 PUSH2 0x263B JUMP JUMPDEST SWAP3 SWAP2 POP POP JUMP JUMPDEST PUSH2 0x266E DUP2 PUSH2 0x2629 JUMP JUMPDEST DUP2 EQ PUSH2 0x2679 JUMPI PUSH1 0x0 DUP1 REVERT JUMPDEST POP JUMP JUMPDEST PUSH1 0x0 DUP2 CALLDATALOAD SWAP1 POP PUSH2 0x268B DUP2 PUSH2 0x2665 JUMP JUMPDEST SWAP3 SWAP2 POP POP JUMP JUMPDEST PUSH1 0x0 DUP1 PUSH1 0x40 DUP4 DUP6 SUB SLT ISZERO PUSH2 0x26A8 JUMPI PUSH2 0x26A7 PUSH2 0x242F JUMP JUMPDEST JUMPDEST PUSH1 0x0 PUSH2 0x26B6 DUP6 DUP3 DUP7 ADD PUSH2 0x267C JUMP JUMPDEST SWAP3 POP POP PUSH1 0x20 PUSH2 0x26C7 DUP6 DUP3 DUP7 ADD PUSH2 0x25C7 JUMP JUMPDEST SWAP2 POP POP SWAP3 POP SWAP3 SWAP1 POP JUMP JUMPDEST PUSH1 0x0 DUP1 PUSH1 0x0 PUSH1 0x60 DUP5 DUP7 SUB SLT ISZERO PUSH2 0x26EA JUMPI PUSH2 0x26E9 PUSH2 0x242F JUMP JUMPDEST JUMPDEST PUSH1 0x0 PUSH2 0x26F8 DUP7 DUP3 DUP8 ADD PUSH2 0x267C JUMP JUMPDEST SWAP4 POP POP PUSH1 0x20 PUSH2 0x2709 DUP7 DUP3 DUP8 ADD PUSH2 0x267C JUMP JUMPDEST SWAP3 POP POP PUSH1 0x40 PUSH2 0x271A DUP7 DUP3 DUP8 ADD PUSH2 0x25C7 JUMP JUMPDEST SWAP2 POP POP SWAP3 POP SWAP3 POP SWAP3 JUMP JUMPDEST PUSH1 0x0 PUSH1 0x20 DUP3 DUP5 SUB SLT ISZERO PUSH2 0x273A JUMPI PUSH2 0x2739 PUSH2 0x242F JUMP JUMPDEST JUMPDEST PUSH1 0x0 PUSH2 0x2748 DUP5 DUP3 DUP6 ADD PUSH2 0x267C JUMP JUMPDEST SWAP2 POP POP SWAP3 SWAP2 POP POP JUMP JUMPDEST PUSH2 0x275A DUP2 PUSH2 0x25A6 JUMP JUMPDEST DUP3 MSTORE POP POP JUMP JUMPDEST PUSH1 0x0 PUSH1 0x20 DUP3 ADD SWAP1 POP PUSH2 0x2775 PUSH1 0x0 DUP4 ADD DUP5 PUSH2 0x2751 JUMP JUMPDEST SWAP3 SWAP2 POP POP JUMP JUMPDEST PUSH1 0x0 DUP1 REVERT JUMPDEST PUSH1 0x0 DUP1 REVERT JUMPDEST PUSH1 0x0 DUP1 REVERT JUMPDEST PUSH1 0x0 DUP1 DUP4 PUSH1 0x1F DUP5 ADD SLT PUSH2 0x27A0 JUMPI PUSH2 0x279F PUSH2 0x277B JUMP JUMPDEST JUMPDEST DUP3 CALLDATALOAD SWAP1 POP PUSH8 0xFFFFFFFFFFFFFFFF DUP2 GT ISZERO PUSH2 0x27BD JUMPI PUSH2 0x27BC PUSH2 0x2780 JUMP JUMPDEST JUMPDEST PUSH1 0x20 DUP4 ADD SWAP2 POP DUP4 PUSH1 0x1 DUP3 MUL DUP4 ADD GT ISZERO PUSH2 0x27D9 JUMPI PUSH2 0x27D8 PUSH2 0x2785 JUMP JUMPDEST JUMPDEST SWAP3 POP SWAP3 SWAP1 POP JUMP JUMPDEST PUSH1 0x0 DUP1 PUSH1 0x0 DUP1 PUSH1 0x0 PUSH1 0x60 DUP7 DUP9 SUB SLT ISZERO PUSH2 0x27FC JUMPI PUSH2 0x27FB PUSH2 0x242F JUMP JUMPDEST JUMPDEST PUSH1 0x0 PUSH2 0x280A DUP9 DUP3 DUP10 ADD PUSH2 0x267C JUMP JUMPDEST SWAP6 POP POP PUSH1 0x20 DUP7 ADD CALLDATALOAD PUSH8 0xFFFFFFFFFFFFFFFF DUP2 GT ISZERO PUSH2 0x282B JUMPI PUSH2 0x282A PUSH2 0x2434 JUMP JUMPDEST JUMPDEST PUSH2 0x2837 DUP9 DUP3 DUP10 ADD PUSH2 0x278A JUMP JUMPDEST SWAP5 POP SWAP5 POP POP PUSH1 0x40 DUP7 ADD CALLDATALOAD PUSH8 0xFFFFFFFFFFFFFFFF DUP2 GT ISZERO PUSH2 0x285A JUMPI PUSH2 0x2859 PUSH2 0x2434 JUMP JUMPDEST JUMPDEST PUSH2 0x2866 DUP9 DUP3 DUP10 ADD PUSH2 0x278A JUMP JUMPDEST SWAP3 POP SWAP3 POP POP SWAP3 SWAP6 POP SWAP3 SWAP6 SWAP1 SWAP4 POP JUMP JUMPDEST PUSH2 0x287E DUP2 PUSH2 0x24BE JUMP JUMPDEST DUP2 EQ PUSH2 0x2889 JUMPI PUSH1 0x0 DUP1 REVERT JUMPDEST POP JUMP JUMPDEST PUSH1 0x0 DUP2 CALLDATALOAD SWAP1 POP PUSH2 0x289B DUP2 PUSH2 0x2875 JUMP JUMPDEST SWAP3 SWAP2 POP POP JUMP JUMPDEST PUSH1 0x0 DUP1 PUSH1 0x40 DUP4 DUP6 SUB SLT ISZERO PUSH2 0x28B8 JUMPI PUSH2 0x28B7 PUSH2 0x242F JUMP JUMPDEST JUMPDEST PUSH1 0x0 PUSH2 0x28C6 DUP6 DUP3 DUP7 ADD PUSH2 0x267C JUMP JUMPDEST SWAP3 POP POP PUSH1 0x20 PUSH2 0x28D7 DUP6 DUP3 DUP7 ADD PUSH2 0x288C JUMP JUMPDEST SWAP2 POP POP SWAP3 POP SWAP3 SWAP1 POP JUMP JUMPDEST PUSH1 0x0 DUP1 REVERT JUMPDEST PUSH32 0x4E487B7100000000000000000000000000000000000000000000000000000000 PUSH1 0x0 MSTORE PUSH1 0x41 PUSH1 0x4 MSTORE PUSH1 0x24 PUSH1 0x0 REVERT JUMPDEST PUSH2 0x291E DUP3 PUSH2 0x253A JUMP JUMPDEST DUP2 ADD DUP2 DUP2 LT PUSH8 0xFFFFFFFFFFFFFFFF DUP3 GT OR ISZERO PUSH2 0x293D JUMPI PUSH2 0x293C PUSH2 0x28E6 JUMP JUMPDEST JUMPDEST DUP1 PUSH1 0x40 MSTORE POP POP POP JUMP JUMPDEST PUSH1 0x0 PUSH2 0x2950 PUSH2 0x2425 JUMP JUMPDEST SWAP1 POP PUSH2 0x295C DUP3 DUP3 PUSH2 0x2915 JUMP JUMPDEST SWAP2 SWAP1 POP JUMP JUMPDEST PUSH1 0x0 PUSH8 0xFFFFFFFFFFFFFFFF DUP3 GT ISZERO PUSH2 0x297C JUMPI PUSH2 0x297B PUSH2 0x28E6 JUMP JUMPDEST JUMPDEST PUSH2 0x2985 DUP3 PUSH2 0x253A JUMP JUMPDEST SWAP1 POP PUSH1 0x20 DUP2 ADD SWAP1 POP SWAP2 SWAP1 POP JUMP JUMPDEST DUP3 DUP2 DUP4 CALLDATACOPY PUSH1 0x0 DUP4 DUP4 ADD MSTORE POP POP POP JUMP JUMPDEST PUSH1 0x0 PUSH2 0x29B4 PUSH2 0x29AF DUP5 PUSH2 0x2961 JUMP JUMPDEST PUSH2 0x2946 JUMP JUMPDEST SWAP1 POP DUP3 DUP2 MSTORE PUSH1 0x20 DUP2 ADD DUP5 DUP5 DUP5 ADD GT ISZERO PUSH2 0x29D0 JUMPI PUSH2 0x29CF PUSH2 0x28E1 JUMP JUMPDEST JUMPDEST PUSH2 0x29DB DUP5 DUP3 DUP6 PUSH2 0x2992 JUMP JUMPDEST POP SWAP4 SWAP3 POP POP POP JUMP JUMPDEST PUSH1 0x0 DUP3 PUSH1 0x1F DUP4 ADD SLT PUSH2 0x29F8 JUMPI PUSH2 0x29F7 PUSH2 0x277B JUMP JUMPDEST JUMPDEST DUP2 CALLDATALOAD PUSH2 0x2A08 DUP5 DUP3 PUSH1 0x20 DUP7 ADD PUSH2 0x29A1 JUMP JUMPDEST SWAP2 POP POP SWAP3 SWAP2 POP POP JUMP JUMPDEST PUSH1 0x0 DUP1 PUSH1 0x0 DUP1 PUSH1 0x80 DUP6 DUP8 SUB SLT ISZERO PUSH2 0x2A2B JUMPI PUSH2 0x2A2A PUSH2 0x242F JUMP JUMPDEST JUMPDEST PUSH1 0x0 PUSH2 0x2A39 DUP8 DUP3 DUP9 ADD PUSH2 0x267C JUMP JUMPDEST SWAP5 POP POP PUSH1 0x20 PUSH2 0x2A4A DUP8 DUP3 DUP9 ADD PUSH2 0x267C JUMP JUMPDEST SWAP4 POP POP PUSH1 0x40 PUSH2 0x2A5B DUP8 DUP3 DUP9 ADD PUSH2 0x25C7 JUMP JUMPDEST SWAP3 POP POP PUSH1 0x60 DUP6 ADD CALLDATALOAD PUSH8 0xFFFFFFFFFFFFFFFF DUP2 GT ISZERO PUSH2 0x2A7C JUMPI PUSH2 0x2A7B PUSH2 0x2434 JUMP JUMPDEST JUMPDEST PUSH2 0x2A88 DUP8 DUP3 DUP9 ADD PUSH2 0x29E3 JUMP JUMPDEST SWAP2 POP POP SWAP3 SWAP6 SWAP2 SWAP5 POP SWAP3 POP JUMP JUMPDEST PUSH1 0x0 DUP1 PUSH1 0x40 DUP4 DUP6 SUB SLT ISZERO PUSH2 0x2AAB JUMPI PUSH2 0x2AAA PUSH2 0x242F JUMP JUMPDEST JUMPDEST PUSH1 0x0 PUSH2 0x2AB9 DUP6 DUP3 DUP7 ADD PUSH2 0x267C JUMP JUMPDEST SWAP3 POP POP PUSH1 0x20 PUSH2 0x2ACA DUP6 DUP3 DUP7 ADD PUSH2 0x267C JUMP JUMPDEST SWAP2 POP POP SWAP3 POP SWAP3 SWAP1 POP JUMP JUMPDEST PUSH1 0x0 DUP3 DUP3 MSTORE PUSH1 0x20 DUP3 ADD SWAP1 POP SWAP3 SWAP2 POP POP JUMP JUMPDEST PUSH1 0x0 PUSH2 0x2AF0 DUP3 PUSH2 0x24F4 JUMP JUMPDEST PUSH2 0x2AFA DUP2 DUP6 PUSH2 0x2AD4 JUMP JUMPDEST SWAP4 POP PUSH2 0x2B0A DUP2 DUP6 PUSH1 0x20 DUP7 ADD PUSH2 0x2510 JUMP JUMPDEST PUSH2 0x2B13 DUP2 PUSH2 0x253A JUMP JUMPDEST DUP5 ADD SWAP2 POP POP SWAP3 SWAP2 POP POP JUMP JUMPDEST PUSH2 0x2B27 DUP2 PUSH2 0x25A6 JUMP JUMPDEST DUP3 MSTORE POP POP JUMP JUMPDEST PUSH1 0x0 PUSH1 0x60 DUP4 ADD PUSH1 0x0 DUP4 ADD MLOAD DUP5 DUP3 SUB PUSH1 0x0 DUP7 ADD MSTORE PUSH2 0x2B4A DUP3 DUP3 PUSH2 0x2AE5 JUMP JUMPDEST SWAP2 POP POP PUSH1 0x20 DUP4 ADD MLOAD DUP5 DUP3 SUB PUSH1 0x20 DUP7 ADD MSTORE PUSH2 0x2B64 DUP3 DUP3 PUSH2 0x2AE5 JUMP JUMPDEST SWAP2 POP POP PUSH1 0x40 DUP4 ADD MLOAD PUSH2 0x2B79 PUSH1 0x40 DUP7 ADD DUP3 PUSH2 0x2B1E JUMP JUMPDEST POP DUP1 SWAP2 POP POP SWAP3 SWAP2 POP POP JUMP JUMPDEST PUSH1 0x0 PUSH1 0x20 DUP3 ADD SWAP1 POP DUP2 DUP2 SUB PUSH1 0x0 DUP4 ADD MSTORE PUSH2 0x2B9E DUP2 DUP5 PUSH2 0x2B2D JUMP JUMPDEST SWAP1 POP SWAP3 SWAP2 POP POP JUMP JUMPDEST PUSH32 0x4E487B7100000000000000000000000000000000000000000000000000000000 PUSH1 0x0 MSTORE PUSH1 0x22 PUSH1 0x4 MSTORE PUSH1 0x24 PUSH1 0x0 REVERT JUMPDEST PUSH1 0x0 PUSH1 0x2 DUP3 DIV SWAP1 POP PUSH1 0x1 DUP3 AND DUP1 PUSH2 0x2BED JUMPI PUSH1 0x7F DUP3 AND SWAP2 POP JUMPDEST PUSH1 0x20 DUP3 LT DUP2 SUB PUSH2 0x2C00 JUMPI PUSH2 0x2BFF PUSH2 0x2BA6 JUMP JUMPDEST JUMPDEST POP SWAP2 SWAP1 POP JUMP JUMPDEST PUSH32 0x4552433732313A20617070726F76616C20746F2063757272656E74206F776E65 PUSH1 0x0 DUP3 ADD MSTORE PUSH32 0x7200000000000000000000000000000000000000000000000000000000000000 PUSH1 0x20 DUP3 ADD MSTORE POP JUMP JUMPDEST PUSH1 0x0 PUSH2 0x2C62 PUSH1 0x21 DUP4 PUSH2 0x24FF JUMP JUMPDEST SWAP2 POP PUSH2 0x2C6D DUP3 PUSH2 0x2C06 JUMP JUMPDEST PUSH1 0x40 DUP3 ADD SWAP1 POP SWAP2 SWAP1 POP JUMP JUMPDEST PUSH1 0x0 PUSH1 0x20 DUP3 ADD SWAP1 POP DUP2 DUP2 SUB PUSH1 0x0 DUP4 ADD MSTORE PUSH2 0x2C91 DUP2 PUSH2 0x2C55 JUMP JUMPDEST SWAP1 POP SWAP2 SWAP1 POP JUMP JUMPDEST PUSH32 0x4552433732313A20617070726F76652063616C6C6572206973206E6F7420746F PUSH1 0x0 DUP3 ADD MSTORE PUSH32 0x6B656E206F776E6572206F7220617070726F76656420666F7220616C6C000000 PUSH1 0x20 DUP3 ADD MSTORE POP JUMP JUMPDEST PUSH1 0x0 PUSH2 0x2CF4 PUSH1 0x3D DUP4 PUSH2 0x24FF JUMP JUMPDEST SWAP2 POP PUSH2 0x2CFF DUP3 PUSH2 0x2C98 JUMP JUMPDEST PUSH1 0x40 DUP3 ADD SWAP1 POP SWAP2 SWAP1 POP JUMP JUMPDEST PUSH1 0x0 PUSH1 0x20 DUP3 ADD SWAP1 POP DUP2 DUP2 SUB PUSH1 0x0 DUP4 ADD MSTORE PUSH2 0x2D23 DUP2 PUSH2 0x2CE7 JUMP JUMPDEST SWAP1 POP SWAP2 SWAP1 POP JUMP JUMPDEST PUSH32 0x4552433732313A2063616C6C6572206973206E6F7420746F6B656E206F776E65 PUSH1 0x0 DUP3 ADD MSTORE PUSH32 0x72206F7220617070726F76656400000000000000000000000000000000000000 PUSH1 0x20 DUP3 ADD MSTORE POP JUMP JUMPDEST PUSH1 0x0 PUSH2 0x2D86 PUSH1 0x2D DUP4 PUSH2 0x24FF JUMP JUMPDEST SWAP2 POP PUSH2 0x2D91 DUP3 PUSH2 0x2D2A JUMP JUMPDEST PUSH1 0x40 DUP3 ADD SWAP1 POP SWAP2 SWAP1 POP JUMP JUMPDEST PUSH1 0x0 PUSH1 0x20 DUP3 ADD SWAP1 POP DUP2 DUP2 SUB PUSH1 0x0 DUP4 ADD MSTORE PUSH2 0x2DB5 DUP2 PUSH2 0x2D79 JUMP JUMPDEST SWAP1 POP SWAP2 SWAP1 POP JUMP JUMPDEST PUSH1 0x0 DUP2 SWAP1 POP DUP2 PUSH1 0x0 MSTORE PUSH1 0x20 PUSH1 0x0 KECCAK256 SWAP1 POP SWAP2 SWAP1 POP JUMP JUMPDEST PUSH1 0x0 PUSH1 0x20 PUSH1 0x1F DUP4 ADD DIV SWAP1 POP SWAP2 SWAP1 POP JUMP JUMPDEST PUSH1 0x0 DUP3 DUP3 SHL SWAP1 POP SWAP3 SWAP2 POP POP JUMP JUMPDEST PUSH1 0x0 PUSH1 0x8 DUP4 MUL PUSH2 0x2E1E PUSH32 0xFFFFFFFFFFFFFFFFFFFFFFFFFFFFFFFFFFFFFFFFFFFFFFFFFFFFFFFFFFFFFFFF DUP3 PUSH2 0x2DE1 JUMP JUMPDEST PUSH2 0x2E28 DUP7 DUP4 PUSH2 0x2DE1 JUMP JUMPDEST SWAP6 POP DUP1 NOT DUP5 AND SWAP4 POP DUP1 DUP7 AND DUP5 OR SWAP3 POP POP POP SWAP4 SWAP3 POP POP POP JUMP JUMPDEST PUSH1 0x0 DUP2 SWAP1 POP SWAP2 SWAP1 POP JUMP JUMPDEST PUSH1 0x0 PUSH2 0x2E65 PUSH2 0x2E60 PUSH2 0x2E5B DUP5 PUSH2 0x25A6 JUMP JUMPDEST PUSH2 0x2E40 JUMP JUMPDEST PUSH2 0x25A6 JUMP JUMPDEST SWAP1 POP SWAP2 SWAP1 POP JUMP JUMPDEST PUSH1 0x0 DUP2 SWAP1 POP SWAP2 SWAP1 POP JUMP JUMPDEST PUSH2 0x2E7F DUP4 PUSH2 0x2E4A JUMP JUMPDEST PUSH2 0x2E93 PUSH2 0x2E8B DUP3 PUSH2 0x2E6C JUMP JUMPDEST DUP5 DUP5 SLOAD PUSH2 0x2DEE JUMP JUMPDEST DUP3 SSTORE POP POP POP POP JUMP JUMPDEST PUSH1 0x0 SWAP1 JUMP JUMPDEST PUSH2 0x2EA8 PUSH2 0x2E9B JUMP JUMPDEST PUSH2 0x2EB3 DUP2 DUP5 DUP5 PUSH2 0x2E76 JUMP JUMPDEST POP POP POP JUMP JUMPDEST JUMPDEST DUP2 DUP2 LT ISZERO PUSH2 0x2ED7 JUMPI PUSH2 0x2ECC PUSH1 0x0 DUP3 PUSH2 0x2EA0 JUMP JUMPDEST PUSH1 0x1 DUP2 ADD SWAP1 POP PUSH2 0x2EB9 JUMP JUMPDEST POP POP JUMP JUMPDEST PUSH1 0x1F DUP3 GT ISZERO PUSH2 0x2F1C JUMPI PUSH2 0x2EED DUP2 PUSH2 0x2DBC JUMP JUMPDEST PUSH2 0x2EF6 DUP5 PUSH2 0x2DD1 JUMP JUMPDEST DUP2 ADD PUSH1 0x20 DUP6 LT ISZERO PUSH2 0x2F05 JUMPI DUP2 SWAP1 POP JUMPDEST PUSH2 0x2F19 PUSH2 0x2F11 DUP6 PUSH2 0x2DD1 JUMP JUMPDEST DUP4 ADD DUP3 PUSH2 0x2EB8 JUMP JUMPDEST POP POP JUMPDEST POP POP POP JUMP JUMPDEST PUSH1 0x0 DUP3 DUP3 SHR SWAP1 POP SWAP3 SWAP2 POP POP JUMP JUMPDEST PUSH1 0x0 PUSH2 0x2F3F PUSH1 0x0 NOT DUP5 PUSH1 0x8 MUL PUSH2 0x2F21 JUMP JUMPDEST NOT DUP1 DUP4 AND SWAP2 POP POP SWAP3 SWAP2 POP POP JUMP JUMPDEST PUSH1 0x0 PUSH2 0x2F58 DUP4 DUP4 PUSH2 0x2F2E JUMP JUMPDEST SWAP2 POP DUP3 PUSH1 0x2 MUL DUP3 OR SWAP1 POP SWAP3 SWAP2 POP POP JUMP JUMPDEST PUSH2 0x2F71 DUP3 PUSH2 0x24F4 JUMP JUMPDEST PUSH8 0xFFFFFFFFFFFFFFFF DUP2 GT ISZERO PUSH2 0x2F8A JUMPI PUSH2 0x2F89 PUSH2 0x28E6 JUMP JUMPDEST JUMPDEST PUSH2 0x2F94 DUP3 SLOAD PUSH2 0x2BD5 JUMP JUMPDEST PUSH2 0x2F9F DUP3 DUP3 DUP6 PUSH2 0x2EDB JUMP JUMPDEST PUSH1 0x0 PUSH1 0x20 SWAP1 POP PUSH1 0x1F DUP4 GT PUSH1 0x1 DUP2 EQ PUSH2 0x2FD2 JUMPI PUSH1 0x0 DUP5 ISZERO PUSH2 0x2FC0 JUMPI DUP3 DUP8 ADD MLOAD SWAP1 POP JUMPDEST PUSH2 0x2FCA DUP6 DUP3 PUSH2 0x2F4C JUMP JUMPDEST DUP7 SSTORE POP PUSH2 0x3032 JUMP JUMPDEST PUSH1 0x1F NOT DUP5 AND PUSH2 0x2FE0 DUP7 PUSH2 0x2DBC JUMP JUMPDEST PUSH1 0x0 JUMPDEST DUP3 DUP2 LT ISZERO PUSH2 0x3008 JUMPI DUP5 DUP10 ADD MLOAD DUP3 SSTORE PUSH1 0x1 DUP3 ADD SWAP2 POP PUSH1 0x20 DUP6 ADD SWAP5 POP PUSH1 0x20 DUP2 ADD SWAP1 POP PUSH2 0x2FE3 JUMP JUMPDEST DUP7 DUP4 LT ISZERO PUSH2 0x3025 JUMPI DUP5 DUP10 ADD MLOAD PUSH2 0x3021 PUSH1 0x1F DUP10 AND DUP3 PUSH2 0x2F2E JUMP JUMPDEST DUP4 SSTORE POP JUMPDEST PUSH1 0x1 PUSH1 0x2 DUP9 MUL ADD DUP9 SSTORE POP POP POP JUMPDEST POP POP POP POP POP POP JUMP JUMPDEST PUSH32 0x4552433732313A20696E76616C696420746F6B656E2049440000000000000000 PUSH1 0x0 DUP3 ADD MSTORE POP JUMP JUMPDEST PUSH1 0x0 PUSH2 0x3070 PUSH1 0x18 DUP4 PUSH2 0x24FF JUMP JUMPDEST SWAP2 POP PUSH2 0x307B DUP3 PUSH2 0x303A JUMP JUMPDEST PUSH1 0x20 DUP3 ADD SWAP1 POP SWAP2 SWAP1 POP JUMP JUMPDEST PUSH1 0x0 PUSH1 0x20 DUP3 ADD SWAP1 POP DUP2 DUP2 SUB PUSH1 0x0 DUP4 ADD MSTORE PUSH2 0x309F DUP2 PUSH2 0x3063 JUMP JUMPDEST SWAP1 POP SWAP2 SWAP1 POP JUMP JUMPDEST PUSH32 0x4552433732313A2061646472657373207A65726F206973206E6F742061207661 PUSH1 0x0 DUP3 ADD MSTORE PUSH32 0x6C6964206F776E65720000000000000000000000000000000000000000000000 PUSH1 0x20 DUP3 ADD MSTORE POP JUMP JUMPDEST PUSH1 0x0 PUSH2 0x3102 PUSH1 0x29 DUP4 PUSH2 0x24FF JUMP JUMPDEST SWAP2 POP PUSH2 0x310D DUP3 PUSH2 0x30A6 JUMP JUMPDEST PUSH1 0x40 DUP3 ADD SWAP1 POP SWAP2 SWAP1 POP JUMP JUMPDEST PUSH1 0x0 PUSH1 0x20 DUP3 ADD SWAP1 POP DUP2 DUP2 SUB PUSH1 0x0 DUP4 ADD MSTORE PUSH2 0x3131 DUP2 PUSH2 0x30F5 JUMP JUMPDEST SWAP1 POP SWAP2 SWAP1 POP JUMP JUMPDEST PUSH32 0x4E487B7100000000000000000000000000000000000000000000000000000000 PUSH1 0x0 MSTORE PUSH1 0x11 PUSH1 0x4 MSTORE PUSH1 0x24 PUSH1 0x0 REVERT JUMPDEST PUSH1 0x0 PUSH2 0x3172 DUP3 PUSH2 0x25A6 JUMP JUMPDEST SWAP2 POP PUSH2 0x317D DUP4 PUSH2 0x25A6 JUMP JUMPDEST SWAP3 POP DUP3 DUP3 ADD SWAP1 POP DUP1 DUP3 GT ISZERO PUSH2 0x3195 JUMPI PUSH2 0x3194 PUSH2 0x3138 JUMP JUMPDEST JUMPDEST SWAP3 SWAP2 POP POP JUMP JUMPDEST PUSH32 0x596F7520616C7265616479206861766520616E206964656E7469747920617373 PUSH1 0x0 DUP3 ADD MSTORE PUSH32 0x6F63696174656420776974682074686174206164647265737300000000000000 PUSH1 0x20 DUP3 ADD MSTORE POP JUMP JUMPDEST PUSH1 0x0 PUSH2 0x31F7 PUSH1 0x39 DUP4 PUSH2 0x24FF JUMP JUMPDEST SWAP2 POP PUSH2 0x3202 DUP3 PUSH2 0x319B JUMP JUMPDEST PUSH1 0x40 DUP3 ADD SWAP1 POP SWAP2 SWAP1 POP JUMP JUMPDEST PUSH1 0x0 PUSH1 0x20 DUP3 ADD SWAP1 POP DUP2 DUP2 SUB PUSH1 0x0 DUP4 ADD MSTORE PUSH2 0x3226 DUP2 PUSH2 0x31EA JUMP JUMPDEST SWAP1 POP SWAP2 SWAP1 POP JUMP JUMPDEST PUSH32 0x4E616D65206F72207375726E616D652063616E277420626520656D7074790000 PUSH1 0x0 DUP3 ADD MSTORE POP JUMP JUMPDEST PUSH1 0x0 PUSH2 0x3263 PUSH1 0x1E DUP4 PUSH2 0x24FF JUMP JUMPDEST SWAP2 POP PUSH2 0x326E DUP3 PUSH2 0x322D JUMP JUMPDEST PUSH1 0x20 DUP3 ADD SWAP1 POP SWAP2 SWAP1 POP JUMP JUMPDEST PUSH1 0x0 PUSH1 0x20 DUP3 ADD SWAP1 POP DUP2 DUP2 SUB PUSH1 0x0 DUP4 ADD MSTORE PUSH2 0x3292 DUP2 PUSH2 0x3256 JUMP JUMPDEST SWAP1 POP SWAP2 SWAP1 POP JUMP JUMPDEST PUSH1 0x0 DUP2 SWAP1 POP SWAP3 SWAP2 POP POP JUMP JUMPDEST PUSH1 0x0 PUSH2 0x32AF DUP3 PUSH2 0x24F4 JUMP JUMPDEST PUSH2 0x32B9 DUP2 DUP6 PUSH2 0x3299 JUMP JUMPDEST SWAP4 POP PUSH2 0x32C9 DUP2 DUP6 PUSH1 0x20 DUP7 ADD PUSH2 0x2510 JUMP JUMPDEST DUP1 DUP5 ADD SWAP2 POP POP SWAP3 SWAP2 POP POP JUMP JUMPDEST PUSH1 0x0 PUSH2 0x32E1 DUP3 DUP6 PUSH2 0x32A4 JUMP JUMPDEST SWAP2 POP PUSH2 0x32ED DUP3 DUP5 PUSH2 0x32A4 JUMP JUMPDEST SWAP2 POP DUP2 SWAP1 POP SWAP4 SWAP3 POP POP POP JUMP JUMPDEST PUSH32 0x4F776E61626C653A206E6577206F776E657220697320746865207A65726F2061 PUSH1 0x0 DUP3 ADD MSTORE PUSH32 0x6464726573730000000000000000000000000000000000000000000000000000 PUSH1 0x20 DUP3 ADD MSTORE POP JUMP JUMPDEST PUSH1 0x0 PUSH2 0x3355 PUSH1 0x26 DUP4 PUSH2 0x24FF JUMP JUMPDEST SWAP2 POP PUSH2 0x3360 DUP3 PUSH2 0x32F9 JUMP JUMPDEST PUSH1 0x40 DUP3 ADD SWAP1 POP SWAP2 SWAP1 POP JUMP JUMPDEST PUSH1 0x0 PUSH1 0x20 DUP3 ADD SWAP1 POP DUP2 DUP2 SUB PUSH1 0x0 DUP4 ADD MSTORE PUSH2 0x3384 DUP2 PUSH2 0x3348 JUMP JUMPDEST SWAP1 POP SWAP2 SWAP1 POP JUMP JUMPDEST PUSH32 0x4552433732313A207472616E736665722066726F6D20696E636F727265637420 PUSH1 0x0 DUP3 ADD MSTORE PUSH32 0x6F776E6572000000000000000000000000000000000000000000000000000000 PUSH1 0x20 DUP3 ADD MSTORE POP JUMP JUMPDEST PUSH1 0x0 PUSH2 0x33E7 PUSH1 0x25 DUP4 PUSH2 0x24FF JUMP JUMPDEST SWAP2 POP PUSH2 0x33F2 DUP3 PUSH2 0x338B JUMP JUMPDEST PUSH1 0x40 DUP3 ADD SWAP1 POP SWAP2 SWAP1 POP JUMP JUMPDEST PUSH1 0x0 PUSH1 0x20 DUP3 ADD SWAP1 POP DUP2 DUP2 SUB PUSH1 0x0 DUP4 ADD MSTORE PUSH2 0x3416 DUP2 PUSH2 0x33DA JUMP JUMPDEST SWAP1 POP SWAP2 SWAP1 POP JUMP JUMPDEST PUSH32 0x4552433732313A207472616E7366657220746F20746865207A65726F20616464 PUSH1 0x0 DUP3 ADD MSTORE PUSH32 0x7265737300000000000000000000000000000000000000000000000000000000 PUSH1 0x20 DUP3 ADD MSTORE POP JUMP JUMPDEST PUSH1 0x0 PUSH2 0x3479 PUSH1 0x24 DUP4 PUSH2 0x24FF JUMP JUMPDEST SWAP2 POP PUSH2 0x3484 DUP3 PUSH2 0x341D JUMP JUMPDEST PUSH1 0x40 DUP3 ADD SWAP1 POP SWAP2 SWAP1 POP JUMP JUMPDEST PUSH1 0x0 PUSH1 0x20 DUP3 ADD SWAP1 POP DUP2 DUP2 SUB PUSH1 0x0 DUP4 ADD MSTORE PUSH2 0x34A8 DUP2 PUSH2 0x346C JUMP JUMPDEST SWAP1 POP SWAP2 SWAP1 POP JUMP JUMPDEST PUSH32 0x4F776E61626C653A2063616C6C6572206973206E6F7420746865206F776E6572 PUSH1 0x0 DUP3 ADD MSTORE POP JUMP JUMPDEST PUSH1 0x0 PUSH2 0x34E5 PUSH1 0x20 DUP4 PUSH2 0x24FF JUMP JUMPDEST SWAP2 POP PUSH2 0x34F0 DUP3 PUSH2 0x34AF JUMP JUMPDEST PUSH1 0x20 DUP3 ADD SWAP1 POP SWAP2 SWAP1 POP JUMP JUMPDEST PUSH1 0x0 PUSH1 0x20 DUP3 ADD SWAP1 POP DUP2 DUP2 SUB PUSH1 0x0 DUP4 ADD MSTORE PUSH2 0x3514 DUP2 PUSH2 0x34D8 JUMP JUMPDEST SWAP1 POP SWAP2 SWAP1 POP JUMP JUMPDEST PUSH32 0x4552433732313A20617070726F766520746F2063616C6C657200000000000000 PUSH1 0x0 DUP3 ADD MSTORE POP JUMP JUMPDEST PUSH1 0x0 PUSH2 0x3551 PUSH1 0x19 DUP4 PUSH2 0x24FF JUMP JUMPDEST SWAP2 POP PUSH2 0x355C DUP3 PUSH2 0x351B JUMP JUMPDEST PUSH1 0x20 DUP3 ADD SWAP1 POP SWAP2 SWAP1 POP JUMP JUMPDEST PUSH1 0x0 PUSH1 0x20 DUP3 ADD SWAP1 POP DUP2 DUP2 SUB PUSH1 0x0 DUP4 ADD MSTORE PUSH2 0x3580 DUP2 PUSH2 0x3544 JUMP JUMPDEST SWAP1 POP SWAP2 SWAP1 POP JUMP JUMPDEST PUSH32 0x4552433732313A207472616E7366657220746F206E6F6E204552433732315265 PUSH1 0x0 DUP3 ADD MSTORE PUSH32 0x63656976657220696D706C656D656E7465720000000000000000000000000000 PUSH1 0x20 DUP3 ADD MSTORE POP JUMP JUMPDEST PUSH1 0x0 PUSH2 0x35E3 PUSH1 0x32 DUP4 PUSH2 0x24FF JUMP JUMPDEST SWAP2 POP PUSH2 0x35EE DUP3 PUSH2 0x3587 JUMP JUMPDEST PUSH1 0x40 DUP3 ADD SWAP1 POP SWAP2 SWAP1 POP JUMP JUMPDEST PUSH1 0x0 PUSH1 0x20 DUP3 ADD SWAP1 POP DUP2 DUP2 SUB PUSH1 0x0 DUP4 ADD MSTORE PUSH2 0x3612 DUP2 PUSH2 0x35D6 JUMP JUMPDEST SWAP1 POP SWAP2 SWAP1 POP JUMP JUMPDEST PUSH32 0x4E487B7100000000000000000000000000000000000000000000000000000000 PUSH1 0x0 MSTORE PUSH1 0x12 PUSH1 0x4 MSTORE PUSH1 0x24 PUSH1 0x0 REVERT JUMPDEST PUSH32 0x43616E6E6F74207472616E736665720000000000000000000000000000000000 PUSH1 0x0 DUP3 ADD MSTORE POP JUMP JUMPDEST PUSH1 0x0 PUSH2 0x367E PUSH1 0xF DUP4 PUSH2 0x24FF JUMP JUMPDEST SWAP2 POP PUSH2 0x3689 DUP3 PUSH2 0x3648 JUMP JUMPDEST PUSH1 0x20 DUP3 ADD SWAP1 POP SWAP2 SWAP1 POP JUMP JUMPDEST PUSH1 0x0 PUSH1 0x20 DUP3 ADD SWAP1 POP DUP2 DUP2 SUB PUSH1 0x0 DUP4 ADD MSTORE PUSH2 0x36AD DUP2 PUSH2 0x3671 JUMP JUMPDEST SWAP1 POP SWAP2 SWAP1 POP JUMP JUMPDEST PUSH32 0x5061757361626C653A206E6F7420706175736564000000000000000000000000 PUSH1 0x0 DUP3 ADD MSTORE POP JUMP JUMPDEST PUSH1 0x0 PUSH2 0x36EA PUSH1 0x14 DUP4 PUSH2 0x24FF JUMP JUMPDEST SWAP2 POP PUSH2 0x36F5 DUP3 PUSH2 0x36B4 JUMP JUMPDEST PUSH1 0x20 DUP3 ADD SWAP1 POP SWAP2 SWAP1 POP JUMP JUMPDEST PUSH1 0x0 PUSH1 0x20 DUP3 ADD SWAP1 POP DUP2 DUP2 SUB PUSH1 0x0 DUP4 ADD MSTORE PUSH2 0x3719 DUP2 PUSH2 0x36DD JUMP JUMPDEST SWAP1 POP SWAP2 SWAP1 POP JUMP JUMPDEST PUSH32 0x5061757361626C653A2070617573656400000000000000000000000000000000 PUSH1 0x0 DUP3 ADD MSTORE POP JUMP JUMPDEST PUSH1 0x0 PUSH2 0x3756 PUSH1 0x10 DUP4 PUSH2 0x24FF JUMP JUMPDEST SWAP2 POP PUSH2 0x3761 DUP3 PUSH2 0x3720 JUMP JUMPDEST PUSH1 0x20 DUP3 ADD SWAP1 POP SWAP2 SWAP1 POP JUMP JUMPDEST PUSH1 0x0 PUSH1 0x20 DUP3 ADD SWAP1 POP DUP2 DUP2 SUB PUSH1 0x0 DUP4 ADD MSTORE PUSH2 0x3785 DUP2 PUSH2 0x3749 JUMP JUMPDEST SWAP1 POP SWAP2 SWAP1 POP JUMP JUMPDEST PUSH1 0x0 DUP2 MLOAD SWAP1 POP SWAP2 SWAP1 POP JUMP JUMPDEST PUSH1 0x0 DUP3 DUP3 MSTORE PUSH1 0x20 DUP3 ADD SWAP1 POP SWAP3 SWAP2 POP POP JUMP JUMPDEST PUSH1 0x0 PUSH2 0x37B3 DUP3 PUSH2 0x378C JUMP JUMPDEST PUSH2 0x37BD DUP2 DUP6 PUSH2 0x3797 JUMP JUMPDEST SWAP4 POP PUSH2 0x37CD DUP2 DUP6 PUSH1 0x20 DUP7 ADD PUSH2 0x2510 JUMP JUMPDEST PUSH2 0x37D6 DUP2 PUSH2 0x253A JUMP JUMPDEST DUP5 ADD SWAP2 POP POP SWAP3 SWAP2 POP POP JUMP JUMPDEST PUSH1 0x0 PUSH1 0x80 DUP3 ADD SWAP1 POP PUSH2 0x37F6 PUSH1 0x0 DUP4 ADD DUP8 PUSH2 0x263B JUMP JUMPDEST PUSH2 0x3803 PUSH1 0x20 DUP4 ADD DUP7 PUSH2 0x263B JUMP JUMPDEST PUSH2 0x3810 PUSH1 0x40 DUP4 ADD DUP6 PUSH2 0x2751 JUMP JUMPDEST DUP2 DUP2 SUB PUSH1 0x60 DUP4 ADD MSTORE PUSH2 0x3822 DUP2 DUP5 PUSH2 0x37A8 JUMP JUMPDEST SWAP1 POP SWAP6 SWAP5 POP POP POP POP POP JUMP JUMPDEST PUSH1 0x0 DUP2 MLOAD SWAP1 POP PUSH2 0x383C DUP2 PUSH2 0x2465 JUMP JUMPDEST SWAP3 SWAP2 POP POP JUMP JUMPDEST PUSH1 0x0 PUSH1 0x20 DUP3 DUP5 SUB SLT ISZERO PUSH2 0x3858 JUMPI PUSH2 0x3857 PUSH2 0x242F JUMP JUMPDEST JUMPDEST PUSH1 0x0 PUSH2 0x3866 DUP5 DUP3 DUP6 ADD PUSH2 0x382D JUMP JUMPDEST SWAP2 POP POP SWAP3 SWAP2 POP POP JUMP JUMPDEST PUSH32 0x4552433732313A206D696E7420746F20746865207A65726F2061646472657373 PUSH1 0x0 DUP3 ADD MSTORE POP JUMP JUMPDEST PUSH1 0x0 PUSH2 0x38A5 PUSH1 0x20 DUP4 PUSH2 0x24FF JUMP JUMPDEST SWAP2 POP PUSH2 0x38B0 DUP3 PUSH2 0x386F JUMP JUMPDEST PUSH1 0x20 DUP3 ADD SWAP1 POP SWAP2 SWAP1 POP JUMP JUMPDEST PUSH1 0x0 PUSH1 0x20 DUP3 ADD SWAP1 POP DUP2 DUP2 SUB PUSH1 0x0 DUP4 ADD MSTORE PUSH2 0x38D4 DUP2 PUSH2 0x3898 JUMP JUMPDEST SWAP1 POP SWAP2 SWAP1 POP JUMP JUMPDEST PUSH32 0x4552433732313A20746F6B656E20616C7265616479206D696E74656400000000 PUSH1 0x0 DUP3 ADD MSTORE POP JUMP JUMPDEST PUSH1 0x0 PUSH2 0x3911 PUSH1 0x1C DUP4 PUSH2 0x24FF JUMP JUMPDEST SWAP2 POP PUSH2 0x391C DUP3 PUSH2 0x38DB JUMP JUMPDEST PUSH1 0x20 DUP3 ADD SWAP1 POP SWAP2 SWAP1 POP JUMP JUMPDEST PUSH1 0x0 PUSH1 0x20 DUP3 ADD SWAP1 POP DUP2 DUP2 SUB PUSH1 0x0 DUP4 ADD MSTORE PUSH2 0x3940 DUP2 PUSH2 0x3904 JUMP JUMPDEST SWAP1 POP SWAP2 SWAP1 POP JUMP INVALID LOG2 PUSH5 0x6970667358 0x22 SLT KECCAK256 0xA9 PUSH8 0xD5D994173020B98A SWAP10 0x26 0xEA SWAP6 PUSH1 0x67 DUP9 SUB DUP14 MULMOD MUL 0xE6 0xB2 DUP3 0xC SWAP12 0x1F PUSH14 0xB486F89564736F6C634300081200 CALLER "
		},
		"gasEstimates": {
			"creation": {
				"codeDepositCost": "2943400",
				"executionCost": "infinite",
				"totalCost": "infinite"
			},
			"external": {
				"approve(address,uint256)": "infinite",
				"balanceOf(address)": "3009",
				"burn(uint256)": "infinite",
				"getApproved(uint256)": "5300",
				"identity(address)": "infinite",
				"isApprovedForAll(address,address)": "infinite",
				"name()": "infinite",
				"owner()": "2661",
				"ownerOf(uint256)": "3110",
				"pause()": "infinite",
				"paused()": "2568",
				"register(address,string,string)": "infinite",
				"renounceOwnership()": "30571",
				"safeMint(address,uint256)": "infinite",
				"safeTransferFrom(address,address,uint256)": "infinite",
				"safeTransferFrom(address,address,uint256,bytes)": "infinite",
				"setApprovalForAll(address,bool)": "infinite",
				"supportsInterface(bytes4)": "797",
				"symbol()": "infinite",
				"tokenURI(uint256)": "3459",
				"transferFrom(address,address,uint256)": "infinite",
				"transferOwnership(address)": "31026",
				"unpause()": "infinite",
				"unregister(address)": "infinite"
			},
			"internal": {
				"_beforeTokenTransfer(address,address,uint256,uint256)": "infinite"
			}
		},
		"methodIdentifiers": {
			"approve(address,uint256)": "095ea7b3",
			"balanceOf(address)": "70a08231",
			"burn(uint256)": "42966c68",
			"getApproved(uint256)": "081812fc",
			"identity(address)": "f0eb5e54",
			"isApprovedForAll(address,address)": "e985e9c5",
			"name()": "06fdde03",
			"owner()": "8da5cb5b",
			"ownerOf(uint256)": "6352211e",
			"pause()": "8456cb59",
			"paused()": "5c975abb",
			"register(address,string,string)": "8d59cc02",
			"renounceOwnership()": "715018a6",
			"safeMint(address,uint256)": "a1448194",
			"safeTransferFrom(address,address,uint256)": "42842e0e",
			"safeTransferFrom(address,address,uint256,bytes)": "b88d4fde",
			"setApprovalForAll(address,bool)": "a22cb465",
			"supportsInterface(bytes4)": "01ffc9a7",
			"symbol()": "95d89b41",
			"tokenURI(uint256)": "c87b56dd",
			"transferFrom(address,address,uint256)": "23b872dd",
			"transferOwnership(address)": "f2fde38b",
			"unpause()": "3f4ba83a",
			"unregister(address)": "2ec2c246"
		}
	},
	"abi": [
		{
			"inputs": [],
			"stateMutability": "nonpayable",
			"type": "constructor"
		},
		{
			"anonymous": false,
			"inputs": [
				{
					"indexed": true,
					"internalType": "address",
					"name": "owner",
					"type": "address"
				},
				{
					"indexed": true,
					"internalType": "address",
					"name": "approved",
					"type": "address"
				},
				{
					"indexed": true,
					"internalType": "uint256",
					"name": "tokenId",
					"type": "uint256"
				}
			],
			"name": "Approval",
			"type": "event"
		},
		{
			"anonymous": false,
			"inputs": [
				{
					"indexed": true,
					"internalType": "address",
					"name": "owner",
					"type": "address"
				},
				{
					"indexed": true,
					"internalType": "address",
					"name": "operator",
					"type": "address"
				},
				{
					"indexed": false,
					"internalType": "bool",
					"name": "approved",
					"type": "bool"
				}
			],
			"name": "ApprovalForAll",
			"type": "event"
		},
		{
			"anonymous": false,
			"inputs": [
				{
					"indexed": true,
					"internalType": "address",
					"name": "previousOwner",
					"type": "address"
				},
				{
					"indexed": true,
					"internalType": "address",
					"name": "newOwner",
					"type": "address"
				}
			],
			"name": "OwnershipTransferred",
			"type": "event"
		},
		{
			"anonymous": false,
			"inputs": [
				{
					"indexed": false,
					"internalType": "address",
					"name": "account",
					"type": "address"
				}
			],
			"name": "Paused",
			"type": "event"
		},
		{
			"anonymous": false,
			"inputs": [
				{
					"indexed": true,
					"internalType": "address",
					"name": "from",
					"type": "address"
				},
				{
					"indexed": true,
					"internalType": "address",
					"name": "to",
					"type": "address"
				},
				{
					"indexed": true,
					"internalType": "uint256",
					"name": "tokenId",
					"type": "uint256"
				}
			],
			"name": "Transfer",
			"type": "event"
		},
		{
			"anonymous": false,
			"inputs": [
				{
					"indexed": false,
					"internalType": "address",
					"name": "account",
					"type": "address"
				}
			],
			"name": "Unpaused",
			"type": "event"
		},
		{
			"inputs": [
				{
					"internalType": "address",
					"name": "to",
					"type": "address"
				},
				{
					"internalType": "uint256",
					"name": "tokenId",
					"type": "uint256"
				}
			],
			"name": "approve",
			"outputs": [],
			"stateMutability": "nonpayable",
			"type": "function"
		},
		{
			"inputs": [
				{
					"internalType": "address",
					"name": "owner",
					"type": "address"
				}
			],
			"name": "balanceOf",
			"outputs": [
				{
					"internalType": "uint256",
					"name": "",
					"type": "uint256"
				}
			],
			"stateMutability": "view",
			"type": "function"
		},
		{
			"inputs": [
				{
					"internalType": "uint256",
					"name": "tokenId",
					"type": "uint256"
				}
			],
			"name": "burn",
			"outputs": [],
			"stateMutability": "nonpayable",
			"type": "function"
		},
		{
			"inputs": [
				{
					"internalType": "uint256",
					"name": "tokenId",
					"type": "uint256"
				}
			],
			"name": "getApproved",
			"outputs": [
				{
					"internalType": "address",
					"name": "",
					"type": "address"
				}
			],
			"stateMutability": "view",
			"type": "function"
		},
		{
			"inputs": [
				{
					"internalType": "address",
					"name": "to",
					"type": "address"
				}
			],
			"name": "identity",
			"outputs": [
				{
					"components": [
						{
							"internalType": "string",
							"name": "name",
							"type": "string"
						},
						{
							"internalType": "string",
							"name": "surname",
							"type": "string"
						},
						{
							"internalType": "uint256",
							"name": "tokenId",
							"type": "uint256"
						}
					],
					"internalType": "struct SocialAuthentication.Identity",
					"name": "id",
					"type": "tuple"
				}
			],
			"stateMutability": "view",
			"type": "function"
		},
		{
			"inputs": [
				{
					"internalType": "address",
					"name": "owner",
					"type": "address"
				},
				{
					"internalType": "address",
					"name": "operator",
					"type": "address"
				}
			],
			"name": "isApprovedForAll",
			"outputs": [
				{
					"internalType": "bool",
					"name": "",
					"type": "bool"
				}
			],
			"stateMutability": "view",
			"type": "function"
		},
		{
			"inputs": [],
			"name": "name",
			"outputs": [
				{
					"internalType": "string",
					"name": "",
					"type": "string"
				}
			],
			"stateMutability": "view",
			"type": "function"
		},
		{
			"inputs": [],
			"name": "owner",
			"outputs": [
				{
					"internalType": "address",
					"name": "",
					"type": "address"
				}
			],
			"stateMutability": "view",
			"type": "function"
		},
		{
			"inputs": [
				{
					"internalType": "uint256",
					"name": "tokenId",
					"type": "uint256"
				}
			],
			"name": "ownerOf",
			"outputs": [
				{
					"internalType": "address",
					"name": "",
					"type": "address"
				}
			],
			"stateMutability": "view",
			"type": "function"
		},
		{
			"inputs": [],
			"name": "pause",
			"outputs": [],
			"stateMutability": "nonpayable",
			"type": "function"
		},
		{
			"inputs": [],
			"name": "paused",
			"outputs": [
				{
					"internalType": "bool",
					"name": "",
					"type": "bool"
				}
			],
			"stateMutability": "view",
			"type": "function"
		},
		{
			"inputs": [
				{
					"internalType": "address",
					"name": "to",
					"type": "address"
				},
				{
					"internalType": "string",
					"name": "name",
					"type": "string"
				},
				{
					"internalType": "string",
					"name": "surname",
					"type": "string"
				}
			],
			"name": "register",
			"outputs": [],
			"stateMutability": "nonpayable",
			"type": "function"
		},
		{
			"inputs": [],
			"name": "renounceOwnership",
			"outputs": [],
			"stateMutability": "nonpayable",
			"type": "function"
		},
		{
			"inputs": [
				{
					"internalType": "address",
					"name": "to",
					"type": "address"
				},
				{
					"internalType": "uint256",
					"name": "tokenId",
					"type": "uint256"
				}
			],
			"name": "safeMint",
			"outputs": [],
			"stateMutability": "nonpayable",
			"type": "function"
		},
		{
			"inputs": [
				{
					"internalType": "address",
					"name": "from",
					"type": "address"
				},
				{
					"internalType": "address",
					"name": "to",
					"type": "address"
				},
				{
					"internalType": "uint256",
					"name": "tokenId",
					"type": "uint256"
				}
			],
			"name": "safeTransferFrom",
			"outputs": [],
			"stateMutability": "nonpayable",
			"type": "function"
		},
		{
			"inputs": [
				{
					"internalType": "address",
					"name": "from",
					"type": "address"
				},
				{
					"internalType": "address",
					"name": "to",
					"type": "address"
				},
				{
					"internalType": "uint256",
					"name": "tokenId",
					"type": "uint256"
				},
				{
					"internalType": "bytes",
					"name": "data",
					"type": "bytes"
				}
			],
			"name": "safeTransferFrom",
			"outputs": [],
			"stateMutability": "nonpayable",
			"type": "function"
		},
		{
			"inputs": [
				{
					"internalType": "address",
					"name": "operator",
					"type": "address"
				},
				{
					"internalType": "bool",
					"name": "approved",
					"type": "bool"
				}
			],
			"name": "setApprovalForAll",
			"outputs": [],
			"stateMutability": "nonpayable",
			"type": "function"
		},
		{
			"inputs": [
				{
					"internalType": "bytes4",
					"name": "interfaceId",
					"type": "bytes4"
				}
			],
			"name": "supportsInterface",
			"outputs": [
				{
					"internalType": "bool",
					"name": "",
					"type": "bool"
				}
			],
			"stateMutability": "view",
			"type": "function"
		},
		{
			"inputs": [],
			"name": "symbol",
			"outputs": [
				{
					"internalType": "string",
					"name": "",
					"type": "string"
				}
			],
			"stateMutability": "view",
			"type": "function"
		},
		{
			"inputs": [
				{
					"internalType": "uint256",
					"name": "tokenId",
					"type": "uint256"
				}
			],
			"name": "tokenURI",
			"outputs": [
				{
					"internalType": "string",
					"name": "",
					"type": "string"
				}
			],
			"stateMutability": "view",
			"type": "function"
		},
		{
			"inputs": [
				{
					"internalType": "address",
					"name": "from",
					"type": "address"
				},
				{
					"internalType": "address",
					"name": "to",
					"type": "address"
				},
				{
					"internalType": "uint256",
					"name": "tokenId",
					"type": "uint256"
				}
			],
			"name": "transferFrom",
			"outputs": [],
			"stateMutability": "nonpayable",
			"type": "function"
		},
		{
			"inputs": [
				{
					"internalType": "address",
					"name": "newOwner",
					"type": "address"
				}
			],
			"name": "transferOwnership",
			"outputs": [],
			"stateMutability": "nonpayable",
			"type": "function"
		},
		{
			"inputs": [],
			"name": "unpause",
			"outputs": [],
			"stateMutability": "nonpayable",
			"type": "function"
		},
		{
			"inputs": [
				{
					"internalType": "address",
					"name": "to",
					"type": "address"
				}
			],
			"name": "unregister",
			"outputs": [],
			"stateMutability": "nonpayable",
			"type": "function"
		}
	]
}